{"contracts/Campaign.sol":{"CampaignFactory":{"abi":[{"anonymous":false,"inputs":[{"indexed":true,"internalType":"string","name":"category","type":"string"},{"indexed":true,"internalType":"string","name":"country","type":"string"},{"indexed":true,"internalType":"uint256","name":"deadline","type":"uint256"},{"components":[{"internalType":"address","name":"campaignAddress","type":"address"},{"internalType":"string","name":"title","type":"string"},{"internalType":"string","name":"desc","type":"string"},{"internalType":"string","name":"imgURI","type":"string"},{"internalType":"uint256","name":"targetAmt","type":"uint256"}],"indexed":false,"internalType":"struct CampaignFactory.CampaignDetails","name":"details","type":"tuple"}],"name":"campaignCreated","type":"event"},{"inputs":[{"internalType":"string","name":"title","type":"string"},{"internalType":"string","name":"desc","type":"string"},{"internalType":"uint256","name":"targetAmt","type":"uint256"},{"internalType":"string","name":"imgURI","type":"string"},{"internalType":"string","name":"category","type":"string"},{"internalType":"string","name":"country","type":"string"},{"internalType":"uint256","name":"deadline","type":"uint256"},{"internalType":"uint256","name":"threshold","type":"uint256"},{"internalType":"uint256","name":"n1","type":"uint256"},{"internalType":"uint256","name":"n2","type":"uint256"}],"name":"createCampaign","outputs":[],"stateMutability":"nonpayable","type":"function"},{"inputs":[{"internalType":"uint256","name":"","type":"uint256"}],"name":"deployedCampaigns","outputs":[{"internalType":"address","name":"","type":"address"}],"stateMutability":"view","type":"function"}],"evm":{"bytecode":{"linkReferences":{},"object":"608060405234801561001057600080fd5b50614246806100206000396000f3fe60806040523480156200001157600080fd5b50600436106200003a5760003560e01c806318de5332146200003f578063339d50a5146200005f575b600080fd5b6200005d600480360381019062000057919062000443565b62000095565b005b6200007d6004803603810190620000779190620005d4565b62000244565b6040516200008c91906200064b565b60405180910390f35b6000603c80601887620000a9919062000697565b620000b5919062000697565b620000c1919062000697565b42620000ce9190620006e2565b905060008b8b8b8b8b8b87338c8c8c604051620000eb9062000284565b620001019b9a99989796959493929190620007b7565b604051809103906000f0801580156200011e573d6000803e3d6000fd5b50905060008190506000829080600181540180825580915050600190039060005260206000200160009091909190916101000a81548173ffffffffffffffffffffffffffffffffffffffff021916908373ffffffffffffffffffffffffffffffffffffffff16021790555060006040518060a001604052808373ffffffffffffffffffffffffffffffffffffffff1681526020018f81526020018e81526020018c81526020018d81525090508389604051620001db9190620008dd565b60405180910390208b604051620001f39190620008dd565b60405180910390207f6797bd762adba75b04766e2489a5ce963a2950f4ebb2a8492957f49f0d52cfff846040516200022c9190620009f8565b60405180910390a45050505050505050505050505050565b600081815481106200025557600080fd5b906000526020600020016000915054906101000a900473ffffffffffffffffffffffffffffffffffffffff1681565b6137f48062000a1d83390190565b6000604051905090565b600080fd5b600080fd5b600080fd5b600080fd5b6000601f19601f8301169050919050565b7f4e487b7100000000000000000000000000000000000000000000000000000000600052604160045260246000fd5b620002fb82620002b0565b810181811067ffffffffffffffff821117156200031d576200031c620002c1565b5b80604052505050565b60006200033262000292565b9050620003408282620002f0565b919050565b600067ffffffffffffffff821115620003635762000362620002c1565b5b6200036e82620002b0565b9050602081019050919050565b82818337600083830152505050565b6000620003a16200039b8462000345565b62000326565b905082815260208101848484011115620003c057620003bf620002ab565b5b620003cd8482856200037b565b509392505050565b600082601f830112620003ed57620003ec620002a6565b5b8135620003ff8482602086016200038a565b91505092915050565b6000819050919050565b6200041d8162000408565b81146200042957600080fd5b50565b6000813590506200043d8162000412565b92915050565b6000806000806000806000806000806101408b8d0312156200046a57620004696200029c565b5b60008b013567ffffffffffffffff8111156200048b576200048a620002a1565b5b620004998d828e01620003d5565b9a505060208b013567ffffffffffffffff811115620004bd57620004bc620002a1565b5b620004cb8d828e01620003d5565b9950506040620004de8d828e016200042c565b98505060608b013567ffffffffffffffff811115620005025762000501620002a1565b5b620005108d828e01620003d5565b97505060808b013567ffffffffffffffff811115620005345762000533620002a1565b5b620005428d828e01620003d5565b96505060a08b013567ffffffffffffffff811115620005665762000565620002a1565b5b620005748d828e01620003d5565b95505060c0620005878d828e016200042c565b94505060e06200059a8d828e016200042c565b935050610100620005ae8d828e016200042c565b925050610120620005c28d828e016200042c565b9150509295989b9194979a5092959850565b600060208284031215620005ed57620005ec6200029c565b5b6000620005fd848285016200042c565b91505092915050565b600073ffffffffffffffffffffffffffffffffffffffff82169050919050565b6000620006338262000606565b9050919050565b620006458162000626565b82525050565b60006020820190506200066260008301846200063a565b92915050565b7f4e487b7100000000000000000000000000000000000000000000000000000000600052601160045260246000fd5b6000620006a48262000408565b9150620006b18362000408565b9250828202620006c18162000408565b91508282048414831517620006db57620006da62000668565b5b5092915050565b6000620006ef8262000408565b9150620006fc8362000408565b925082820190508082111562000717576200071662000668565b5b92915050565b600081519050919050565b600082825260208201905092915050565b60005b83811015620007595780820151818401526020810190506200073c565b60008484015250505050565b600062000772826200071d565b6200077e818562000728565b93506200079081856020860162000739565b6200079b81620002b0565b840191505092915050565b620007b18162000408565b82525050565b6000610160820190508181036000830152620007d4818e62000765565b90508181036020830152620007ea818d62000765565b9050620007fb604083018c620007a6565b81810360608301526200080f818b62000765565b9050818103608083015262000825818a62000765565b905081810360a08301526200083b818962000765565b90506200084c60c0830188620007a6565b6200085b60e08301876200063a565b6200086b610100830186620007a6565b6200087b610120830185620007a6565b6200088b610140830184620007a6565b9c9b505050505050505050505050565b600081905092915050565b6000620008b3826200071d565b620008bf81856200089b565b9350620008d181856020860162000739565b80840191505092915050565b6000620008eb8284620008a6565b915081905092915050565b620009018162000626565b82525050565b600082825260208201905092915050565b600062000925826200071d565b62000931818562000907565b93506200094381856020860162000739565b6200094e81620002b0565b840191505092915050565b620009648162000408565b82525050565b600060a083016000830151620009846000860182620008f6565b50602083015184820360208601526200099e828262000918565b91505060408301518482036040860152620009ba828262000918565b91505060608301518482036060860152620009d6828262000918565b9150506080830151620009ed608086018262000959565b508091505092915050565b6000602082019050818103600083015262000a1481846200096a565b90509291505056fe60806040523480156200001157600080fd5b50604051620037f4380380620037f48339818101604052810190620000379190620004b1565b836000806101000a81548173ffffffffffffffffffffffffffffffffffffffff021916908373ffffffffffffffffffffffffffffffffffffffff1602179055508a600190816200008891906200089a565b5089600290816200009a91906200089a565b50886003819055508760049081620000b391906200089a565b508660059081620000c591906200089a565b5060006006819055508560079081620000df91906200089a565b5084600881905550606483600354620000f99190620009b0565b62000105919062000a2a565b6009819055506000601160016002811062000125576200012462000a62565b5b600202016001600281106200013f576200013e62000a62565b5b0181905560116001600281106200015b576200015a62000a62565b5b6002020160006002811062000175576200017462000a62565b5b01819055601160006002811062000191576200019062000a62565b5b60020201600160028110620001ab57620001aa62000a62565b5b018190556011600060028110620001c757620001c662000a62565b5b60020201600060028110620001e157620001e062000a62565b5b018190555060006015819055506000600a819055506000600e819055506000600f819055506001601060006101000a81548160ff0219169083151502179055506000601060016101000a81548160ff0219169083151502179055506000601660006101000a81548160ff021916908315150217905550600060178190555081601d8190555080601e81905550505050505050505050505062000a91565b6000604051905090565b600080fd5b600080fd5b600080fd5b600080fd5b6000601f19601f8301169050919050565b7f4e487b7100000000000000000000000000000000000000000000000000000000600052604160045260246000fd5b620002e7826200029c565b810181811067ffffffffffffffff82111715620003095762000308620002ad565b5b80604052505050565b60006200031e6200027e565b90506200032c8282620002dc565b919050565b600067ffffffffffffffff8211156200034f576200034e620002ad565b5b6200035a826200029c565b9050602081019050919050565b60005b83811015620003875780820151818401526020810190506200036a565b60008484015250505050565b6000620003aa620003a48462000331565b62000312565b905082815260208101848484011115620003c957620003c862000297565b5b620003d684828562000367565b509392505050565b600082601f830112620003f657620003f562000292565b5b81516200040884826020860162000393565b91505092915050565b6000819050919050565b620004268162000411565b81146200043257600080fd5b50565b60008151905062000446816200041b565b92915050565b600073ffffffffffffffffffffffffffffffffffffffff82169050919050565b600062000479826200044c565b9050919050565b6200048b816200046c565b81146200049757600080fd5b50565b600081519050620004ab8162000480565b92915050565b60008060008060008060008060008060006101608c8e031215620004da57620004d962000288565b5b60008c015167ffffffffffffffff811115620004fb57620004fa6200028d565b5b620005098e828f01620003de565b9b505060208c015167ffffffffffffffff8111156200052d576200052c6200028d565b5b6200053b8e828f01620003de565b9a505060406200054e8e828f0162000435565b99505060608c015167ffffffffffffffff8111156200057257620005716200028d565b5b620005808e828f01620003de565b98505060808c015167ffffffffffffffff811115620005a457620005a36200028d565b5b620005b28e828f01620003de565b97505060a08c015167ffffffffffffffff811115620005d657620005d56200028d565b5b620005e48e828f01620003de565b96505060c0620005f78e828f0162000435565b95505060e06200060a8e828f016200049a565b9450506101006200061e8e828f0162000435565b935050610120620006328e828f0162000435565b925050610140620006468e828f0162000435565b9150509295989b509295989b9093969950565b600081519050919050565b7f4e487b7100000000000000000000000000000000000000000000000000000000600052602260045260246000fd5b60006002820490506001821680620006ac57607f821691505b602082108103620006c257620006c162000664565b5b50919050565b60008190508160005260206000209050919050565b60006020601f8301049050919050565b600082821b905092915050565b6000600883026200072c7fffffffffffffffffffffffffffffffffffffffffffffffffffffffffffffffff82620006ed565b620007388683620006ed565b95508019841693508086168417925050509392505050565b6000819050919050565b60006200077b620007756200076f8462000411565b62000750565b62000411565b9050919050565b6000819050919050565b62000797836200075a565b620007af620007a68262000782565b848454620006fa565b825550505050565b600090565b620007c6620007b7565b620007d38184846200078c565b505050565b5b81811015620007fb57620007ef600082620007bc565b600181019050620007d9565b5050565b601f8211156200084a576200081481620006c8565b6200081f84620006dd565b810160208510156200082f578190505b620008476200083e85620006dd565b830182620007d8565b50505b505050565b600082821c905092915050565b60006200086f600019846008026200084f565b1980831691505092915050565b60006200088a83836200085c565b9150826002028217905092915050565b620008a58262000659565b67ffffffffffffffff811115620008c157620008c0620002ad565b5b620008cd825462000693565b620008da828285620007ff565b600060209050601f831160018114620009125760008415620008fd578287015190505b6200090985826200087c565b86555062000979565b601f1984166200092286620006c8565b60005b828110156200094c5784890151825560018201915060208501945060208101905062000925565b868310156200096c578489015162000968601f8916826200085c565b8355505b6001600288020188555050505b505050505050565b7f4e487b7100000000000000000000000000000000000000000000000000000000600052601160045260246000fd5b6000620009bd8262000411565b9150620009ca8362000411565b9250828202620009da8162000411565b91508282048414831517620009f457620009f362000981565b5b5092915050565b7f4e487b7100000000000000000000000000000000000000000000000000000000600052601260045260246000fd5b600062000a378262000411565b915062000a448362000411565b92508262000a575762000a56620009fb565b5b828204905092915050565b7f4e487b7100000000000000000000000000000000000000000000000000000000600052603260045260246000fd5b612d538062000aa16000396000f3fe6080604052600436106101815760003560e01c80636f9fb98a116100d1578063abc6fd0b1161008a578063d7bb99ba11610064578063d7bb99ba14610516578063d8b0b49914610520578063ef430aa61461054b578063fe1c3a3a1461057657610181565b8063abc6fd0b146104a4578063c67d2941146104ae578063c6e36a32146104d957610181565b80636f9fb98a1461039057806373d659b3146103bb5780637569b3d7146103f85780638da5cb5b1461042357806399c5721f1461044e578063a235b7691461047957610181565b806342cde4e81161013e5780634eeaf476116101185780634eeaf476146102f857806355f150f11461030f578063590791f21461033a5780635fe38e031461036557610181565b806342cde4e81461027757806345bc73f7146102a25780634a79d50c146102cd57610181565b80630121b93f1461018657806310812a7d146101af57806311c2850e146101da57806329dcb0cf146102055780633064e9001461023057806332a2c5d01461024c575b600080fd5b34801561019257600080fd5b506101ad60048036038101906101a89190611f97565b6105a1565b005b3480156101bb57600080fd5b506101c461094b565b6040516101d19190611fd3565b60405180910390f35b3480156101e657600080fd5b506101ef610951565b6040516101fc9190612009565b60405180910390f35b34801561021157600080fd5b5061021a610964565b6040516102279190611fd3565b60405180910390f35b61024a6004803603810190610245919061216a565b61096a565b005b34801561025857600080fd5b50610261610cf9565b60405161026e91906121f4565b60405180910390f35b34801561028357600080fd5b5061028c610d01565b6040516102999190611fd3565b60405180910390f35b3480156102ae57600080fd5b506102b7610d07565b6040516102c49190611fd3565b60405180910390f35b3480156102d957600080fd5b506102e2610d0d565b6040516102ef919061228e565b60405180910390f35b34801561030457600080fd5b5061030d610d9b565b005b34801561031b57600080fd5b50610324610ec0565b604051610331919061228e565b60405180910390f35b34801561034657600080fd5b5061034f610f4e565b60405161035c9190611fd3565b60405180910390f35b34801561037157600080fd5b5061037a610fb6565b604051610387919061228e565b60405180910390f35b34801561039c57600080fd5b506103a5611044565b6040516103b29190611fd3565b60405180910390f35b3480156103c757600080fd5b506103e260048036038101906103dd91906122dc565b61104c565b6040516103ef91906121f4565b60405180910390f35b34801561040457600080fd5b5061040d61109a565b60405161041a9190611fd3565b60405180910390f35b34801561042f57600080fd5b506104386110a0565b604051610445919061233d565b60405180910390f35b34801561045a57600080fd5b506104636110c4565b6040516104709190612009565b60405180910390f35b34801561048557600080fd5b5061048e6110d7565b60405161049b9190611fd3565b60405180910390f35b6104ac6110dd565b005b3480156104ba57600080fd5b506104c361197c565b6040516104d09190612009565b60405180910390f35b3480156104e557600080fd5b5061050060048036038101906104fb9190612358565b61198f565b60405161050d9190611fd3565b60405180910390f35b61051e6119bd565b005b34801561052c57600080fd5b50610535611d3f565b604051610542919061228e565b60405180910390f35b34801561055757600080fd5b50610560611dcd565b60405161056d919061228e565b60405180910390f35b34801561058257600080fd5b5061058b611e5b565b6040516105989190611fd3565b60405180910390f35b601060009054906101000a900460ff166105f0576040517f08c379a00000000000000000000000000000000000000000000000000000000081526004016105e7906123e4565b60405180910390fd5b60008054906101000a900473ffffffffffffffffffffffffffffffffffffffff1673ffffffffffffffffffffffffffffffffffffffff163373ffffffffffffffffffffffffffffffffffffffff160361067e576040517f08c379a000000000000000000000000000000000000000000000000000000000815260040161067590612450565b60405180910390fd5b601660009054906101000a900460ff166106cd576040517f08c379a00000000000000000000000000000000000000000000000000000000081526004016106c4906124bc565b60405180910390fd5b600954601960003373ffffffffffffffffffffffffffffffffffffffff1673ffffffffffffffffffffffffffffffffffffffff1681526020019081526020016000205411610750576040517f08c379a000000000000000000000000000000000000000000000000000000000815260040161074790612528565b60405180910390fd5b601b6015546002811061076657610765612548565b5b0160003373ffffffffffffffffffffffffffffffffffffffff1673ffffffffffffffffffffffffffffffffffffffff16815260200190815260200160002060009054906101000a900460ff16156107f2576040517f08c379a00000000000000000000000000000000000000000000000000000000081526004016107e9906125c3565b60405180910390fd5b6000806015541461081b57604051806060016040528060218152602001612c9860219139610835565b604051806060016040528060228152602001612cb9602291395b90503373ffffffffffffffffffffffffffffffffffffffff167fad36f252f633e10fe00ab4af7ab28ed05c377dd0d941f0b6dc21a16f3d4aa96f600160155461087e9190612612565b834260405161088f93929190612646565b60405180910390a26011601554600281106108ad576108ac612548565b5b6002020182600281106108c3576108c2612548565b5b0160008154809291906108d590612684565b91905055506001601b601554600281106108f2576108f1612548565b5b0160003373ffffffffffffffffffffffffffffffffffffffff1673ffffffffffffffffffffffffffffffffffffffff16815260200190815260200160002060006101000a81548160ff0219169083151502179055505050565b600f5481565b601060019054906101000a900460ff1681565b60085481565b60008054906101000a900473ffffffffffffffffffffffffffffffffffffffff1673ffffffffffffffffffffffffffffffffffffffff163373ffffffffffffffffffffffffffffffffffffffff16146109f8576040517f08c379a00000000000000000000000000000000000000000000000000000000081526004016109ef9061273e565b60405180910390fd5b601060009054906101000a900460ff16610a47576040517f08c379a0000000000000000000000000000000000000000000000000000000008152600401610a3e906123e4565b60405180910390fd5b610a6981604051806060016040528060218152602001612cdb60219139611e61565b60008060005b601860008060009054906101000a900473ffffffffffffffffffffffffffffffffffffffff1673ffffffffffffffffffffffffffffffffffffffff1673ffffffffffffffffffffffffffffffffffffffff16815260200190815260200160002080549050811015610c7b57601860008060009054906101000a900473ffffffffffffffffffffffffffffffffffffffff1673ffffffffffffffffffffffffffffffffffffffff1673ffffffffffffffffffffffffffffffffffffffff1681526020019081526020016000208181548110610b4c57610b4b612548565b5b9060005260206000200160009054906101000a900473ffffffffffffffffffffffffffffffffffffffff169250600354600f54600354610b8c919061275e565b601960008673ffffffffffffffffffffffffffffffffffffffff1673ffffffffffffffffffffffffffffffffffffffff16815260200190815260200160002054610bd69190612792565b610be09190612803565b91506000601960008573ffffffffffffffffffffffffffffffffffffffff1673ffffffffffffffffffffffffffffffffffffffff168152602001908152602001600020819055508273ffffffffffffffffffffffffffffffffffffffff166108fc839081150290604051600060405180830381858888f19350505050158015610c6d573d6000803e3d6000fd5b508080600101915050610a6f565b5060006006819055506000601060006101000a81548160ff021916908315150217905550610ca7610cf9565b73ffffffffffffffffffffffffffffffffffffffff167f153bb2862ac44ffd30d682bcdbf59da13d2ffb1e710dc035699dd58c7a49fa5842604051610cec9190612880565b60405180910390a2505050565b600030905090565b60095481565b60035481565b60018054610d1a906128dd565b80601f0160208091040260200160405190810160405280929190818152602001828054610d46906128dd565b8015610d935780601f10610d6857610100808354040283529160200191610d93565b820191906000526020600020905b815481529060010190602001808311610d7657829003601f168201915b505050505081565b6001601660006101000a81548160ff02191690831515021790555060008060175414610dfc576040518060400160405280601d81526020017f5365636f6e64204175646974205265706f7274205375626d6974746564000000815250610e33565b6040518060400160405280601c81526020017f4669727374204175646974205265706f7274205375626d6974746564000000008152505b905060008054906101000a900473ffffffffffffffffffffffffffffffffffffffff1673ffffffffffffffffffffffffffffffffffffffff167f6fc35804307d7591960023578fd0432f7bbb911a2578ed22f875531976b225938242604051610e9d92919061290e565b60405180910390a260176000815480929190610eb890612684565b919050555050565b60028054610ecd906128dd565b80601f0160208091040260200160405190810160405280929190818152602001828054610ef9906128dd565b8015610f465780601f10610f1b57610100808354040283529160200191610f46565b820191906000526020600020905b815481529060010190602001808311610f2957829003601f168201915b505050505081565b6000601a60008060009054906101000a900473ffffffffffffffffffffffffffffffffffffffff1673ffffffffffffffffffffffffffffffffffffffff1673ffffffffffffffffffffffffffffffffffffffff16815260200190815260200160002054905090565b60048054610fc3906128dd565b80601f0160208091040260200160405190810160405280929190818152602001828054610fef906128dd565b801561103c5780601f106110115761010080835404028352916020019161103c565b820191906000526020600020905b81548152906001019060200180831161101f57829003601f168201915b505050505081565b600047905090565b6018602052816000526040600020818154811061106857600080fd5b906000526020600020016000915091509054906101000a900473ffffffffffffffffffffffffffffffffffffffff1681565b600e5481565b60008054906101000a900473ffffffffffffffffffffffffffffffffffffffff1681565b601060009054906101000a900460ff1681565b60065481565b60008054906101000a900473ffffffffffffffffffffffffffffffffffffffff1673ffffffffffffffffffffffffffffffffffffffff163373ffffffffffffffffffffffffffffffffffffffff161461116b576040517f08c379a00000000000000000000000000000000000000000000000000000000081526004016111629061273e565b60405180910390fd5b601060009054906101000a900460ff166111ba576040517f08c379a00000000000000000000000000000000000000000000000000000000081526004016111b1906123e4565b60405180910390fd5b60085442116111fe576040517f08c379a00000000000000000000000000000000000000000000000000000000081526004016111f59061298a565b60405180910390fd5b6000600a540361151b5760006064604660035461121b9190612792565b6112259190612803565b905080600654106114d65760006064601d546006546112449190612792565b61124e9190612803565b905060006064601e546006546112649190612792565b61126e9190612803565b90506000818361127e9190612612565b60065461128b919061275e565b905082600b6001600381106112a3576112a2612548565b5b01819055600b6000600381106112bc576112bb612548565b5b018190555080600b6002600381106112d7576112d6612548565b5b018190555060008054906101000a900473ffffffffffffffffffffffffffffffffffffffff1673ffffffffffffffffffffffffffffffffffffffff166108fc600b600a546003811061132c5761132b612548565b5b01549081150290604051600060405180830381858888f19350505050158015611359573d6000803e3d6000fd5b50600b600a54600381106113705761136f612548565b5b0154601a60008060009054906101000a900473ffffffffffffffffffffffffffffffffffffffff1673ffffffffffffffffffffffffffffffffffffffff1673ffffffffffffffffffffffffffffffffffffffff16815260200190815260200160002060008282546113e19190612612565b92505081905550600b600a54600381106113fe576113fd612548565b5b0154600f60008282546114119190612612565b92505081905550600b600a546003811061142e5761142d612548565b5b015460066000828254611441919061275e565b92505081905550600a600081548092919061145b90612684565b9190505550611468610cf9565b73ffffffffffffffffffffffffffffffffffffffff167fc305c1562b0f741d2930ceb8c5957e71966c56489d23e0a04bc12b608842a77c600b600a54600381106114b5576114b4612548565b5b0154426040516114c69291906129f6565b60405180910390a2505050611515565b6115146040518060400160405280601e81526020017f4469736275727361626c6520616d6f756e74206e6f742072656163686564000081525061096a565b5b5061197a565b600060116015546002811061153357611532612548565b5b6002020160006002811061154a57611549612548565b5b01549050600060116015546002811061156657611565612548565b5b6002020160016002811061157d5761157c612548565b5b015460116015546002811061159557611594612548565b5b600202016000600281106115ac576115ab612548565b5b01546115b89190612612565b9050600854421180156115d85750601060019054906101000a900460ff16155b15611603576115fe604051806060016040528060228152602001612cfc6022913961096a565b611977565b600181901c8211156119375760008054906101000a900473ffffffffffffffffffffffffffffffffffffffff1673ffffffffffffffffffffffffffffffffffffffff166108fc600b600a546003811061165f5761165e612548565b5b01549081150290604051600060405180830381858888f1935050505015801561168c573d6000803e3d6000fd5b50600b600a54600381106116a3576116a2612548565b5b0154601a60008060009054906101000a900473ffffffffffffffffffffffffffffffffffffffff1673ffffffffffffffffffffffffffffffffffffffff1673ffffffffffffffffffffffffffffffffffffffff16815260200190815260200160002060008282546117149190612612565b92505081905550600b600a546003811061173157611730612548565b5b0154600f60008282546117449190612612565b92505081905550600b600a546003811061176157611760612548565b5b015460066000828254611774919061275e565b9250508190555060006001600a54146117c2576040518060400160405280601b81526020017f546869726420696e7374616c6c6d656e742064697362757273656400000000008152506117f9565b6040518060400160405280601c81526020017f5365636f6e6420696e7374616c6c6d656e7420646973627572736564000000008152505b9050611803610cf9565b73ffffffffffffffffffffffffffffffffffffffff167fc305c1562b0f741d2930ceb8c5957e71966c56489d23e0a04bc12b608842a77c600b600a54600381106118505761184f612548565b5b0154834260405161186393929190612646565b60405180910390a2600a600081548092919061187e90612684565b91905055506003600a54036118fe576000601060006101000a81548160ff0219169083151502179055506118b0610cf9565b73ffffffffffffffffffffffffffffffffffffffff167f153bb2862ac44ffd30d682bcdbf59da13d2ffb1e710dc035699dd58c7a49fa58426040516118f59190612880565b60405180910390a25b6015600081548092919061191190612684565b91905055506000601660006101000a81548160ff02191690831515021790555050611976565b6119756040518060400160405280601181526020017f4c61636b206f66206d616a6f726974792e00000000000000000000000000000081525061096a565b5b5b50505b565b601660009054906101000a900460ff1681565b6011826002811061199f57600080fd5b6002020181600281106119b157600080fd5b01600091509150505481565b601060009054906101000a900460ff16611a0c576040517f08c379a0000000000000000000000000000000000000000000000000000000008152600401611a03906123e4565b60405180910390fd5b601060019054906101000a900460ff1615611a5c576040517f08c379a0000000000000000000000000000000000000000000000000000000008152600401611a5390612a7e565b60405180910390fd5b600854421115611aa1576040517f08c379a0000000000000000000000000000000000000000000000000000000008152600401611a9890612aea565b60405180910390fd5b60035460065434611ab29190612612565b1115611af3576040517f08c379a0000000000000000000000000000000000000000000000000000000008152600401611aea90612b56565b60405180910390fd5b60003411611b36576040517f08c379a0000000000000000000000000000000000000000000000000000000008152600401611b2d90612be8565b60405180910390fd5b6000601960003373ffffffffffffffffffffffffffffffffffffffff1673ffffffffffffffffffffffffffffffffffffffff1681526020019081526020016000205403611c5757601860008060009054906101000a900473ffffffffffffffffffffffffffffffffffffffff1673ffffffffffffffffffffffffffffffffffffffff1673ffffffffffffffffffffffffffffffffffffffff168152602001908152602001600020339080600181540180825580915050600190039060005260206000200160009091909190916101000a81548173ffffffffffffffffffffffffffffffffffffffff021916908373ffffffffffffffffffffffffffffffffffffffff160217905550600e6000815480929190611c5190612684565b91905055505b34601960003373ffffffffffffffffffffffffffffffffffffffff1673ffffffffffffffffffffffffffffffffffffffff1681526020019081526020016000206000828254611ca69190612612565b925050819055503460066000828254611cbf9190612612565b9250508190555060035460065403611ced576001601060016101000a81548160ff0219169083151502179055505b3373ffffffffffffffffffffffffffffffffffffffff167fd51536b687caf52ac0a4f7008c1ffecc1b0d746f5ef64803892f3cef5f45d4603442604051611d35929190612c08565b60405180910390a2565b60078054611d4c906128dd565b80601f0160208091040260200160405190810160405280929190818152602001828054611d78906128dd565b8015611dc55780601f10611d9a57610100808354040283529160200191611dc5565b820191906000526020600020905b815481529060010190602001808311611da857829003601f168201915b505050505081565b60058054611dda906128dd565b80601f0160208091040260200160405190810160405280929190818152602001828054611e06906128dd565b8015611e535780601f10611e2857610100808354040283529160200191611e53565b820191906000526020600020905b815481529060010190602001808311611e3657829003601f168201915b505050505081565b60175481565b611ef98282604051602401611e77929190612c31565b6040516020818303038152906040527f4b5c4277000000000000000000000000000000000000000000000000000000007bffffffffffffffffffffffffffffffffffffffffffffffffffffffff19166020820180517bffffffffffffffffffffffffffffffffffffffffffffffffffffffff8381831617835250505050611efd565b5050565b611f1481611f0c611f17611f38565b63ffffffff16565b50565b60006a636f6e736f6c652e6c6f679050600080835160208501845afa505050565b611f43819050919050565b611f4b612c68565b565b6000604051905090565b600080fd5b600080fd5b6000819050919050565b611f7481611f61565b8114611f7f57600080fd5b50565b600081359050611f9181611f6b565b92915050565b600060208284031215611fad57611fac611f57565b5b6000611fbb84828501611f82565b91505092915050565b611fcd81611f61565b82525050565b6000602082019050611fe86000830184611fc4565b92915050565b60008115159050919050565b61200381611fee565b82525050565b600060208201905061201e6000830184611ffa565b92915050565b600080fd5b600080fd5b6000601f19601f8301169050919050565b7f4e487b7100000000000000000000000000000000000000000000000000000000600052604160045260246000fd5b6120778261202e565b810181811067ffffffffffffffff821117156120965761209561203f565b5b80604052505050565b60006120a9611f4d565b90506120b5828261206e565b919050565b600067ffffffffffffffff8211156120d5576120d461203f565b5b6120de8261202e565b9050602081019050919050565b82818337600083830152505050565b600061210d612108846120ba565b61209f565b90508281526020810184848401111561212957612128612029565b5b6121348482856120eb565b509392505050565b600082601f83011261215157612150612024565b5b81356121618482602086016120fa565b91505092915050565b6000602082840312156121805761217f611f57565b5b600082013567ffffffffffffffff81111561219e5761219d611f5c565b5b6121aa8482850161213c565b91505092915050565b600073ffffffffffffffffffffffffffffffffffffffff82169050919050565b60006121de826121b3565b9050919050565b6121ee816121d3565b82525050565b600060208201905061220960008301846121e5565b92915050565b600081519050919050565b600082825260208201905092915050565b60005b8381101561224957808201518184015260208101905061222e565b60008484015250505050565b60006122608261220f565b61226a818561221a565b935061227a81856020860161222b565b6122838161202e565b840191505092915050565b600060208201905081810360008301526122a88184612255565b905092915050565b6122b9816121d3565b81146122c457600080fd5b50565b6000813590506122d6816122b0565b92915050565b600080604083850312156122f3576122f2611f57565b5b6000612301858286016122c7565b925050602061231285828601611f82565b9150509250929050565b6000612327826121b3565b9050919050565b6123378161231c565b82525050565b6000602082019050612352600083018461232e565b92915050565b6000806040838503121561236f5761236e611f57565b5b600061237d85828601611f82565b925050602061238e85828601611f82565b9150509250929050565b7f43616d706169676e20616c726561647920636c6f736564000000000000000000600082015250565b60006123ce60178361221a565b91506123d982612398565b602082019050919050565b600060208201905081810360008301526123fd816123c1565b9050919050565b7f4f776e65722063616e277420766f746500000000000000000000000000000000600082015250565b600061243a60108361221a565b915061244582612404565b602082019050919050565b600060208201905081810360008301526124698161242d565b9050919050565b7f4175646974207265706f7274206e6f7420796574207375626d69747465640000600082015250565b60006124a6601e8361221a565b91506124b182612470565b602082019050919050565b600060208201905081810360008301526124d581612499565b9050919050565b7f596f7520617265206e6f7420616e20617070726f766572000000000000000000600082015250565b600061251260178361221a565b915061251d826124dc565b602082019050919050565b6000602082019050818103600083015261254181612505565b9050919050565b7f4e487b7100000000000000000000000000000000000000000000000000000000600052603260045260246000fd5b7f596f75206861766520616c726561647920766f74656400000000000000000000600082015250565b60006125ad60168361221a565b91506125b882612577565b602082019050919050565b600060208201905081810360008301526125dc816125a0565b9050919050565b7f4e487b7100000000000000000000000000000000000000000000000000000000600052601160045260246000fd5b600061261d82611f61565b915061262883611f61565b92508282019050808211156126405761263f6125e3565b5b92915050565b600060608201905061265b6000830186611fc4565b818103602083015261266d8185612255565b905061267c6040830184611fc4565b949350505050565b600061268f82611f61565b91507fffffffffffffffffffffffffffffffffffffffffffffffffffffffffffffffff82036126c1576126c06125e3565b5b600182019050919050565b7f4f6e6c79206f776e65722063616e2063616c6c20746869732066756e6374696f60008201527f6e00000000000000000000000000000000000000000000000000000000000000602082015250565b600061272860218361221a565b9150612733826126cc565b604082019050919050565b600060208201905081810360008301526127578161271b565b9050919050565b600061276982611f61565b915061277483611f61565b925082820390508181111561278c5761278b6125e3565b5b92915050565b600061279d82611f61565b91506127a883611f61565b92508282026127b681611f61565b915082820484148315176127cd576127cc6125e3565b5b5092915050565b7f4e487b7100000000000000000000000000000000000000000000000000000000600052601260045260246000fd5b600061280e82611f61565b915061281983611f61565b925082612829576128286127d4565b5b828204905092915050565b7f43616d706169676e20436c6f7365640000000000000000000000000000000000600082015250565b600061286a600f8361221a565b915061287582612834565b602082019050919050565b600060408201905081810360008301526128998161285d565b90506128a86020830184611fc4565b92915050565b7f4e487b7100000000000000000000000000000000000000000000000000000000600052602260045260246000fd5b600060028204905060018216806128f557607f821691505b602082108103612908576129076128ae565b5b50919050565b600060408201905081810360008301526129288185612255565b90506129376020830184611fc4565b9392505050565b7f446561646c696e65206e6f742079657420726561636865640000000000000000600082015250565b600061297460188361221a565b915061297f8261293e565b602082019050919050565b600060208201905081810360008301526129a381612967565b9050919050565b7f466972737420696e7374616c6c6d656e74206469736275727365640000000000600082015250565b60006129e0601b8361221a565b91506129eb826129aa565b602082019050919050565b6000606082019050612a0b6000830185611fc4565b8181036020830152612a1c816129d3565b9050612a2b6040830184611fc4565b9392505050565b7f54617267657420616c7265616479206163686965766564000000000000000000600082015250565b6000612a6860178361221a565b9150612a7382612a32565b602082019050919050565b60006020820190508181036000830152612a9781612a5b565b9050919050565b7f446561646c696e65207265616368656400000000000000000000000000000000600082015250565b6000612ad460108361221a565b9150612adf82612a9e565b602082019050919050565b60006020820190508181036000830152612b0381612ac7565b9050919050565b7f43616e27742072656365697665206d6f7265207468616e207461726765740000600082015250565b6000612b40601e8361221a565b9150612b4b82612b0a565b602082019050919050565b60006020820190508181036000830152612b6f81612b33565b9050919050565b7f436f6e747269627574696f6e20616d6f756e74206d757374206265206772656160008201527f746572207468616e203000000000000000000000000000000000000000000000602082015250565b6000612bd2602a8361221a565b9150612bdd82612b76565b604082019050919050565b60006020820190508181036000830152612c0181612bc5565b9050919050565b6000604082019050612c1d6000830185611fc4565b612c2a6020830184611fc4565b9392505050565b60006040820190508181036000830152612c4b8185612255565b90508181036020830152612c5f8184612255565b90509392505050565b7f4e487b7100000000000000000000000000000000000000000000000000000000600052605160045260246000fdfe546869726420696e7374616c6c6d656e7420766f746520726567697374657265645365636f6e6420696e7374616c6c6d656e7420766f746520726567697374657265642052652d696d62757273656d656e742070726f6365737320696e69746961746564546172676574206e6f742061636869657665642074696c6c20646561646c696e652ea264697066735822122053f7861f0d8ec9ad9c5c887d5ed207fce0b3b340d7fc44695487baca24dda97664736f6c63430008180033a26469706673582212202be190ae33cf655261115cc595ecfe4d0b266b3a7bdcdafef95660e77e17131d64736f6c63430008180033","opcodes":"PUSH1 0x80 PUSH1 0x40 MSTORE CALLVALUE DUP1 ISZERO PUSH2 0x10 JUMPI PUSH1 0x0 DUP1 REVERT JUMPDEST POP PUSH2 0x4246 DUP1 PUSH2 0x20 PUSH1 0x0 CODECOPY PUSH1 0x0 RETURN INVALID PUSH1 0x80 PUSH1 0x40 MSTORE CALLVALUE DUP1 ISZERO PUSH3 0x11 JUMPI PUSH1 0x0 DUP1 REVERT JUMPDEST POP PUSH1 0x4 CALLDATASIZE LT PUSH3 0x3A JUMPI PUSH1 0x0 CALLDATALOAD PUSH1 0xE0 SHR DUP1 PUSH4 0x18DE5332 EQ PUSH3 0x3F JUMPI DUP1 PUSH4 0x339D50A5 EQ PUSH3 0x5F JUMPI JUMPDEST PUSH1 0x0 DUP1 REVERT JUMPDEST PUSH3 0x5D PUSH1 0x4 DUP1 CALLDATASIZE SUB DUP2 ADD SWAP1 PUSH3 0x57 SWAP2 SWAP1 PUSH3 0x443 JUMP JUMPDEST PUSH3 0x95 JUMP JUMPDEST STOP JUMPDEST PUSH3 0x7D PUSH1 0x4 DUP1 CALLDATASIZE SUB DUP2 ADD SWAP1 PUSH3 0x77 SWAP2 SWAP1 PUSH3 0x5D4 JUMP JUMPDEST PUSH3 0x244 JUMP JUMPDEST PUSH1 0x40 MLOAD PUSH3 0x8C SWAP2 SWAP1 PUSH3 0x64B JUMP JUMPDEST PUSH1 0x40 MLOAD DUP1 SWAP2 SUB SWAP1 RETURN JUMPDEST PUSH1 0x0 PUSH1 0x3C DUP1 PUSH1 0x18 DUP8 PUSH3 0xA9 SWAP2 SWAP1 PUSH3 0x697 JUMP JUMPDEST PUSH3 0xB5 SWAP2 SWAP1 PUSH3 0x697 JUMP JUMPDEST PUSH3 0xC1 SWAP2 SWAP1 PUSH3 0x697 JUMP JUMPDEST TIMESTAMP PUSH3 0xCE SWAP2 SWAP1 PUSH3 0x6E2 JUMP JUMPDEST SWAP1 POP PUSH1 0x0 DUP12 DUP12 DUP12 DUP12 DUP12 DUP12 DUP8 CALLER DUP13 DUP13 DUP13 PUSH1 0x40 MLOAD PUSH3 0xEB SWAP1 PUSH3 0x284 JUMP JUMPDEST PUSH3 0x101 SWAP12 SWAP11 SWAP10 SWAP9 SWAP8 SWAP7 SWAP6 SWAP5 SWAP4 SWAP3 SWAP2 SWAP1 PUSH3 0x7B7 JUMP JUMPDEST PUSH1 0x40 MLOAD DUP1 SWAP2 SUB SWAP1 PUSH1 0x0 CREATE DUP1 ISZERO DUP1 ISZERO PUSH3 0x11E JUMPI RETURNDATASIZE PUSH1 0x0 DUP1 RETURNDATACOPY RETURNDATASIZE PUSH1 0x0 REVERT JUMPDEST POP SWAP1 POP PUSH1 0x0 DUP2 SWAP1 POP PUSH1 0x0 DUP3 SWAP1 DUP1 PUSH1 0x1 DUP2 SLOAD ADD DUP1 DUP3 SSTORE DUP1 SWAP2 POP POP PUSH1 0x1 SWAP1 SUB SWAP1 PUSH1 0x0 MSTORE PUSH1 0x20 PUSH1 0x0 KECCAK256 ADD PUSH1 0x0 SWAP1 SWAP2 SWAP1 SWAP2 SWAP1 SWAP2 PUSH2 0x100 EXP DUP2 SLOAD DUP2 PUSH20 0xFFFFFFFFFFFFFFFFFFFFFFFFFFFFFFFFFFFFFFFF MUL NOT AND SWAP1 DUP4 PUSH20 0xFFFFFFFFFFFFFFFFFFFFFFFFFFFFFFFFFFFFFFFF AND MUL OR SWAP1 SSTORE POP PUSH1 0x0 PUSH1 0x40 MLOAD DUP1 PUSH1 0xA0 ADD PUSH1 0x40 MSTORE DUP1 DUP4 PUSH20 0xFFFFFFFFFFFFFFFFFFFFFFFFFFFFFFFFFFFFFFFF AND DUP2 MSTORE PUSH1 0x20 ADD DUP16 DUP2 MSTORE PUSH1 0x20 ADD DUP15 DUP2 MSTORE PUSH1 0x20 ADD DUP13 DUP2 MSTORE PUSH1 0x20 ADD DUP14 DUP2 MSTORE POP SWAP1 POP DUP4 DUP10 PUSH1 0x40 MLOAD PUSH3 0x1DB SWAP2 SWAP1 PUSH3 0x8DD JUMP JUMPDEST PUSH1 0x40 MLOAD DUP1 SWAP2 SUB SWAP1 KECCAK256 DUP12 PUSH1 0x40 MLOAD PUSH3 0x1F3 SWAP2 SWAP1 PUSH3 0x8DD JUMP JUMPDEST PUSH1 0x40 MLOAD DUP1 SWAP2 SUB SWAP1 KECCAK256 PUSH32 0x6797BD762ADBA75B04766E2489A5CE963A2950F4EBB2A8492957F49F0D52CFFF DUP5 PUSH1 0x40 MLOAD PUSH3 0x22C SWAP2 SWAP1 PUSH3 0x9F8 JUMP JUMPDEST PUSH1 0x40 MLOAD DUP1 SWAP2 SUB SWAP1 LOG4 POP POP POP POP POP POP POP POP POP POP POP POP POP POP JUMP JUMPDEST PUSH1 0x0 DUP2 DUP2 SLOAD DUP2 LT PUSH3 0x255 JUMPI PUSH1 0x0 DUP1 REVERT JUMPDEST SWAP1 PUSH1 0x0 MSTORE PUSH1 0x20 PUSH1 0x0 KECCAK256 ADD PUSH1 0x0 SWAP2 POP SLOAD SWAP1 PUSH2 0x100 EXP SWAP1 DIV PUSH20 0xFFFFFFFFFFFFFFFFFFFFFFFFFFFFFFFFFFFFFFFF AND DUP2 JUMP JUMPDEST PUSH2 0x37F4 DUP1 PUSH3 0xA1D DUP4 CODECOPY ADD SWAP1 JUMP JUMPDEST PUSH1 0x0 PUSH1 0x40 MLOAD SWAP1 POP SWAP1 JUMP JUMPDEST PUSH1 0x0 DUP1 REVERT JUMPDEST PUSH1 0x0 DUP1 REVERT JUMPDEST PUSH1 0x0 DUP1 REVERT JUMPDEST PUSH1 0x0 DUP1 REVERT JUMPDEST PUSH1 0x0 PUSH1 0x1F NOT PUSH1 0x1F DUP4 ADD AND SWAP1 POP SWAP2 SWAP1 POP JUMP JUMPDEST PUSH32 0x4E487B7100000000000000000000000000000000000000000000000000000000 PUSH1 0x0 MSTORE PUSH1 0x41 PUSH1 0x4 MSTORE PUSH1 0x24 PUSH1 0x0 REVERT JUMPDEST PUSH3 0x2FB DUP3 PUSH3 0x2B0 JUMP JUMPDEST DUP2 ADD DUP2 DUP2 LT PUSH8 0xFFFFFFFFFFFFFFFF DUP3 GT OR ISZERO PUSH3 0x31D JUMPI PUSH3 0x31C PUSH3 0x2C1 JUMP JUMPDEST JUMPDEST DUP1 PUSH1 0x40 MSTORE POP POP POP JUMP JUMPDEST PUSH1 0x0 PUSH3 0x332 PUSH3 0x292 JUMP JUMPDEST SWAP1 POP PUSH3 0x340 DUP3 DUP3 PUSH3 0x2F0 JUMP JUMPDEST SWAP2 SWAP1 POP JUMP JUMPDEST PUSH1 0x0 PUSH8 0xFFFFFFFFFFFFFFFF DUP3 GT ISZERO PUSH3 0x363 JUMPI PUSH3 0x362 PUSH3 0x2C1 JUMP JUMPDEST JUMPDEST PUSH3 0x36E DUP3 PUSH3 0x2B0 JUMP JUMPDEST SWAP1 POP PUSH1 0x20 DUP2 ADD SWAP1 POP SWAP2 SWAP1 POP JUMP JUMPDEST DUP3 DUP2 DUP4 CALLDATACOPY PUSH1 0x0 DUP4 DUP4 ADD MSTORE POP POP POP JUMP JUMPDEST PUSH1 0x0 PUSH3 0x3A1 PUSH3 0x39B DUP5 PUSH3 0x345 JUMP JUMPDEST PUSH3 0x326 JUMP JUMPDEST SWAP1 POP DUP3 DUP2 MSTORE PUSH1 0x20 DUP2 ADD DUP5 DUP5 DUP5 ADD GT ISZERO PUSH3 0x3C0 JUMPI PUSH3 0x3BF PUSH3 0x2AB JUMP JUMPDEST JUMPDEST PUSH3 0x3CD DUP5 DUP3 DUP6 PUSH3 0x37B JUMP JUMPDEST POP SWAP4 SWAP3 POP POP POP JUMP JUMPDEST PUSH1 0x0 DUP3 PUSH1 0x1F DUP4 ADD SLT PUSH3 0x3ED JUMPI PUSH3 0x3EC PUSH3 0x2A6 JUMP JUMPDEST JUMPDEST DUP2 CALLDATALOAD PUSH3 0x3FF DUP5 DUP3 PUSH1 0x20 DUP7 ADD PUSH3 0x38A JUMP JUMPDEST SWAP2 POP POP SWAP3 SWAP2 POP POP JUMP JUMPDEST PUSH1 0x0 DUP2 SWAP1 POP SWAP2 SWAP1 POP JUMP JUMPDEST PUSH3 0x41D DUP2 PUSH3 0x408 JUMP JUMPDEST DUP2 EQ PUSH3 0x429 JUMPI PUSH1 0x0 DUP1 REVERT JUMPDEST POP JUMP JUMPDEST PUSH1 0x0 DUP2 CALLDATALOAD SWAP1 POP PUSH3 0x43D DUP2 PUSH3 0x412 JUMP JUMPDEST SWAP3 SWAP2 POP POP JUMP JUMPDEST PUSH1 0x0 DUP1 PUSH1 0x0 DUP1 PUSH1 0x0 DUP1 PUSH1 0x0 DUP1 PUSH1 0x0 DUP1 PUSH2 0x140 DUP12 DUP14 SUB SLT ISZERO PUSH3 0x46A JUMPI PUSH3 0x469 PUSH3 0x29C JUMP JUMPDEST JUMPDEST PUSH1 0x0 DUP12 ADD CALLDATALOAD PUSH8 0xFFFFFFFFFFFFFFFF DUP2 GT ISZERO PUSH3 0x48B JUMPI PUSH3 0x48A PUSH3 0x2A1 JUMP JUMPDEST JUMPDEST PUSH3 0x499 DUP14 DUP3 DUP15 ADD PUSH3 0x3D5 JUMP JUMPDEST SWAP11 POP POP PUSH1 0x20 DUP12 ADD CALLDATALOAD PUSH8 0xFFFFFFFFFFFFFFFF DUP2 GT ISZERO PUSH3 0x4BD JUMPI PUSH3 0x4BC PUSH3 0x2A1 JUMP JUMPDEST JUMPDEST PUSH3 0x4CB DUP14 DUP3 DUP15 ADD PUSH3 0x3D5 JUMP JUMPDEST SWAP10 POP POP PUSH1 0x40 PUSH3 0x4DE DUP14 DUP3 DUP15 ADD PUSH3 0x42C JUMP JUMPDEST SWAP9 POP POP PUSH1 0x60 DUP12 ADD CALLDATALOAD PUSH8 0xFFFFFFFFFFFFFFFF DUP2 GT ISZERO PUSH3 0x502 JUMPI PUSH3 0x501 PUSH3 0x2A1 JUMP JUMPDEST JUMPDEST PUSH3 0x510 DUP14 DUP3 DUP15 ADD PUSH3 0x3D5 JUMP JUMPDEST SWAP8 POP POP PUSH1 0x80 DUP12 ADD CALLDATALOAD PUSH8 0xFFFFFFFFFFFFFFFF DUP2 GT ISZERO PUSH3 0x534 JUMPI PUSH3 0x533 PUSH3 0x2A1 JUMP JUMPDEST JUMPDEST PUSH3 0x542 DUP14 DUP3 DUP15 ADD PUSH3 0x3D5 JUMP JUMPDEST SWAP7 POP POP PUSH1 0xA0 DUP12 ADD CALLDATALOAD PUSH8 0xFFFFFFFFFFFFFFFF DUP2 GT ISZERO PUSH3 0x566 JUMPI PUSH3 0x565 PUSH3 0x2A1 JUMP JUMPDEST JUMPDEST PUSH3 0x574 DUP14 DUP3 DUP15 ADD PUSH3 0x3D5 JUMP JUMPDEST SWAP6 POP POP PUSH1 0xC0 PUSH3 0x587 DUP14 DUP3 DUP15 ADD PUSH3 0x42C JUMP JUMPDEST SWAP5 POP POP PUSH1 0xE0 PUSH3 0x59A DUP14 DUP3 DUP15 ADD PUSH3 0x42C JUMP JUMPDEST SWAP4 POP POP PUSH2 0x100 PUSH3 0x5AE DUP14 DUP3 DUP15 ADD PUSH3 0x42C JUMP JUMPDEST SWAP3 POP POP PUSH2 0x120 PUSH3 0x5C2 DUP14 DUP3 DUP15 ADD PUSH3 0x42C JUMP JUMPDEST SWAP2 POP POP SWAP3 SWAP6 SWAP9 SWAP12 SWAP2 SWAP5 SWAP8 SWAP11 POP SWAP3 SWAP6 SWAP9 POP JUMP JUMPDEST PUSH1 0x0 PUSH1 0x20 DUP3 DUP5 SUB SLT ISZERO PUSH3 0x5ED JUMPI PUSH3 0x5EC PUSH3 0x29C JUMP JUMPDEST JUMPDEST PUSH1 0x0 PUSH3 0x5FD DUP5 DUP3 DUP6 ADD PUSH3 0x42C JUMP JUMPDEST SWAP2 POP POP SWAP3 SWAP2 POP POP JUMP JUMPDEST PUSH1 0x0 PUSH20 0xFFFFFFFFFFFFFFFFFFFFFFFFFFFFFFFFFFFFFFFF DUP3 AND SWAP1 POP SWAP2 SWAP1 POP JUMP JUMPDEST PUSH1 0x0 PUSH3 0x633 DUP3 PUSH3 0x606 JUMP JUMPDEST SWAP1 POP SWAP2 SWAP1 POP JUMP JUMPDEST PUSH3 0x645 DUP2 PUSH3 0x626 JUMP JUMPDEST DUP3 MSTORE POP POP JUMP JUMPDEST PUSH1 0x0 PUSH1 0x20 DUP3 ADD SWAP1 POP PUSH3 0x662 PUSH1 0x0 DUP4 ADD DUP5 PUSH3 0x63A JUMP JUMPDEST SWAP3 SWAP2 POP POP JUMP JUMPDEST PUSH32 0x4E487B7100000000000000000000000000000000000000000000000000000000 PUSH1 0x0 MSTORE PUSH1 0x11 PUSH1 0x4 MSTORE PUSH1 0x24 PUSH1 0x0 REVERT JUMPDEST PUSH1 0x0 PUSH3 0x6A4 DUP3 PUSH3 0x408 JUMP JUMPDEST SWAP2 POP PUSH3 0x6B1 DUP4 PUSH3 0x408 JUMP JUMPDEST SWAP3 POP DUP3 DUP3 MUL PUSH3 0x6C1 DUP2 PUSH3 0x408 JUMP JUMPDEST SWAP2 POP DUP3 DUP3 DIV DUP5 EQ DUP4 ISZERO OR PUSH3 0x6DB JUMPI PUSH3 0x6DA PUSH3 0x668 JUMP JUMPDEST JUMPDEST POP SWAP3 SWAP2 POP POP JUMP JUMPDEST PUSH1 0x0 PUSH3 0x6EF DUP3 PUSH3 0x408 JUMP JUMPDEST SWAP2 POP PUSH3 0x6FC DUP4 PUSH3 0x408 JUMP JUMPDEST SWAP3 POP DUP3 DUP3 ADD SWAP1 POP DUP1 DUP3 GT ISZERO PUSH3 0x717 JUMPI PUSH3 0x716 PUSH3 0x668 JUMP JUMPDEST JUMPDEST SWAP3 SWAP2 POP POP JUMP JUMPDEST PUSH1 0x0 DUP2 MLOAD SWAP1 POP SWAP2 SWAP1 POP JUMP JUMPDEST PUSH1 0x0 DUP3 DUP3 MSTORE PUSH1 0x20 DUP3 ADD SWAP1 POP SWAP3 SWAP2 POP POP JUMP JUMPDEST PUSH1 0x0 JUMPDEST DUP4 DUP2 LT ISZERO PUSH3 0x759 JUMPI DUP1 DUP3 ADD MLOAD DUP2 DUP5 ADD MSTORE PUSH1 0x20 DUP2 ADD SWAP1 POP PUSH3 0x73C JUMP JUMPDEST PUSH1 0x0 DUP5 DUP5 ADD MSTORE POP POP POP POP JUMP JUMPDEST PUSH1 0x0 PUSH3 0x772 DUP3 PUSH3 0x71D JUMP JUMPDEST PUSH3 0x77E DUP2 DUP6 PUSH3 0x728 JUMP JUMPDEST SWAP4 POP PUSH3 0x790 DUP2 DUP6 PUSH1 0x20 DUP7 ADD PUSH3 0x739 JUMP JUMPDEST PUSH3 0x79B DUP2 PUSH3 0x2B0 JUMP JUMPDEST DUP5 ADD SWAP2 POP POP SWAP3 SWAP2 POP POP JUMP JUMPDEST PUSH3 0x7B1 DUP2 PUSH3 0x408 JUMP JUMPDEST DUP3 MSTORE POP POP JUMP JUMPDEST PUSH1 0x0 PUSH2 0x160 DUP3 ADD SWAP1 POP DUP2 DUP2 SUB PUSH1 0x0 DUP4 ADD MSTORE PUSH3 0x7D4 DUP2 DUP15 PUSH3 0x765 JUMP JUMPDEST SWAP1 POP DUP2 DUP2 SUB PUSH1 0x20 DUP4 ADD MSTORE PUSH3 0x7EA DUP2 DUP14 PUSH3 0x765 JUMP JUMPDEST SWAP1 POP PUSH3 0x7FB PUSH1 0x40 DUP4 ADD DUP13 PUSH3 0x7A6 JUMP JUMPDEST DUP2 DUP2 SUB PUSH1 0x60 DUP4 ADD MSTORE PUSH3 0x80F DUP2 DUP12 PUSH3 0x765 JUMP JUMPDEST SWAP1 POP DUP2 DUP2 SUB PUSH1 0x80 DUP4 ADD MSTORE PUSH3 0x825 DUP2 DUP11 PUSH3 0x765 JUMP JUMPDEST SWAP1 POP DUP2 DUP2 SUB PUSH1 0xA0 DUP4 ADD MSTORE PUSH3 0x83B DUP2 DUP10 PUSH3 0x765 JUMP JUMPDEST SWAP1 POP PUSH3 0x84C PUSH1 0xC0 DUP4 ADD DUP9 PUSH3 0x7A6 JUMP JUMPDEST PUSH3 0x85B PUSH1 0xE0 DUP4 ADD DUP8 PUSH3 0x63A JUMP JUMPDEST PUSH3 0x86B PUSH2 0x100 DUP4 ADD DUP7 PUSH3 0x7A6 JUMP JUMPDEST PUSH3 0x87B PUSH2 0x120 DUP4 ADD DUP6 PUSH3 0x7A6 JUMP JUMPDEST PUSH3 0x88B PUSH2 0x140 DUP4 ADD DUP5 PUSH3 0x7A6 JUMP JUMPDEST SWAP13 SWAP12 POP POP POP POP POP POP POP POP POP POP POP POP JUMP JUMPDEST PUSH1 0x0 DUP2 SWAP1 POP SWAP3 SWAP2 POP POP JUMP JUMPDEST PUSH1 0x0 PUSH3 0x8B3 DUP3 PUSH3 0x71D JUMP JUMPDEST PUSH3 0x8BF DUP2 DUP6 PUSH3 0x89B JUMP JUMPDEST SWAP4 POP PUSH3 0x8D1 DUP2 DUP6 PUSH1 0x20 DUP7 ADD PUSH3 0x739 JUMP JUMPDEST DUP1 DUP5 ADD SWAP2 POP POP SWAP3 SWAP2 POP POP JUMP JUMPDEST PUSH1 0x0 PUSH3 0x8EB DUP3 DUP5 PUSH3 0x8A6 JUMP JUMPDEST SWAP2 POP DUP2 SWAP1 POP SWAP3 SWAP2 POP POP JUMP JUMPDEST PUSH3 0x901 DUP2 PUSH3 0x626 JUMP JUMPDEST DUP3 MSTORE POP POP JUMP JUMPDEST PUSH1 0x0 DUP3 DUP3 MSTORE PUSH1 0x20 DUP3 ADD SWAP1 POP SWAP3 SWAP2 POP POP JUMP JUMPDEST PUSH1 0x0 PUSH3 0x925 DUP3 PUSH3 0x71D JUMP JUMPDEST PUSH3 0x931 DUP2 DUP6 PUSH3 0x907 JUMP JUMPDEST SWAP4 POP PUSH3 0x943 DUP2 DUP6 PUSH1 0x20 DUP7 ADD PUSH3 0x739 JUMP JUMPDEST PUSH3 0x94E DUP2 PUSH3 0x2B0 JUMP JUMPDEST DUP5 ADD SWAP2 POP POP SWAP3 SWAP2 POP POP JUMP JUMPDEST PUSH3 0x964 DUP2 PUSH3 0x408 JUMP JUMPDEST DUP3 MSTORE POP POP JUMP JUMPDEST PUSH1 0x0 PUSH1 0xA0 DUP4 ADD PUSH1 0x0 DUP4 ADD MLOAD PUSH3 0x984 PUSH1 0x0 DUP7 ADD DUP3 PUSH3 0x8F6 JUMP JUMPDEST POP PUSH1 0x20 DUP4 ADD MLOAD DUP5 DUP3 SUB PUSH1 0x20 DUP7 ADD MSTORE PUSH3 0x99E DUP3 DUP3 PUSH3 0x918 JUMP JUMPDEST SWAP2 POP POP PUSH1 0x40 DUP4 ADD MLOAD DUP5 DUP3 SUB PUSH1 0x40 DUP7 ADD MSTORE PUSH3 0x9BA DUP3 DUP3 PUSH3 0x918 JUMP JUMPDEST SWAP2 POP POP PUSH1 0x60 DUP4 ADD MLOAD DUP5 DUP3 SUB PUSH1 0x60 DUP7 ADD MSTORE PUSH3 0x9D6 DUP3 DUP3 PUSH3 0x918 JUMP JUMPDEST SWAP2 POP POP PUSH1 0x80 DUP4 ADD MLOAD PUSH3 0x9ED PUSH1 0x80 DUP7 ADD DUP3 PUSH3 0x959 JUMP JUMPDEST POP DUP1 SWAP2 POP POP SWAP3 SWAP2 POP POP JUMP JUMPDEST PUSH1 0x0 PUSH1 0x20 DUP3 ADD SWAP1 POP DUP2 DUP2 SUB PUSH1 0x0 DUP4 ADD MSTORE PUSH3 0xA14 DUP2 DUP5 PUSH3 0x96A JUMP JUMPDEST SWAP1 POP SWAP3 SWAP2 POP POP JUMP INVALID PUSH1 0x80 PUSH1 0x40 MSTORE CALLVALUE DUP1 ISZERO PUSH3 0x11 JUMPI PUSH1 0x0 DUP1 REVERT JUMPDEST POP PUSH1 0x40 MLOAD PUSH3 0x37F4 CODESIZE SUB DUP1 PUSH3 0x37F4 DUP4 CODECOPY DUP2 DUP2 ADD PUSH1 0x40 MSTORE DUP2 ADD SWAP1 PUSH3 0x37 SWAP2 SWAP1 PUSH3 0x4B1 JUMP JUMPDEST DUP4 PUSH1 0x0 DUP1 PUSH2 0x100 EXP DUP2 SLOAD DUP2 PUSH20 0xFFFFFFFFFFFFFFFFFFFFFFFFFFFFFFFFFFFFFFFF MUL NOT AND SWAP1 DUP4 PUSH20 0xFFFFFFFFFFFFFFFFFFFFFFFFFFFFFFFFFFFFFFFF AND MUL OR SWAP1 SSTORE POP DUP11 PUSH1 0x1 SWAP1 DUP2 PUSH3 0x88 SWAP2 SWAP1 PUSH3 0x89A JUMP JUMPDEST POP DUP10 PUSH1 0x2 SWAP1 DUP2 PUSH3 0x9A SWAP2 SWAP1 PUSH3 0x89A JUMP JUMPDEST POP DUP9 PUSH1 0x3 DUP2 SWAP1 SSTORE POP DUP8 PUSH1 0x4 SWAP1 DUP2 PUSH3 0xB3 SWAP2 SWAP1 PUSH3 0x89A JUMP JUMPDEST POP DUP7 PUSH1 0x5 SWAP1 DUP2 PUSH3 0xC5 SWAP2 SWAP1 PUSH3 0x89A JUMP JUMPDEST POP PUSH1 0x0 PUSH1 0x6 DUP2 SWAP1 SSTORE POP DUP6 PUSH1 0x7 SWAP1 DUP2 PUSH3 0xDF SWAP2 SWAP1 PUSH3 0x89A JUMP JUMPDEST POP DUP5 PUSH1 0x8 DUP2 SWAP1 SSTORE POP PUSH1 0x64 DUP4 PUSH1 0x3 SLOAD PUSH3 0xF9 SWAP2 SWAP1 PUSH3 0x9B0 JUMP JUMPDEST PUSH3 0x105 SWAP2 SWAP1 PUSH3 0xA2A JUMP JUMPDEST PUSH1 0x9 DUP2 SWAP1 SSTORE POP PUSH1 0x0 PUSH1 0x11 PUSH1 0x1 PUSH1 0x2 DUP2 LT PUSH3 0x125 JUMPI PUSH3 0x124 PUSH3 0xA62 JUMP JUMPDEST JUMPDEST PUSH1 0x2 MUL ADD PUSH1 0x1 PUSH1 0x2 DUP2 LT PUSH3 0x13F JUMPI PUSH3 0x13E PUSH3 0xA62 JUMP JUMPDEST JUMPDEST ADD DUP2 SWAP1 SSTORE PUSH1 0x11 PUSH1 0x1 PUSH1 0x2 DUP2 LT PUSH3 0x15B JUMPI PUSH3 0x15A PUSH3 0xA62 JUMP JUMPDEST JUMPDEST PUSH1 0x2 MUL ADD PUSH1 0x0 PUSH1 0x2 DUP2 LT PUSH3 0x175 JUMPI PUSH3 0x174 PUSH3 0xA62 JUMP JUMPDEST JUMPDEST ADD DUP2 SWAP1 SSTORE PUSH1 0x11 PUSH1 0x0 PUSH1 0x2 DUP2 LT PUSH3 0x191 JUMPI PUSH3 0x190 PUSH3 0xA62 JUMP JUMPDEST JUMPDEST PUSH1 0x2 MUL ADD PUSH1 0x1 PUSH1 0x2 DUP2 LT PUSH3 0x1AB JUMPI PUSH3 0x1AA PUSH3 0xA62 JUMP JUMPDEST JUMPDEST ADD DUP2 SWAP1 SSTORE PUSH1 0x11 PUSH1 0x0 PUSH1 0x2 DUP2 LT PUSH3 0x1C7 JUMPI PUSH3 0x1C6 PUSH3 0xA62 JUMP JUMPDEST JUMPDEST PUSH1 0x2 MUL ADD PUSH1 0x0 PUSH1 0x2 DUP2 LT PUSH3 0x1E1 JUMPI PUSH3 0x1E0 PUSH3 0xA62 JUMP JUMPDEST JUMPDEST ADD DUP2 SWAP1 SSTORE POP PUSH1 0x0 PUSH1 0x15 DUP2 SWAP1 SSTORE POP PUSH1 0x0 PUSH1 0xA DUP2 SWAP1 SSTORE POP PUSH1 0x0 PUSH1 0xE DUP2 SWAP1 SSTORE POP PUSH1 0x0 PUSH1 0xF DUP2 SWAP1 SSTORE POP PUSH1 0x1 PUSH1 0x10 PUSH1 0x0 PUSH2 0x100 EXP DUP2 SLOAD DUP2 PUSH1 0xFF MUL NOT AND SWAP1 DUP4 ISZERO ISZERO MUL OR SWAP1 SSTORE POP PUSH1 0x0 PUSH1 0x10 PUSH1 0x1 PUSH2 0x100 EXP DUP2 SLOAD DUP2 PUSH1 0xFF MUL NOT AND SWAP1 DUP4 ISZERO ISZERO MUL OR SWAP1 SSTORE POP PUSH1 0x0 PUSH1 0x16 PUSH1 0x0 PUSH2 0x100 EXP DUP2 SLOAD DUP2 PUSH1 0xFF MUL NOT AND SWAP1 DUP4 ISZERO ISZERO MUL OR SWAP1 SSTORE POP PUSH1 0x0 PUSH1 0x17 DUP2 SWAP1 SSTORE POP DUP2 PUSH1 0x1D DUP2 SWAP1 SSTORE POP DUP1 PUSH1 0x1E DUP2 SWAP1 SSTORE POP POP POP POP POP POP POP POP POP POP POP POP PUSH3 0xA91 JUMP JUMPDEST PUSH1 0x0 PUSH1 0x40 MLOAD SWAP1 POP SWAP1 JUMP JUMPDEST PUSH1 0x0 DUP1 REVERT JUMPDEST PUSH1 0x0 DUP1 REVERT JUMPDEST PUSH1 0x0 DUP1 REVERT JUMPDEST PUSH1 0x0 DUP1 REVERT JUMPDEST PUSH1 0x0 PUSH1 0x1F NOT PUSH1 0x1F DUP4 ADD AND SWAP1 POP SWAP2 SWAP1 POP JUMP JUMPDEST PUSH32 0x4E487B7100000000000000000000000000000000000000000000000000000000 PUSH1 0x0 MSTORE PUSH1 0x41 PUSH1 0x4 MSTORE PUSH1 0x24 PUSH1 0x0 REVERT JUMPDEST PUSH3 0x2E7 DUP3 PUSH3 0x29C JUMP JUMPDEST DUP2 ADD DUP2 DUP2 LT PUSH8 0xFFFFFFFFFFFFFFFF DUP3 GT OR ISZERO PUSH3 0x309 JUMPI PUSH3 0x308 PUSH3 0x2AD JUMP JUMPDEST JUMPDEST DUP1 PUSH1 0x40 MSTORE POP POP POP JUMP JUMPDEST PUSH1 0x0 PUSH3 0x31E PUSH3 0x27E JUMP JUMPDEST SWAP1 POP PUSH3 0x32C DUP3 DUP3 PUSH3 0x2DC JUMP JUMPDEST SWAP2 SWAP1 POP JUMP JUMPDEST PUSH1 0x0 PUSH8 0xFFFFFFFFFFFFFFFF DUP3 GT ISZERO PUSH3 0x34F JUMPI PUSH3 0x34E PUSH3 0x2AD JUMP JUMPDEST JUMPDEST PUSH3 0x35A DUP3 PUSH3 0x29C JUMP JUMPDEST SWAP1 POP PUSH1 0x20 DUP2 ADD SWAP1 POP SWAP2 SWAP1 POP JUMP JUMPDEST PUSH1 0x0 JUMPDEST DUP4 DUP2 LT ISZERO PUSH3 0x387 JUMPI DUP1 DUP3 ADD MLOAD DUP2 DUP5 ADD MSTORE PUSH1 0x20 DUP2 ADD SWAP1 POP PUSH3 0x36A JUMP JUMPDEST PUSH1 0x0 DUP5 DUP5 ADD MSTORE POP POP POP POP JUMP JUMPDEST PUSH1 0x0 PUSH3 0x3AA PUSH3 0x3A4 DUP5 PUSH3 0x331 JUMP JUMPDEST PUSH3 0x312 JUMP JUMPDEST SWAP1 POP DUP3 DUP2 MSTORE PUSH1 0x20 DUP2 ADD DUP5 DUP5 DUP5 ADD GT ISZERO PUSH3 0x3C9 JUMPI PUSH3 0x3C8 PUSH3 0x297 JUMP JUMPDEST JUMPDEST PUSH3 0x3D6 DUP5 DUP3 DUP6 PUSH3 0x367 JUMP JUMPDEST POP SWAP4 SWAP3 POP POP POP JUMP JUMPDEST PUSH1 0x0 DUP3 PUSH1 0x1F DUP4 ADD SLT PUSH3 0x3F6 JUMPI PUSH3 0x3F5 PUSH3 0x292 JUMP JUMPDEST JUMPDEST DUP2 MLOAD PUSH3 0x408 DUP5 DUP3 PUSH1 0x20 DUP7 ADD PUSH3 0x393 JUMP JUMPDEST SWAP2 POP POP SWAP3 SWAP2 POP POP JUMP JUMPDEST PUSH1 0x0 DUP2 SWAP1 POP SWAP2 SWAP1 POP JUMP JUMPDEST PUSH3 0x426 DUP2 PUSH3 0x411 JUMP JUMPDEST DUP2 EQ PUSH3 0x432 JUMPI PUSH1 0x0 DUP1 REVERT JUMPDEST POP JUMP JUMPDEST PUSH1 0x0 DUP2 MLOAD SWAP1 POP PUSH3 0x446 DUP2 PUSH3 0x41B JUMP JUMPDEST SWAP3 SWAP2 POP POP JUMP JUMPDEST PUSH1 0x0 PUSH20 0xFFFFFFFFFFFFFFFFFFFFFFFFFFFFFFFFFFFFFFFF DUP3 AND SWAP1 POP SWAP2 SWAP1 POP JUMP JUMPDEST PUSH1 0x0 PUSH3 0x479 DUP3 PUSH3 0x44C JUMP JUMPDEST SWAP1 POP SWAP2 SWAP1 POP JUMP JUMPDEST PUSH3 0x48B DUP2 PUSH3 0x46C JUMP JUMPDEST DUP2 EQ PUSH3 0x497 JUMPI PUSH1 0x0 DUP1 REVERT JUMPDEST POP JUMP JUMPDEST PUSH1 0x0 DUP2 MLOAD SWAP1 POP PUSH3 0x4AB DUP2 PUSH3 0x480 JUMP JUMPDEST SWAP3 SWAP2 POP POP JUMP JUMPDEST PUSH1 0x0 DUP1 PUSH1 0x0 DUP1 PUSH1 0x0 DUP1 PUSH1 0x0 DUP1 PUSH1 0x0 DUP1 PUSH1 0x0 PUSH2 0x160 DUP13 DUP15 SUB SLT ISZERO PUSH3 0x4DA JUMPI PUSH3 0x4D9 PUSH3 0x288 JUMP JUMPDEST JUMPDEST PUSH1 0x0 DUP13 ADD MLOAD PUSH8 0xFFFFFFFFFFFFFFFF DUP2 GT ISZERO PUSH3 0x4FB JUMPI PUSH3 0x4FA PUSH3 0x28D JUMP JUMPDEST JUMPDEST PUSH3 0x509 DUP15 DUP3 DUP16 ADD PUSH3 0x3DE JUMP JUMPDEST SWAP12 POP POP PUSH1 0x20 DUP13 ADD MLOAD PUSH8 0xFFFFFFFFFFFFFFFF DUP2 GT ISZERO PUSH3 0x52D JUMPI PUSH3 0x52C PUSH3 0x28D JUMP JUMPDEST JUMPDEST PUSH3 0x53B DUP15 DUP3 DUP16 ADD PUSH3 0x3DE JUMP JUMPDEST SWAP11 POP POP PUSH1 0x40 PUSH3 0x54E DUP15 DUP3 DUP16 ADD PUSH3 0x435 JUMP JUMPDEST SWAP10 POP POP PUSH1 0x60 DUP13 ADD MLOAD PUSH8 0xFFFFFFFFFFFFFFFF DUP2 GT ISZERO PUSH3 0x572 JUMPI PUSH3 0x571 PUSH3 0x28D JUMP JUMPDEST JUMPDEST PUSH3 0x580 DUP15 DUP3 DUP16 ADD PUSH3 0x3DE JUMP JUMPDEST SWAP9 POP POP PUSH1 0x80 DUP13 ADD MLOAD PUSH8 0xFFFFFFFFFFFFFFFF DUP2 GT ISZERO PUSH3 0x5A4 JUMPI PUSH3 0x5A3 PUSH3 0x28D JUMP JUMPDEST JUMPDEST PUSH3 0x5B2 DUP15 DUP3 DUP16 ADD PUSH3 0x3DE JUMP JUMPDEST SWAP8 POP POP PUSH1 0xA0 DUP13 ADD MLOAD PUSH8 0xFFFFFFFFFFFFFFFF DUP2 GT ISZERO PUSH3 0x5D6 JUMPI PUSH3 0x5D5 PUSH3 0x28D JUMP JUMPDEST JUMPDEST PUSH3 0x5E4 DUP15 DUP3 DUP16 ADD PUSH3 0x3DE JUMP JUMPDEST SWAP7 POP POP PUSH1 0xC0 PUSH3 0x5F7 DUP15 DUP3 DUP16 ADD PUSH3 0x435 JUMP JUMPDEST SWAP6 POP POP PUSH1 0xE0 PUSH3 0x60A DUP15 DUP3 DUP16 ADD PUSH3 0x49A JUMP JUMPDEST SWAP5 POP POP PUSH2 0x100 PUSH3 0x61E DUP15 DUP3 DUP16 ADD PUSH3 0x435 JUMP JUMPDEST SWAP4 POP POP PUSH2 0x120 PUSH3 0x632 DUP15 DUP3 DUP16 ADD PUSH3 0x435 JUMP JUMPDEST SWAP3 POP POP PUSH2 0x140 PUSH3 0x646 DUP15 DUP3 DUP16 ADD PUSH3 0x435 JUMP JUMPDEST SWAP2 POP POP SWAP3 SWAP6 SWAP9 SWAP12 POP SWAP3 SWAP6 SWAP9 SWAP12 SWAP1 SWAP4 SWAP7 SWAP10 POP JUMP JUMPDEST PUSH1 0x0 DUP2 MLOAD SWAP1 POP SWAP2 SWAP1 POP JUMP JUMPDEST PUSH32 0x4E487B7100000000000000000000000000000000000000000000000000000000 PUSH1 0x0 MSTORE PUSH1 0x22 PUSH1 0x4 MSTORE PUSH1 0x24 PUSH1 0x0 REVERT JUMPDEST PUSH1 0x0 PUSH1 0x2 DUP3 DIV SWAP1 POP PUSH1 0x1 DUP3 AND DUP1 PUSH3 0x6AC JUMPI PUSH1 0x7F DUP3 AND SWAP2 POP JUMPDEST PUSH1 0x20 DUP3 LT DUP2 SUB PUSH3 0x6C2 JUMPI PUSH3 0x6C1 PUSH3 0x664 JUMP JUMPDEST JUMPDEST POP SWAP2 SWAP1 POP JUMP JUMPDEST PUSH1 0x0 DUP2 SWAP1 POP DUP2 PUSH1 0x0 MSTORE PUSH1 0x20 PUSH1 0x0 KECCAK256 SWAP1 POP SWAP2 SWAP1 POP JUMP JUMPDEST PUSH1 0x0 PUSH1 0x20 PUSH1 0x1F DUP4 ADD DIV SWAP1 POP SWAP2 SWAP1 POP JUMP JUMPDEST PUSH1 0x0 DUP3 DUP3 SHL SWAP1 POP SWAP3 SWAP2 POP POP JUMP JUMPDEST PUSH1 0x0 PUSH1 0x8 DUP4 MUL PUSH3 0x72C PUSH32 0xFFFFFFFFFFFFFFFFFFFFFFFFFFFFFFFFFFFFFFFFFFFFFFFFFFFFFFFFFFFFFFFF DUP3 PUSH3 0x6ED JUMP JUMPDEST PUSH3 0x738 DUP7 DUP4 PUSH3 0x6ED JUMP JUMPDEST SWAP6 POP DUP1 NOT DUP5 AND SWAP4 POP DUP1 DUP7 AND DUP5 OR SWAP3 POP POP POP SWAP4 SWAP3 POP POP POP JUMP JUMPDEST PUSH1 0x0 DUP2 SWAP1 POP SWAP2 SWAP1 POP JUMP JUMPDEST PUSH1 0x0 PUSH3 0x77B PUSH3 0x775 PUSH3 0x76F DUP5 PUSH3 0x411 JUMP JUMPDEST PUSH3 0x750 JUMP JUMPDEST PUSH3 0x411 JUMP JUMPDEST SWAP1 POP SWAP2 SWAP1 POP JUMP JUMPDEST PUSH1 0x0 DUP2 SWAP1 POP SWAP2 SWAP1 POP JUMP JUMPDEST PUSH3 0x797 DUP4 PUSH3 0x75A JUMP JUMPDEST PUSH3 0x7AF PUSH3 0x7A6 DUP3 PUSH3 0x782 JUMP JUMPDEST DUP5 DUP5 SLOAD PUSH3 0x6FA JUMP JUMPDEST DUP3 SSTORE POP POP POP POP JUMP JUMPDEST PUSH1 0x0 SWAP1 JUMP JUMPDEST PUSH3 0x7C6 PUSH3 0x7B7 JUMP JUMPDEST PUSH3 0x7D3 DUP2 DUP5 DUP5 PUSH3 0x78C JUMP JUMPDEST POP POP POP JUMP JUMPDEST JUMPDEST DUP2 DUP2 LT ISZERO PUSH3 0x7FB JUMPI PUSH3 0x7EF PUSH1 0x0 DUP3 PUSH3 0x7BC JUMP JUMPDEST PUSH1 0x1 DUP2 ADD SWAP1 POP PUSH3 0x7D9 JUMP JUMPDEST POP POP JUMP JUMPDEST PUSH1 0x1F DUP3 GT ISZERO PUSH3 0x84A JUMPI PUSH3 0x814 DUP2 PUSH3 0x6C8 JUMP JUMPDEST PUSH3 0x81F DUP5 PUSH3 0x6DD JUMP JUMPDEST DUP2 ADD PUSH1 0x20 DUP6 LT ISZERO PUSH3 0x82F JUMPI DUP2 SWAP1 POP JUMPDEST PUSH3 0x847 PUSH3 0x83E DUP6 PUSH3 0x6DD JUMP JUMPDEST DUP4 ADD DUP3 PUSH3 0x7D8 JUMP JUMPDEST POP POP JUMPDEST POP POP POP JUMP JUMPDEST PUSH1 0x0 DUP3 DUP3 SHR SWAP1 POP SWAP3 SWAP2 POP POP JUMP JUMPDEST PUSH1 0x0 PUSH3 0x86F PUSH1 0x0 NOT DUP5 PUSH1 0x8 MUL PUSH3 0x84F JUMP JUMPDEST NOT DUP1 DUP4 AND SWAP2 POP POP SWAP3 SWAP2 POP POP JUMP JUMPDEST PUSH1 0x0 PUSH3 0x88A DUP4 DUP4 PUSH3 0x85C JUMP JUMPDEST SWAP2 POP DUP3 PUSH1 0x2 MUL DUP3 OR SWAP1 POP SWAP3 SWAP2 POP POP JUMP JUMPDEST PUSH3 0x8A5 DUP3 PUSH3 0x659 JUMP JUMPDEST PUSH8 0xFFFFFFFFFFFFFFFF DUP2 GT ISZERO PUSH3 0x8C1 JUMPI PUSH3 0x8C0 PUSH3 0x2AD JUMP JUMPDEST JUMPDEST PUSH3 0x8CD DUP3 SLOAD PUSH3 0x693 JUMP JUMPDEST PUSH3 0x8DA DUP3 DUP3 DUP6 PUSH3 0x7FF JUMP JUMPDEST PUSH1 0x0 PUSH1 0x20 SWAP1 POP PUSH1 0x1F DUP4 GT PUSH1 0x1 DUP2 EQ PUSH3 0x912 JUMPI PUSH1 0x0 DUP5 ISZERO PUSH3 0x8FD JUMPI DUP3 DUP8 ADD MLOAD SWAP1 POP JUMPDEST PUSH3 0x909 DUP6 DUP3 PUSH3 0x87C JUMP JUMPDEST DUP7 SSTORE POP PUSH3 0x979 JUMP JUMPDEST PUSH1 0x1F NOT DUP5 AND PUSH3 0x922 DUP7 PUSH3 0x6C8 JUMP JUMPDEST PUSH1 0x0 JUMPDEST DUP3 DUP2 LT ISZERO PUSH3 0x94C JUMPI DUP5 DUP10 ADD MLOAD DUP3 SSTORE PUSH1 0x1 DUP3 ADD SWAP2 POP PUSH1 0x20 DUP6 ADD SWAP5 POP PUSH1 0x20 DUP2 ADD SWAP1 POP PUSH3 0x925 JUMP JUMPDEST DUP7 DUP4 LT ISZERO PUSH3 0x96C JUMPI DUP5 DUP10 ADD MLOAD PUSH3 0x968 PUSH1 0x1F DUP10 AND DUP3 PUSH3 0x85C JUMP JUMPDEST DUP4 SSTORE POP JUMPDEST PUSH1 0x1 PUSH1 0x2 DUP9 MUL ADD DUP9 SSTORE POP POP POP JUMPDEST POP POP POP POP POP POP JUMP JUMPDEST PUSH32 0x4E487B7100000000000000000000000000000000000000000000000000000000 PUSH1 0x0 MSTORE PUSH1 0x11 PUSH1 0x4 MSTORE PUSH1 0x24 PUSH1 0x0 REVERT JUMPDEST PUSH1 0x0 PUSH3 0x9BD DUP3 PUSH3 0x411 JUMP JUMPDEST SWAP2 POP PUSH3 0x9CA DUP4 PUSH3 0x411 JUMP JUMPDEST SWAP3 POP DUP3 DUP3 MUL PUSH3 0x9DA DUP2 PUSH3 0x411 JUMP JUMPDEST SWAP2 POP DUP3 DUP3 DIV DUP5 EQ DUP4 ISZERO OR PUSH3 0x9F4 JUMPI PUSH3 0x9F3 PUSH3 0x981 JUMP JUMPDEST JUMPDEST POP SWAP3 SWAP2 POP POP JUMP JUMPDEST PUSH32 0x4E487B7100000000000000000000000000000000000000000000000000000000 PUSH1 0x0 MSTORE PUSH1 0x12 PUSH1 0x4 MSTORE PUSH1 0x24 PUSH1 0x0 REVERT JUMPDEST PUSH1 0x0 PUSH3 0xA37 DUP3 PUSH3 0x411 JUMP JUMPDEST SWAP2 POP PUSH3 0xA44 DUP4 PUSH3 0x411 JUMP JUMPDEST SWAP3 POP DUP3 PUSH3 0xA57 JUMPI PUSH3 0xA56 PUSH3 0x9FB JUMP JUMPDEST JUMPDEST DUP3 DUP3 DIV SWAP1 POP SWAP3 SWAP2 POP POP JUMP JUMPDEST PUSH32 0x4E487B7100000000000000000000000000000000000000000000000000000000 PUSH1 0x0 MSTORE PUSH1 0x32 PUSH1 0x4 MSTORE PUSH1 0x24 PUSH1 0x0 REVERT JUMPDEST PUSH2 0x2D53 DUP1 PUSH3 0xAA1 PUSH1 0x0 CODECOPY PUSH1 0x0 RETURN INVALID PUSH1 0x80 PUSH1 0x40 MSTORE PUSH1 0x4 CALLDATASIZE LT PUSH2 0x181 JUMPI PUSH1 0x0 CALLDATALOAD PUSH1 0xE0 SHR DUP1 PUSH4 0x6F9FB98A GT PUSH2 0xD1 JUMPI DUP1 PUSH4 0xABC6FD0B GT PUSH2 0x8A JUMPI DUP1 PUSH4 0xD7BB99BA GT PUSH2 0x64 JUMPI DUP1 PUSH4 0xD7BB99BA EQ PUSH2 0x516 JUMPI DUP1 PUSH4 0xD8B0B499 EQ PUSH2 0x520 JUMPI DUP1 PUSH4 0xEF430AA6 EQ PUSH2 0x54B JUMPI DUP1 PUSH4 0xFE1C3A3A EQ PUSH2 0x576 JUMPI PUSH2 0x181 JUMP JUMPDEST DUP1 PUSH4 0xABC6FD0B EQ PUSH2 0x4A4 JUMPI DUP1 PUSH4 0xC67D2941 EQ PUSH2 0x4AE JUMPI DUP1 PUSH4 0xC6E36A32 EQ PUSH2 0x4D9 JUMPI PUSH2 0x181 JUMP JUMPDEST DUP1 PUSH4 0x6F9FB98A EQ PUSH2 0x390 JUMPI DUP1 PUSH4 0x73D659B3 EQ PUSH2 0x3BB JUMPI DUP1 PUSH4 0x7569B3D7 EQ PUSH2 0x3F8 JUMPI DUP1 PUSH4 0x8DA5CB5B EQ PUSH2 0x423 JUMPI DUP1 PUSH4 0x99C5721F EQ PUSH2 0x44E JUMPI DUP1 PUSH4 0xA235B769 EQ PUSH2 0x479 JUMPI PUSH2 0x181 JUMP JUMPDEST DUP1 PUSH4 0x42CDE4E8 GT PUSH2 0x13E JUMPI DUP1 PUSH4 0x4EEAF476 GT PUSH2 0x118 JUMPI DUP1 PUSH4 0x4EEAF476 EQ PUSH2 0x2F8 JUMPI DUP1 PUSH4 0x55F150F1 EQ PUSH2 0x30F JUMPI DUP1 PUSH4 0x590791F2 EQ PUSH2 0x33A JUMPI DUP1 PUSH4 0x5FE38E03 EQ PUSH2 0x365 JUMPI PUSH2 0x181 JUMP JUMPDEST DUP1 PUSH4 0x42CDE4E8 EQ PUSH2 0x277 JUMPI DUP1 PUSH4 0x45BC73F7 EQ PUSH2 0x2A2 JUMPI DUP1 PUSH4 0x4A79D50C EQ PUSH2 0x2CD JUMPI PUSH2 0x181 JUMP JUMPDEST DUP1 PUSH4 0x121B93F EQ PUSH2 0x186 JUMPI DUP1 PUSH4 0x10812A7D EQ PUSH2 0x1AF JUMPI DUP1 PUSH4 0x11C2850E EQ PUSH2 0x1DA JUMPI DUP1 PUSH4 0x29DCB0CF EQ PUSH2 0x205 JUMPI DUP1 PUSH4 0x3064E900 EQ PUSH2 0x230 JUMPI DUP1 PUSH4 0x32A2C5D0 EQ PUSH2 0x24C JUMPI JUMPDEST PUSH1 0x0 DUP1 REVERT JUMPDEST CALLVALUE DUP1 ISZERO PUSH2 0x192 JUMPI PUSH1 0x0 DUP1 REVERT JUMPDEST POP PUSH2 0x1AD PUSH1 0x4 DUP1 CALLDATASIZE SUB DUP2 ADD SWAP1 PUSH2 0x1A8 SWAP2 SWAP1 PUSH2 0x1F97 JUMP JUMPDEST PUSH2 0x5A1 JUMP JUMPDEST STOP JUMPDEST CALLVALUE DUP1 ISZERO PUSH2 0x1BB JUMPI PUSH1 0x0 DUP1 REVERT JUMPDEST POP PUSH2 0x1C4 PUSH2 0x94B JUMP JUMPDEST PUSH1 0x40 MLOAD PUSH2 0x1D1 SWAP2 SWAP1 PUSH2 0x1FD3 JUMP JUMPDEST PUSH1 0x40 MLOAD DUP1 SWAP2 SUB SWAP1 RETURN JUMPDEST CALLVALUE DUP1 ISZERO PUSH2 0x1E6 JUMPI PUSH1 0x0 DUP1 REVERT JUMPDEST POP PUSH2 0x1EF PUSH2 0x951 JUMP JUMPDEST PUSH1 0x40 MLOAD PUSH2 0x1FC SWAP2 SWAP1 PUSH2 0x2009 JUMP JUMPDEST PUSH1 0x40 MLOAD DUP1 SWAP2 SUB SWAP1 RETURN JUMPDEST CALLVALUE DUP1 ISZERO PUSH2 0x211 JUMPI PUSH1 0x0 DUP1 REVERT JUMPDEST POP PUSH2 0x21A PUSH2 0x964 JUMP JUMPDEST PUSH1 0x40 MLOAD PUSH2 0x227 SWAP2 SWAP1 PUSH2 0x1FD3 JUMP JUMPDEST PUSH1 0x40 MLOAD DUP1 SWAP2 SUB SWAP1 RETURN JUMPDEST PUSH2 0x24A PUSH1 0x4 DUP1 CALLDATASIZE SUB DUP2 ADD SWAP1 PUSH2 0x245 SWAP2 SWAP1 PUSH2 0x216A JUMP JUMPDEST PUSH2 0x96A JUMP JUMPDEST STOP JUMPDEST CALLVALUE DUP1 ISZERO PUSH2 0x258 JUMPI PUSH1 0x0 DUP1 REVERT JUMPDEST POP PUSH2 0x261 PUSH2 0xCF9 JUMP JUMPDEST PUSH1 0x40 MLOAD PUSH2 0x26E SWAP2 SWAP1 PUSH2 0x21F4 JUMP JUMPDEST PUSH1 0x40 MLOAD DUP1 SWAP2 SUB SWAP1 RETURN JUMPDEST CALLVALUE DUP1 ISZERO PUSH2 0x283 JUMPI PUSH1 0x0 DUP1 REVERT JUMPDEST POP PUSH2 0x28C PUSH2 0xD01 JUMP JUMPDEST PUSH1 0x40 MLOAD PUSH2 0x299 SWAP2 SWAP1 PUSH2 0x1FD3 JUMP JUMPDEST PUSH1 0x40 MLOAD DUP1 SWAP2 SUB SWAP1 RETURN JUMPDEST CALLVALUE DUP1 ISZERO PUSH2 0x2AE JUMPI PUSH1 0x0 DUP1 REVERT JUMPDEST POP PUSH2 0x2B7 PUSH2 0xD07 JUMP JUMPDEST PUSH1 0x40 MLOAD PUSH2 0x2C4 SWAP2 SWAP1 PUSH2 0x1FD3 JUMP JUMPDEST PUSH1 0x40 MLOAD DUP1 SWAP2 SUB SWAP1 RETURN JUMPDEST CALLVALUE DUP1 ISZERO PUSH2 0x2D9 JUMPI PUSH1 0x0 DUP1 REVERT JUMPDEST POP PUSH2 0x2E2 PUSH2 0xD0D JUMP JUMPDEST PUSH1 0x40 MLOAD PUSH2 0x2EF SWAP2 SWAP1 PUSH2 0x228E JUMP JUMPDEST PUSH1 0x40 MLOAD DUP1 SWAP2 SUB SWAP1 RETURN JUMPDEST CALLVALUE DUP1 ISZERO PUSH2 0x304 JUMPI PUSH1 0x0 DUP1 REVERT JUMPDEST POP PUSH2 0x30D PUSH2 0xD9B JUMP JUMPDEST STOP JUMPDEST CALLVALUE DUP1 ISZERO PUSH2 0x31B JUMPI PUSH1 0x0 DUP1 REVERT JUMPDEST POP PUSH2 0x324 PUSH2 0xEC0 JUMP JUMPDEST PUSH1 0x40 MLOAD PUSH2 0x331 SWAP2 SWAP1 PUSH2 0x228E JUMP JUMPDEST PUSH1 0x40 MLOAD DUP1 SWAP2 SUB SWAP1 RETURN JUMPDEST CALLVALUE DUP1 ISZERO PUSH2 0x346 JUMPI PUSH1 0x0 DUP1 REVERT JUMPDEST POP PUSH2 0x34F PUSH2 0xF4E JUMP JUMPDEST PUSH1 0x40 MLOAD PUSH2 0x35C SWAP2 SWAP1 PUSH2 0x1FD3 JUMP JUMPDEST PUSH1 0x40 MLOAD DUP1 SWAP2 SUB SWAP1 RETURN JUMPDEST CALLVALUE DUP1 ISZERO PUSH2 0x371 JUMPI PUSH1 0x0 DUP1 REVERT JUMPDEST POP PUSH2 0x37A PUSH2 0xFB6 JUMP JUMPDEST PUSH1 0x40 MLOAD PUSH2 0x387 SWAP2 SWAP1 PUSH2 0x228E JUMP JUMPDEST PUSH1 0x40 MLOAD DUP1 SWAP2 SUB SWAP1 RETURN JUMPDEST CALLVALUE DUP1 ISZERO PUSH2 0x39C JUMPI PUSH1 0x0 DUP1 REVERT JUMPDEST POP PUSH2 0x3A5 PUSH2 0x1044 JUMP JUMPDEST PUSH1 0x40 MLOAD PUSH2 0x3B2 SWAP2 SWAP1 PUSH2 0x1FD3 JUMP JUMPDEST PUSH1 0x40 MLOAD DUP1 SWAP2 SUB SWAP1 RETURN JUMPDEST CALLVALUE DUP1 ISZERO PUSH2 0x3C7 JUMPI PUSH1 0x0 DUP1 REVERT JUMPDEST POP PUSH2 0x3E2 PUSH1 0x4 DUP1 CALLDATASIZE SUB DUP2 ADD SWAP1 PUSH2 0x3DD SWAP2 SWAP1 PUSH2 0x22DC JUMP JUMPDEST PUSH2 0x104C JUMP JUMPDEST PUSH1 0x40 MLOAD PUSH2 0x3EF SWAP2 SWAP1 PUSH2 0x21F4 JUMP JUMPDEST PUSH1 0x40 MLOAD DUP1 SWAP2 SUB SWAP1 RETURN JUMPDEST CALLVALUE DUP1 ISZERO PUSH2 0x404 JUMPI PUSH1 0x0 DUP1 REVERT JUMPDEST POP PUSH2 0x40D PUSH2 0x109A JUMP JUMPDEST PUSH1 0x40 MLOAD PUSH2 0x41A SWAP2 SWAP1 PUSH2 0x1FD3 JUMP JUMPDEST PUSH1 0x40 MLOAD DUP1 SWAP2 SUB SWAP1 RETURN JUMPDEST CALLVALUE DUP1 ISZERO PUSH2 0x42F JUMPI PUSH1 0x0 DUP1 REVERT JUMPDEST POP PUSH2 0x438 PUSH2 0x10A0 JUMP JUMPDEST PUSH1 0x40 MLOAD PUSH2 0x445 SWAP2 SWAP1 PUSH2 0x233D JUMP JUMPDEST PUSH1 0x40 MLOAD DUP1 SWAP2 SUB SWAP1 RETURN JUMPDEST CALLVALUE DUP1 ISZERO PUSH2 0x45A JUMPI PUSH1 0x0 DUP1 REVERT JUMPDEST POP PUSH2 0x463 PUSH2 0x10C4 JUMP JUMPDEST PUSH1 0x40 MLOAD PUSH2 0x470 SWAP2 SWAP1 PUSH2 0x2009 JUMP JUMPDEST PUSH1 0x40 MLOAD DUP1 SWAP2 SUB SWAP1 RETURN JUMPDEST CALLVALUE DUP1 ISZERO PUSH2 0x485 JUMPI PUSH1 0x0 DUP1 REVERT JUMPDEST POP PUSH2 0x48E PUSH2 0x10D7 JUMP JUMPDEST PUSH1 0x40 MLOAD PUSH2 0x49B SWAP2 SWAP1 PUSH2 0x1FD3 JUMP JUMPDEST PUSH1 0x40 MLOAD DUP1 SWAP2 SUB SWAP1 RETURN JUMPDEST PUSH2 0x4AC PUSH2 0x10DD JUMP JUMPDEST STOP JUMPDEST CALLVALUE DUP1 ISZERO PUSH2 0x4BA JUMPI PUSH1 0x0 DUP1 REVERT JUMPDEST POP PUSH2 0x4C3 PUSH2 0x197C JUMP JUMPDEST PUSH1 0x40 MLOAD PUSH2 0x4D0 SWAP2 SWAP1 PUSH2 0x2009 JUMP JUMPDEST PUSH1 0x40 MLOAD DUP1 SWAP2 SUB SWAP1 RETURN JUMPDEST CALLVALUE DUP1 ISZERO PUSH2 0x4E5 JUMPI PUSH1 0x0 DUP1 REVERT JUMPDEST POP PUSH2 0x500 PUSH1 0x4 DUP1 CALLDATASIZE SUB DUP2 ADD SWAP1 PUSH2 0x4FB SWAP2 SWAP1 PUSH2 0x2358 JUMP JUMPDEST PUSH2 0x198F JUMP JUMPDEST PUSH1 0x40 MLOAD PUSH2 0x50D SWAP2 SWAP1 PUSH2 0x1FD3 JUMP JUMPDEST PUSH1 0x40 MLOAD DUP1 SWAP2 SUB SWAP1 RETURN JUMPDEST PUSH2 0x51E PUSH2 0x19BD JUMP JUMPDEST STOP JUMPDEST CALLVALUE DUP1 ISZERO PUSH2 0x52C JUMPI PUSH1 0x0 DUP1 REVERT JUMPDEST POP PUSH2 0x535 PUSH2 0x1D3F JUMP JUMPDEST PUSH1 0x40 MLOAD PUSH2 0x542 SWAP2 SWAP1 PUSH2 0x228E JUMP JUMPDEST PUSH1 0x40 MLOAD DUP1 SWAP2 SUB SWAP1 RETURN JUMPDEST CALLVALUE DUP1 ISZERO PUSH2 0x557 JUMPI PUSH1 0x0 DUP1 REVERT JUMPDEST POP PUSH2 0x560 PUSH2 0x1DCD JUMP JUMPDEST PUSH1 0x40 MLOAD PUSH2 0x56D SWAP2 SWAP1 PUSH2 0x228E JUMP JUMPDEST PUSH1 0x40 MLOAD DUP1 SWAP2 SUB SWAP1 RETURN JUMPDEST CALLVALUE DUP1 ISZERO PUSH2 0x582 JUMPI PUSH1 0x0 DUP1 REVERT JUMPDEST POP PUSH2 0x58B PUSH2 0x1E5B JUMP JUMPDEST PUSH1 0x40 MLOAD PUSH2 0x598 SWAP2 SWAP1 PUSH2 0x1FD3 JUMP JUMPDEST PUSH1 0x40 MLOAD DUP1 SWAP2 SUB SWAP1 RETURN JUMPDEST PUSH1 0x10 PUSH1 0x0 SWAP1 SLOAD SWAP1 PUSH2 0x100 EXP SWAP1 DIV PUSH1 0xFF AND PUSH2 0x5F0 JUMPI PUSH1 0x40 MLOAD PUSH32 0x8C379A000000000000000000000000000000000000000000000000000000000 DUP2 MSTORE PUSH1 0x4 ADD PUSH2 0x5E7 SWAP1 PUSH2 0x23E4 JUMP JUMPDEST PUSH1 0x40 MLOAD DUP1 SWAP2 SUB SWAP1 REVERT JUMPDEST PUSH1 0x0 DUP1 SLOAD SWAP1 PUSH2 0x100 EXP SWAP1 DIV PUSH20 0xFFFFFFFFFFFFFFFFFFFFFFFFFFFFFFFFFFFFFFFF AND PUSH20 0xFFFFFFFFFFFFFFFFFFFFFFFFFFFFFFFFFFFFFFFF AND CALLER PUSH20 0xFFFFFFFFFFFFFFFFFFFFFFFFFFFFFFFFFFFFFFFF AND SUB PUSH2 0x67E JUMPI PUSH1 0x40 MLOAD PUSH32 0x8C379A000000000000000000000000000000000000000000000000000000000 DUP2 MSTORE PUSH1 0x4 ADD PUSH2 0x675 SWAP1 PUSH2 0x2450 JUMP JUMPDEST PUSH1 0x40 MLOAD DUP1 SWAP2 SUB SWAP1 REVERT JUMPDEST PUSH1 0x16 PUSH1 0x0 SWAP1 SLOAD SWAP1 PUSH2 0x100 EXP SWAP1 DIV PUSH1 0xFF AND PUSH2 0x6CD JUMPI PUSH1 0x40 MLOAD PUSH32 0x8C379A000000000000000000000000000000000000000000000000000000000 DUP2 MSTORE PUSH1 0x4 ADD PUSH2 0x6C4 SWAP1 PUSH2 0x24BC JUMP JUMPDEST PUSH1 0x40 MLOAD DUP1 SWAP2 SUB SWAP1 REVERT JUMPDEST PUSH1 0x9 SLOAD PUSH1 0x19 PUSH1 0x0 CALLER PUSH20 0xFFFFFFFFFFFFFFFFFFFFFFFFFFFFFFFFFFFFFFFF AND PUSH20 0xFFFFFFFFFFFFFFFFFFFFFFFFFFFFFFFFFFFFFFFF AND DUP2 MSTORE PUSH1 0x20 ADD SWAP1 DUP2 MSTORE PUSH1 0x20 ADD PUSH1 0x0 KECCAK256 SLOAD GT PUSH2 0x750 JUMPI PUSH1 0x40 MLOAD PUSH32 0x8C379A000000000000000000000000000000000000000000000000000000000 DUP2 MSTORE PUSH1 0x4 ADD PUSH2 0x747 SWAP1 PUSH2 0x2528 JUMP JUMPDEST PUSH1 0x40 MLOAD DUP1 SWAP2 SUB SWAP1 REVERT JUMPDEST PUSH1 0x1B PUSH1 0x15 SLOAD PUSH1 0x2 DUP2 LT PUSH2 0x766 JUMPI PUSH2 0x765 PUSH2 0x2548 JUMP JUMPDEST JUMPDEST ADD PUSH1 0x0 CALLER PUSH20 0xFFFFFFFFFFFFFFFFFFFFFFFFFFFFFFFFFFFFFFFF AND PUSH20 0xFFFFFFFFFFFFFFFFFFFFFFFFFFFFFFFFFFFFFFFF AND DUP2 MSTORE PUSH1 0x20 ADD SWAP1 DUP2 MSTORE PUSH1 0x20 ADD PUSH1 0x0 KECCAK256 PUSH1 0x0 SWAP1 SLOAD SWAP1 PUSH2 0x100 EXP SWAP1 DIV PUSH1 0xFF AND ISZERO PUSH2 0x7F2 JUMPI PUSH1 0x40 MLOAD PUSH32 0x8C379A000000000000000000000000000000000000000000000000000000000 DUP2 MSTORE PUSH1 0x4 ADD PUSH2 0x7E9 SWAP1 PUSH2 0x25C3 JUMP JUMPDEST PUSH1 0x40 MLOAD DUP1 SWAP2 SUB SWAP1 REVERT JUMPDEST PUSH1 0x0 DUP1 PUSH1 0x15 SLOAD EQ PUSH2 0x81B JUMPI PUSH1 0x40 MLOAD DUP1 PUSH1 0x60 ADD PUSH1 0x40 MSTORE DUP1 PUSH1 0x21 DUP2 MSTORE PUSH1 0x20 ADD PUSH2 0x2C98 PUSH1 0x21 SWAP2 CODECOPY PUSH2 0x835 JUMP JUMPDEST PUSH1 0x40 MLOAD DUP1 PUSH1 0x60 ADD PUSH1 0x40 MSTORE DUP1 PUSH1 0x22 DUP2 MSTORE PUSH1 0x20 ADD PUSH2 0x2CB9 PUSH1 0x22 SWAP2 CODECOPY JUMPDEST SWAP1 POP CALLER PUSH20 0xFFFFFFFFFFFFFFFFFFFFFFFFFFFFFFFFFFFFFFFF AND PUSH32 0xAD36F252F633E10FE00AB4AF7AB28ED05C377DD0D941F0B6DC21A16F3D4AA96F PUSH1 0x1 PUSH1 0x15 SLOAD PUSH2 0x87E SWAP2 SWAP1 PUSH2 0x2612 JUMP JUMPDEST DUP4 TIMESTAMP PUSH1 0x40 MLOAD PUSH2 0x88F SWAP4 SWAP3 SWAP2 SWAP1 PUSH2 0x2646 JUMP JUMPDEST PUSH1 0x40 MLOAD DUP1 SWAP2 SUB SWAP1 LOG2 PUSH1 0x11 PUSH1 0x15 SLOAD PUSH1 0x2 DUP2 LT PUSH2 0x8AD JUMPI PUSH2 0x8AC PUSH2 0x2548 JUMP JUMPDEST JUMPDEST PUSH1 0x2 MUL ADD DUP3 PUSH1 0x2 DUP2 LT PUSH2 0x8C3 JUMPI PUSH2 0x8C2 PUSH2 0x2548 JUMP JUMPDEST JUMPDEST ADD PUSH1 0x0 DUP2 SLOAD DUP1 SWAP3 SWAP2 SWAP1 PUSH2 0x8D5 SWAP1 PUSH2 0x2684 JUMP JUMPDEST SWAP2 SWAP1 POP SSTORE POP PUSH1 0x1 PUSH1 0x1B PUSH1 0x15 SLOAD PUSH1 0x2 DUP2 LT PUSH2 0x8F2 JUMPI PUSH2 0x8F1 PUSH2 0x2548 JUMP JUMPDEST JUMPDEST ADD PUSH1 0x0 CALLER PUSH20 0xFFFFFFFFFFFFFFFFFFFFFFFFFFFFFFFFFFFFFFFF AND PUSH20 0xFFFFFFFFFFFFFFFFFFFFFFFFFFFFFFFFFFFFFFFF AND DUP2 MSTORE PUSH1 0x20 ADD SWAP1 DUP2 MSTORE PUSH1 0x20 ADD PUSH1 0x0 KECCAK256 PUSH1 0x0 PUSH2 0x100 EXP DUP2 SLOAD DUP2 PUSH1 0xFF MUL NOT AND SWAP1 DUP4 ISZERO ISZERO MUL OR SWAP1 SSTORE POP POP POP JUMP JUMPDEST PUSH1 0xF SLOAD DUP2 JUMP JUMPDEST PUSH1 0x10 PUSH1 0x1 SWAP1 SLOAD SWAP1 PUSH2 0x100 EXP SWAP1 DIV PUSH1 0xFF AND DUP2 JUMP JUMPDEST PUSH1 0x8 SLOAD DUP2 JUMP JUMPDEST PUSH1 0x0 DUP1 SLOAD SWAP1 PUSH2 0x100 EXP SWAP1 DIV PUSH20 0xFFFFFFFFFFFFFFFFFFFFFFFFFFFFFFFFFFFFFFFF AND PUSH20 0xFFFFFFFFFFFFFFFFFFFFFFFFFFFFFFFFFFFFFFFF AND CALLER PUSH20 0xFFFFFFFFFFFFFFFFFFFFFFFFFFFFFFFFFFFFFFFF AND EQ PUSH2 0x9F8 JUMPI PUSH1 0x40 MLOAD PUSH32 0x8C379A000000000000000000000000000000000000000000000000000000000 DUP2 MSTORE PUSH1 0x4 ADD PUSH2 0x9EF SWAP1 PUSH2 0x273E JUMP JUMPDEST PUSH1 0x40 MLOAD DUP1 SWAP2 SUB SWAP1 REVERT JUMPDEST PUSH1 0x10 PUSH1 0x0 SWAP1 SLOAD SWAP1 PUSH2 0x100 EXP SWAP1 DIV PUSH1 0xFF AND PUSH2 0xA47 JUMPI PUSH1 0x40 MLOAD PUSH32 0x8C379A000000000000000000000000000000000000000000000000000000000 DUP2 MSTORE PUSH1 0x4 ADD PUSH2 0xA3E SWAP1 PUSH2 0x23E4 JUMP JUMPDEST PUSH1 0x40 MLOAD DUP1 SWAP2 SUB SWAP1 REVERT JUMPDEST PUSH2 0xA69 DUP2 PUSH1 0x40 MLOAD DUP1 PUSH1 0x60 ADD PUSH1 0x40 MSTORE DUP1 PUSH1 0x21 DUP2 MSTORE PUSH1 0x20 ADD PUSH2 0x2CDB PUSH1 0x21 SWAP2 CODECOPY PUSH2 0x1E61 JUMP JUMPDEST PUSH1 0x0 DUP1 PUSH1 0x0 JUMPDEST PUSH1 0x18 PUSH1 0x0 DUP1 PUSH1 0x0 SWAP1 SLOAD SWAP1 PUSH2 0x100 EXP SWAP1 DIV PUSH20 0xFFFFFFFFFFFFFFFFFFFFFFFFFFFFFFFFFFFFFFFF AND PUSH20 0xFFFFFFFFFFFFFFFFFFFFFFFFFFFFFFFFFFFFFFFF AND PUSH20 0xFFFFFFFFFFFFFFFFFFFFFFFFFFFFFFFFFFFFFFFF AND DUP2 MSTORE PUSH1 0x20 ADD SWAP1 DUP2 MSTORE PUSH1 0x20 ADD PUSH1 0x0 KECCAK256 DUP1 SLOAD SWAP1 POP DUP2 LT ISZERO PUSH2 0xC7B JUMPI PUSH1 0x18 PUSH1 0x0 DUP1 PUSH1 0x0 SWAP1 SLOAD SWAP1 PUSH2 0x100 EXP SWAP1 DIV PUSH20 0xFFFFFFFFFFFFFFFFFFFFFFFFFFFFFFFFFFFFFFFF AND PUSH20 0xFFFFFFFFFFFFFFFFFFFFFFFFFFFFFFFFFFFFFFFF AND PUSH20 0xFFFFFFFFFFFFFFFFFFFFFFFFFFFFFFFFFFFFFFFF AND DUP2 MSTORE PUSH1 0x20 ADD SWAP1 DUP2 MSTORE PUSH1 0x20 ADD PUSH1 0x0 KECCAK256 DUP2 DUP2 SLOAD DUP2 LT PUSH2 0xB4C JUMPI PUSH2 0xB4B PUSH2 0x2548 JUMP JUMPDEST JUMPDEST SWAP1 PUSH1 0x0 MSTORE PUSH1 0x20 PUSH1 0x0 KECCAK256 ADD PUSH1 0x0 SWAP1 SLOAD SWAP1 PUSH2 0x100 EXP SWAP1 DIV PUSH20 0xFFFFFFFFFFFFFFFFFFFFFFFFFFFFFFFFFFFFFFFF AND SWAP3 POP PUSH1 0x3 SLOAD PUSH1 0xF SLOAD PUSH1 0x3 SLOAD PUSH2 0xB8C SWAP2 SWAP1 PUSH2 0x275E JUMP JUMPDEST PUSH1 0x19 PUSH1 0x0 DUP7 PUSH20 0xFFFFFFFFFFFFFFFFFFFFFFFFFFFFFFFFFFFFFFFF AND PUSH20 0xFFFFFFFFFFFFFFFFFFFFFFFFFFFFFFFFFFFFFFFF AND DUP2 MSTORE PUSH1 0x20 ADD SWAP1 DUP2 MSTORE PUSH1 0x20 ADD PUSH1 0x0 KECCAK256 SLOAD PUSH2 0xBD6 SWAP2 SWAP1 PUSH2 0x2792 JUMP JUMPDEST PUSH2 0xBE0 SWAP2 SWAP1 PUSH2 0x2803 JUMP JUMPDEST SWAP2 POP PUSH1 0x0 PUSH1 0x19 PUSH1 0x0 DUP6 PUSH20 0xFFFFFFFFFFFFFFFFFFFFFFFFFFFFFFFFFFFFFFFF AND PUSH20 0xFFFFFFFFFFFFFFFFFFFFFFFFFFFFFFFFFFFFFFFF AND DUP2 MSTORE PUSH1 0x20 ADD SWAP1 DUP2 MSTORE PUSH1 0x20 ADD PUSH1 0x0 KECCAK256 DUP2 SWAP1 SSTORE POP DUP3 PUSH20 0xFFFFFFFFFFFFFFFFFFFFFFFFFFFFFFFFFFFFFFFF AND PUSH2 0x8FC DUP4 SWAP1 DUP2 ISZERO MUL SWAP1 PUSH1 0x40 MLOAD PUSH1 0x0 PUSH1 0x40 MLOAD DUP1 DUP4 SUB DUP2 DUP6 DUP9 DUP9 CALL SWAP4 POP POP POP POP ISZERO DUP1 ISZERO PUSH2 0xC6D JUMPI RETURNDATASIZE PUSH1 0x0 DUP1 RETURNDATACOPY RETURNDATASIZE PUSH1 0x0 REVERT JUMPDEST POP DUP1 DUP1 PUSH1 0x1 ADD SWAP2 POP POP PUSH2 0xA6F JUMP JUMPDEST POP PUSH1 0x0 PUSH1 0x6 DUP2 SWAP1 SSTORE POP PUSH1 0x0 PUSH1 0x10 PUSH1 0x0 PUSH2 0x100 EXP DUP2 SLOAD DUP2 PUSH1 0xFF MUL NOT AND SWAP1 DUP4 ISZERO ISZERO MUL OR SWAP1 SSTORE POP PUSH2 0xCA7 PUSH2 0xCF9 JUMP JUMPDEST PUSH20 0xFFFFFFFFFFFFFFFFFFFFFFFFFFFFFFFFFFFFFFFF AND PUSH32 0x153BB2862AC44FFD30D682BCDBF59DA13D2FFB1E710DC035699DD58C7A49FA58 TIMESTAMP PUSH1 0x40 MLOAD PUSH2 0xCEC SWAP2 SWAP1 PUSH2 0x2880 JUMP JUMPDEST PUSH1 0x40 MLOAD DUP1 SWAP2 SUB SWAP1 LOG2 POP POP POP JUMP JUMPDEST PUSH1 0x0 ADDRESS SWAP1 POP SWAP1 JUMP JUMPDEST PUSH1 0x9 SLOAD DUP2 JUMP JUMPDEST PUSH1 0x3 SLOAD DUP2 JUMP JUMPDEST PUSH1 0x1 DUP1 SLOAD PUSH2 0xD1A SWAP1 PUSH2 0x28DD JUMP JUMPDEST DUP1 PUSH1 0x1F ADD PUSH1 0x20 DUP1 SWAP2 DIV MUL PUSH1 0x20 ADD PUSH1 0x40 MLOAD SWAP1 DUP2 ADD PUSH1 0x40 MSTORE DUP1 SWAP3 SWAP2 SWAP1 DUP2 DUP2 MSTORE PUSH1 0x20 ADD DUP3 DUP1 SLOAD PUSH2 0xD46 SWAP1 PUSH2 0x28DD JUMP JUMPDEST DUP1 ISZERO PUSH2 0xD93 JUMPI DUP1 PUSH1 0x1F LT PUSH2 0xD68 JUMPI PUSH2 0x100 DUP1 DUP4 SLOAD DIV MUL DUP4 MSTORE SWAP2 PUSH1 0x20 ADD SWAP2 PUSH2 0xD93 JUMP JUMPDEST DUP3 ADD SWAP2 SWAP1 PUSH1 0x0 MSTORE PUSH1 0x20 PUSH1 0x0 KECCAK256 SWAP1 JUMPDEST DUP2 SLOAD DUP2 MSTORE SWAP1 PUSH1 0x1 ADD SWAP1 PUSH1 0x20 ADD DUP1 DUP4 GT PUSH2 0xD76 JUMPI DUP3 SWAP1 SUB PUSH1 0x1F AND DUP3 ADD SWAP2 JUMPDEST POP POP POP POP POP DUP2 JUMP JUMPDEST PUSH1 0x1 PUSH1 0x16 PUSH1 0x0 PUSH2 0x100 EXP DUP2 SLOAD DUP2 PUSH1 0xFF MUL NOT AND SWAP1 DUP4 ISZERO ISZERO MUL OR SWAP1 SSTORE POP PUSH1 0x0 DUP1 PUSH1 0x17 SLOAD EQ PUSH2 0xDFC JUMPI PUSH1 0x40 MLOAD DUP1 PUSH1 0x40 ADD PUSH1 0x40 MSTORE DUP1 PUSH1 0x1D DUP2 MSTORE PUSH1 0x20 ADD PUSH32 0x5365636F6E64204175646974205265706F7274205375626D6974746564000000 DUP2 MSTORE POP PUSH2 0xE33 JUMP JUMPDEST PUSH1 0x40 MLOAD DUP1 PUSH1 0x40 ADD PUSH1 0x40 MSTORE DUP1 PUSH1 0x1C DUP2 MSTORE PUSH1 0x20 ADD PUSH32 0x4669727374204175646974205265706F7274205375626D697474656400000000 DUP2 MSTORE POP JUMPDEST SWAP1 POP PUSH1 0x0 DUP1 SLOAD SWAP1 PUSH2 0x100 EXP SWAP1 DIV PUSH20 0xFFFFFFFFFFFFFFFFFFFFFFFFFFFFFFFFFFFFFFFF AND PUSH20 0xFFFFFFFFFFFFFFFFFFFFFFFFFFFFFFFFFFFFFFFF AND PUSH32 0x6FC35804307D7591960023578FD0432F7BBB911A2578ED22F875531976B22593 DUP3 TIMESTAMP PUSH1 0x40 MLOAD PUSH2 0xE9D SWAP3 SWAP2 SWAP1 PUSH2 0x290E JUMP JUMPDEST PUSH1 0x40 MLOAD DUP1 SWAP2 SUB SWAP1 LOG2 PUSH1 0x17 PUSH1 0x0 DUP2 SLOAD DUP1 SWAP3 SWAP2 SWAP1 PUSH2 0xEB8 SWAP1 PUSH2 0x2684 JUMP JUMPDEST SWAP2 SWAP1 POP SSTORE POP POP JUMP JUMPDEST PUSH1 0x2 DUP1 SLOAD PUSH2 0xECD SWAP1 PUSH2 0x28DD JUMP JUMPDEST DUP1 PUSH1 0x1F ADD PUSH1 0x20 DUP1 SWAP2 DIV MUL PUSH1 0x20 ADD PUSH1 0x40 MLOAD SWAP1 DUP2 ADD PUSH1 0x40 MSTORE DUP1 SWAP3 SWAP2 SWAP1 DUP2 DUP2 MSTORE PUSH1 0x20 ADD DUP3 DUP1 SLOAD PUSH2 0xEF9 SWAP1 PUSH2 0x28DD JUMP JUMPDEST DUP1 ISZERO PUSH2 0xF46 JUMPI DUP1 PUSH1 0x1F LT PUSH2 0xF1B JUMPI PUSH2 0x100 DUP1 DUP4 SLOAD DIV MUL DUP4 MSTORE SWAP2 PUSH1 0x20 ADD SWAP2 PUSH2 0xF46 JUMP JUMPDEST DUP3 ADD SWAP2 SWAP1 PUSH1 0x0 MSTORE PUSH1 0x20 PUSH1 0x0 KECCAK256 SWAP1 JUMPDEST DUP2 SLOAD DUP2 MSTORE SWAP1 PUSH1 0x1 ADD SWAP1 PUSH1 0x20 ADD DUP1 DUP4 GT PUSH2 0xF29 JUMPI DUP3 SWAP1 SUB PUSH1 0x1F AND DUP3 ADD SWAP2 JUMPDEST POP POP POP POP POP DUP2 JUMP JUMPDEST PUSH1 0x0 PUSH1 0x1A PUSH1 0x0 DUP1 PUSH1 0x0 SWAP1 SLOAD SWAP1 PUSH2 0x100 EXP SWAP1 DIV PUSH20 0xFFFFFFFFFFFFFFFFFFFFFFFFFFFFFFFFFFFFFFFF AND PUSH20 0xFFFFFFFFFFFFFFFFFFFFFFFFFFFFFFFFFFFFFFFF AND PUSH20 0xFFFFFFFFFFFFFFFFFFFFFFFFFFFFFFFFFFFFFFFF AND DUP2 MSTORE PUSH1 0x20 ADD SWAP1 DUP2 MSTORE PUSH1 0x20 ADD PUSH1 0x0 KECCAK256 SLOAD SWAP1 POP SWAP1 JUMP JUMPDEST PUSH1 0x4 DUP1 SLOAD PUSH2 0xFC3 SWAP1 PUSH2 0x28DD JUMP JUMPDEST DUP1 PUSH1 0x1F ADD PUSH1 0x20 DUP1 SWAP2 DIV MUL PUSH1 0x20 ADD PUSH1 0x40 MLOAD SWAP1 DUP2 ADD PUSH1 0x40 MSTORE DUP1 SWAP3 SWAP2 SWAP1 DUP2 DUP2 MSTORE PUSH1 0x20 ADD DUP3 DUP1 SLOAD PUSH2 0xFEF SWAP1 PUSH2 0x28DD JUMP JUMPDEST DUP1 ISZERO PUSH2 0x103C JUMPI DUP1 PUSH1 0x1F LT PUSH2 0x1011 JUMPI PUSH2 0x100 DUP1 DUP4 SLOAD DIV MUL DUP4 MSTORE SWAP2 PUSH1 0x20 ADD SWAP2 PUSH2 0x103C JUMP JUMPDEST DUP3 ADD SWAP2 SWAP1 PUSH1 0x0 MSTORE PUSH1 0x20 PUSH1 0x0 KECCAK256 SWAP1 JUMPDEST DUP2 SLOAD DUP2 MSTORE SWAP1 PUSH1 0x1 ADD SWAP1 PUSH1 0x20 ADD DUP1 DUP4 GT PUSH2 0x101F JUMPI DUP3 SWAP1 SUB PUSH1 0x1F AND DUP3 ADD SWAP2 JUMPDEST POP POP POP POP POP DUP2 JUMP JUMPDEST PUSH1 0x0 SELFBALANCE SWAP1 POP SWAP1 JUMP JUMPDEST PUSH1 0x18 PUSH1 0x20 MSTORE DUP2 PUSH1 0x0 MSTORE PUSH1 0x40 PUSH1 0x0 KECCAK256 DUP2 DUP2 SLOAD DUP2 LT PUSH2 0x1068 JUMPI PUSH1 0x0 DUP1 REVERT JUMPDEST SWAP1 PUSH1 0x0 MSTORE PUSH1 0x20 PUSH1 0x0 KECCAK256 ADD PUSH1 0x0 SWAP2 POP SWAP2 POP SWAP1 SLOAD SWAP1 PUSH2 0x100 EXP SWAP1 DIV PUSH20 0xFFFFFFFFFFFFFFFFFFFFFFFFFFFFFFFFFFFFFFFF AND DUP2 JUMP JUMPDEST PUSH1 0xE SLOAD DUP2 JUMP JUMPDEST PUSH1 0x0 DUP1 SLOAD SWAP1 PUSH2 0x100 EXP SWAP1 DIV PUSH20 0xFFFFFFFFFFFFFFFFFFFFFFFFFFFFFFFFFFFFFFFF AND DUP2 JUMP JUMPDEST PUSH1 0x10 PUSH1 0x0 SWAP1 SLOAD SWAP1 PUSH2 0x100 EXP SWAP1 DIV PUSH1 0xFF AND DUP2 JUMP JUMPDEST PUSH1 0x6 SLOAD DUP2 JUMP JUMPDEST PUSH1 0x0 DUP1 SLOAD SWAP1 PUSH2 0x100 EXP SWAP1 DIV PUSH20 0xFFFFFFFFFFFFFFFFFFFFFFFFFFFFFFFFFFFFFFFF AND PUSH20 0xFFFFFFFFFFFFFFFFFFFFFFFFFFFFFFFFFFFFFFFF AND CALLER PUSH20 0xFFFFFFFFFFFFFFFFFFFFFFFFFFFFFFFFFFFFFFFF AND EQ PUSH2 0x116B JUMPI PUSH1 0x40 MLOAD PUSH32 0x8C379A000000000000000000000000000000000000000000000000000000000 DUP2 MSTORE PUSH1 0x4 ADD PUSH2 0x1162 SWAP1 PUSH2 0x273E JUMP JUMPDEST PUSH1 0x40 MLOAD DUP1 SWAP2 SUB SWAP1 REVERT JUMPDEST PUSH1 0x10 PUSH1 0x0 SWAP1 SLOAD SWAP1 PUSH2 0x100 EXP SWAP1 DIV PUSH1 0xFF AND PUSH2 0x11BA JUMPI PUSH1 0x40 MLOAD PUSH32 0x8C379A000000000000000000000000000000000000000000000000000000000 DUP2 MSTORE PUSH1 0x4 ADD PUSH2 0x11B1 SWAP1 PUSH2 0x23E4 JUMP JUMPDEST PUSH1 0x40 MLOAD DUP1 SWAP2 SUB SWAP1 REVERT JUMPDEST PUSH1 0x8 SLOAD TIMESTAMP GT PUSH2 0x11FE JUMPI PUSH1 0x40 MLOAD PUSH32 0x8C379A000000000000000000000000000000000000000000000000000000000 DUP2 MSTORE PUSH1 0x4 ADD PUSH2 0x11F5 SWAP1 PUSH2 0x298A JUMP JUMPDEST PUSH1 0x40 MLOAD DUP1 SWAP2 SUB SWAP1 REVERT JUMPDEST PUSH1 0x0 PUSH1 0xA SLOAD SUB PUSH2 0x151B JUMPI PUSH1 0x0 PUSH1 0x64 PUSH1 0x46 PUSH1 0x3 SLOAD PUSH2 0x121B SWAP2 SWAP1 PUSH2 0x2792 JUMP JUMPDEST PUSH2 0x1225 SWAP2 SWAP1 PUSH2 0x2803 JUMP JUMPDEST SWAP1 POP DUP1 PUSH1 0x6 SLOAD LT PUSH2 0x14D6 JUMPI PUSH1 0x0 PUSH1 0x64 PUSH1 0x1D SLOAD PUSH1 0x6 SLOAD PUSH2 0x1244 SWAP2 SWAP1 PUSH2 0x2792 JUMP JUMPDEST PUSH2 0x124E SWAP2 SWAP1 PUSH2 0x2803 JUMP JUMPDEST SWAP1 POP PUSH1 0x0 PUSH1 0x64 PUSH1 0x1E SLOAD PUSH1 0x6 SLOAD PUSH2 0x1264 SWAP2 SWAP1 PUSH2 0x2792 JUMP JUMPDEST PUSH2 0x126E SWAP2 SWAP1 PUSH2 0x2803 JUMP JUMPDEST SWAP1 POP PUSH1 0x0 DUP2 DUP4 PUSH2 0x127E SWAP2 SWAP1 PUSH2 0x2612 JUMP JUMPDEST PUSH1 0x6 SLOAD PUSH2 0x128B SWAP2 SWAP1 PUSH2 0x275E JUMP JUMPDEST SWAP1 POP DUP3 PUSH1 0xB PUSH1 0x1 PUSH1 0x3 DUP2 LT PUSH2 0x12A3 JUMPI PUSH2 0x12A2 PUSH2 0x2548 JUMP JUMPDEST JUMPDEST ADD DUP2 SWAP1 SSTORE PUSH1 0xB PUSH1 0x0 PUSH1 0x3 DUP2 LT PUSH2 0x12BC JUMPI PUSH2 0x12BB PUSH2 0x2548 JUMP JUMPDEST JUMPDEST ADD DUP2 SWAP1 SSTORE POP DUP1 PUSH1 0xB PUSH1 0x2 PUSH1 0x3 DUP2 LT PUSH2 0x12D7 JUMPI PUSH2 0x12D6 PUSH2 0x2548 JUMP JUMPDEST JUMPDEST ADD DUP2 SWAP1 SSTORE POP PUSH1 0x0 DUP1 SLOAD SWAP1 PUSH2 0x100 EXP SWAP1 DIV PUSH20 0xFFFFFFFFFFFFFFFFFFFFFFFFFFFFFFFFFFFFFFFF AND PUSH20 0xFFFFFFFFFFFFFFFFFFFFFFFFFFFFFFFFFFFFFFFF AND PUSH2 0x8FC PUSH1 0xB PUSH1 0xA SLOAD PUSH1 0x3 DUP2 LT PUSH2 0x132C JUMPI PUSH2 0x132B PUSH2 0x2548 JUMP JUMPDEST JUMPDEST ADD SLOAD SWAP1 DUP2 ISZERO MUL SWAP1 PUSH1 0x40 MLOAD PUSH1 0x0 PUSH1 0x40 MLOAD DUP1 DUP4 SUB DUP2 DUP6 DUP9 DUP9 CALL SWAP4 POP POP POP POP ISZERO DUP1 ISZERO PUSH2 0x1359 JUMPI RETURNDATASIZE PUSH1 0x0 DUP1 RETURNDATACOPY RETURNDATASIZE PUSH1 0x0 REVERT JUMPDEST POP PUSH1 0xB PUSH1 0xA SLOAD PUSH1 0x3 DUP2 LT PUSH2 0x1370 JUMPI PUSH2 0x136F PUSH2 0x2548 JUMP JUMPDEST JUMPDEST ADD SLOAD PUSH1 0x1A PUSH1 0x0 DUP1 PUSH1 0x0 SWAP1 SLOAD SWAP1 PUSH2 0x100 EXP SWAP1 DIV PUSH20 0xFFFFFFFFFFFFFFFFFFFFFFFFFFFFFFFFFFFFFFFF AND PUSH20 0xFFFFFFFFFFFFFFFFFFFFFFFFFFFFFFFFFFFFFFFF AND PUSH20 0xFFFFFFFFFFFFFFFFFFFFFFFFFFFFFFFFFFFFFFFF AND DUP2 MSTORE PUSH1 0x20 ADD SWAP1 DUP2 MSTORE PUSH1 0x20 ADD PUSH1 0x0 KECCAK256 PUSH1 0x0 DUP3 DUP3 SLOAD PUSH2 0x13E1 SWAP2 SWAP1 PUSH2 0x2612 JUMP JUMPDEST SWAP3 POP POP DUP2 SWAP1 SSTORE POP PUSH1 0xB PUSH1 0xA SLOAD PUSH1 0x3 DUP2 LT PUSH2 0x13FE JUMPI PUSH2 0x13FD PUSH2 0x2548 JUMP JUMPDEST JUMPDEST ADD SLOAD PUSH1 0xF PUSH1 0x0 DUP3 DUP3 SLOAD PUSH2 0x1411 SWAP2 SWAP1 PUSH2 0x2612 JUMP JUMPDEST SWAP3 POP POP DUP2 SWAP1 SSTORE POP PUSH1 0xB PUSH1 0xA SLOAD PUSH1 0x3 DUP2 LT PUSH2 0x142E JUMPI PUSH2 0x142D PUSH2 0x2548 JUMP JUMPDEST JUMPDEST ADD SLOAD PUSH1 0x6 PUSH1 0x0 DUP3 DUP3 SLOAD PUSH2 0x1441 SWAP2 SWAP1 PUSH2 0x275E JUMP JUMPDEST SWAP3 POP POP DUP2 SWAP1 SSTORE POP PUSH1 0xA PUSH1 0x0 DUP2 SLOAD DUP1 SWAP3 SWAP2 SWAP1 PUSH2 0x145B SWAP1 PUSH2 0x2684 JUMP JUMPDEST SWAP2 SWAP1 POP SSTORE POP PUSH2 0x1468 PUSH2 0xCF9 JUMP JUMPDEST PUSH20 0xFFFFFFFFFFFFFFFFFFFFFFFFFFFFFFFFFFFFFFFF AND PUSH32 0xC305C1562B0F741D2930CEB8C5957E71966C56489D23E0A04BC12B608842A77C PUSH1 0xB PUSH1 0xA SLOAD PUSH1 0x3 DUP2 LT PUSH2 0x14B5 JUMPI PUSH2 0x14B4 PUSH2 0x2548 JUMP JUMPDEST JUMPDEST ADD SLOAD TIMESTAMP PUSH1 0x40 MLOAD PUSH2 0x14C6 SWAP3 SWAP2 SWAP1 PUSH2 0x29F6 JUMP JUMPDEST PUSH1 0x40 MLOAD DUP1 SWAP2 SUB SWAP1 LOG2 POP POP POP PUSH2 0x1515 JUMP JUMPDEST PUSH2 0x1514 PUSH1 0x40 MLOAD DUP1 PUSH1 0x40 ADD PUSH1 0x40 MSTORE DUP1 PUSH1 0x1E DUP2 MSTORE PUSH1 0x20 ADD PUSH32 0x4469736275727361626C6520616D6F756E74206E6F7420726561636865640000 DUP2 MSTORE POP PUSH2 0x96A JUMP JUMPDEST JUMPDEST POP PUSH2 0x197A JUMP JUMPDEST PUSH1 0x0 PUSH1 0x11 PUSH1 0x15 SLOAD PUSH1 0x2 DUP2 LT PUSH2 0x1533 JUMPI PUSH2 0x1532 PUSH2 0x2548 JUMP JUMPDEST JUMPDEST PUSH1 0x2 MUL ADD PUSH1 0x0 PUSH1 0x2 DUP2 LT PUSH2 0x154A JUMPI PUSH2 0x1549 PUSH2 0x2548 JUMP JUMPDEST JUMPDEST ADD SLOAD SWAP1 POP PUSH1 0x0 PUSH1 0x11 PUSH1 0x15 SLOAD PUSH1 0x2 DUP2 LT PUSH2 0x1566 JUMPI PUSH2 0x1565 PUSH2 0x2548 JUMP JUMPDEST JUMPDEST PUSH1 0x2 MUL ADD PUSH1 0x1 PUSH1 0x2 DUP2 LT PUSH2 0x157D JUMPI PUSH2 0x157C PUSH2 0x2548 JUMP JUMPDEST JUMPDEST ADD SLOAD PUSH1 0x11 PUSH1 0x15 SLOAD PUSH1 0x2 DUP2 LT PUSH2 0x1595 JUMPI PUSH2 0x1594 PUSH2 0x2548 JUMP JUMPDEST JUMPDEST PUSH1 0x2 MUL ADD PUSH1 0x0 PUSH1 0x2 DUP2 LT PUSH2 0x15AC JUMPI PUSH2 0x15AB PUSH2 0x2548 JUMP JUMPDEST JUMPDEST ADD SLOAD PUSH2 0x15B8 SWAP2 SWAP1 PUSH2 0x2612 JUMP JUMPDEST SWAP1 POP PUSH1 0x8 SLOAD TIMESTAMP GT DUP1 ISZERO PUSH2 0x15D8 JUMPI POP PUSH1 0x10 PUSH1 0x1 SWAP1 SLOAD SWAP1 PUSH2 0x100 EXP SWAP1 DIV PUSH1 0xFF AND ISZERO JUMPDEST ISZERO PUSH2 0x1603 JUMPI PUSH2 0x15FE PUSH1 0x40 MLOAD DUP1 PUSH1 0x60 ADD PUSH1 0x40 MSTORE DUP1 PUSH1 0x22 DUP2 MSTORE PUSH1 0x20 ADD PUSH2 0x2CFC PUSH1 0x22 SWAP2 CODECOPY PUSH2 0x96A JUMP JUMPDEST PUSH2 0x1977 JUMP JUMPDEST PUSH1 0x1 DUP2 SWAP1 SHR DUP3 GT ISZERO PUSH2 0x1937 JUMPI PUSH1 0x0 DUP1 SLOAD SWAP1 PUSH2 0x100 EXP SWAP1 DIV PUSH20 0xFFFFFFFFFFFFFFFFFFFFFFFFFFFFFFFFFFFFFFFF AND PUSH20 0xFFFFFFFFFFFFFFFFFFFFFFFFFFFFFFFFFFFFFFFF AND PUSH2 0x8FC PUSH1 0xB PUSH1 0xA SLOAD PUSH1 0x3 DUP2 LT PUSH2 0x165F JUMPI PUSH2 0x165E PUSH2 0x2548 JUMP JUMPDEST JUMPDEST ADD SLOAD SWAP1 DUP2 ISZERO MUL SWAP1 PUSH1 0x40 MLOAD PUSH1 0x0 PUSH1 0x40 MLOAD DUP1 DUP4 SUB DUP2 DUP6 DUP9 DUP9 CALL SWAP4 POP POP POP POP ISZERO DUP1 ISZERO PUSH2 0x168C JUMPI RETURNDATASIZE PUSH1 0x0 DUP1 RETURNDATACOPY RETURNDATASIZE PUSH1 0x0 REVERT JUMPDEST POP PUSH1 0xB PUSH1 0xA SLOAD PUSH1 0x3 DUP2 LT PUSH2 0x16A3 JUMPI PUSH2 0x16A2 PUSH2 0x2548 JUMP JUMPDEST JUMPDEST ADD SLOAD PUSH1 0x1A PUSH1 0x0 DUP1 PUSH1 0x0 SWAP1 SLOAD SWAP1 PUSH2 0x100 EXP SWAP1 DIV PUSH20 0xFFFFFFFFFFFFFFFFFFFFFFFFFFFFFFFFFFFFFFFF AND PUSH20 0xFFFFFFFFFFFFFFFFFFFFFFFFFFFFFFFFFFFFFFFF AND PUSH20 0xFFFFFFFFFFFFFFFFFFFFFFFFFFFFFFFFFFFFFFFF AND DUP2 MSTORE PUSH1 0x20 ADD SWAP1 DUP2 MSTORE PUSH1 0x20 ADD PUSH1 0x0 KECCAK256 PUSH1 0x0 DUP3 DUP3 SLOAD PUSH2 0x1714 SWAP2 SWAP1 PUSH2 0x2612 JUMP JUMPDEST SWAP3 POP POP DUP2 SWAP1 SSTORE POP PUSH1 0xB PUSH1 0xA SLOAD PUSH1 0x3 DUP2 LT PUSH2 0x1731 JUMPI PUSH2 0x1730 PUSH2 0x2548 JUMP JUMPDEST JUMPDEST ADD SLOAD PUSH1 0xF PUSH1 0x0 DUP3 DUP3 SLOAD PUSH2 0x1744 SWAP2 SWAP1 PUSH2 0x2612 JUMP JUMPDEST SWAP3 POP POP DUP2 SWAP1 SSTORE POP PUSH1 0xB PUSH1 0xA SLOAD PUSH1 0x3 DUP2 LT PUSH2 0x1761 JUMPI PUSH2 0x1760 PUSH2 0x2548 JUMP JUMPDEST JUMPDEST ADD SLOAD PUSH1 0x6 PUSH1 0x0 DUP3 DUP3 SLOAD PUSH2 0x1774 SWAP2 SWAP1 PUSH2 0x275E JUMP JUMPDEST SWAP3 POP POP DUP2 SWAP1 SSTORE POP PUSH1 0x0 PUSH1 0x1 PUSH1 0xA SLOAD EQ PUSH2 0x17C2 JUMPI PUSH1 0x40 MLOAD DUP1 PUSH1 0x40 ADD PUSH1 0x40 MSTORE DUP1 PUSH1 0x1B DUP2 MSTORE PUSH1 0x20 ADD PUSH32 0x546869726420696E7374616C6C6D656E74206469736275727365640000000000 DUP2 MSTORE POP PUSH2 0x17F9 JUMP JUMPDEST PUSH1 0x40 MLOAD DUP1 PUSH1 0x40 ADD PUSH1 0x40 MSTORE DUP1 PUSH1 0x1C DUP2 MSTORE PUSH1 0x20 ADD PUSH32 0x5365636F6E6420696E7374616C6C6D656E742064697362757273656400000000 DUP2 MSTORE POP JUMPDEST SWAP1 POP PUSH2 0x1803 PUSH2 0xCF9 JUMP JUMPDEST PUSH20 0xFFFFFFFFFFFFFFFFFFFFFFFFFFFFFFFFFFFFFFFF AND PUSH32 0xC305C1562B0F741D2930CEB8C5957E71966C56489D23E0A04BC12B608842A77C PUSH1 0xB PUSH1 0xA SLOAD PUSH1 0x3 DUP2 LT PUSH2 0x1850 JUMPI PUSH2 0x184F PUSH2 0x2548 JUMP JUMPDEST JUMPDEST ADD SLOAD DUP4 TIMESTAMP PUSH1 0x40 MLOAD PUSH2 0x1863 SWAP4 SWAP3 SWAP2 SWAP1 PUSH2 0x2646 JUMP JUMPDEST PUSH1 0x40 MLOAD DUP1 SWAP2 SUB SWAP1 LOG2 PUSH1 0xA PUSH1 0x0 DUP2 SLOAD DUP1 SWAP3 SWAP2 SWAP1 PUSH2 0x187E SWAP1 PUSH2 0x2684 JUMP JUMPDEST SWAP2 SWAP1 POP SSTORE POP PUSH1 0x3 PUSH1 0xA SLOAD SUB PUSH2 0x18FE JUMPI PUSH1 0x0 PUSH1 0x10 PUSH1 0x0 PUSH2 0x100 EXP DUP2 SLOAD DUP2 PUSH1 0xFF MUL NOT AND SWAP1 DUP4 ISZERO ISZERO MUL OR SWAP1 SSTORE POP PUSH2 0x18B0 PUSH2 0xCF9 JUMP JUMPDEST PUSH20 0xFFFFFFFFFFFFFFFFFFFFFFFFFFFFFFFFFFFFFFFF AND PUSH32 0x153BB2862AC44FFD30D682BCDBF59DA13D2FFB1E710DC035699DD58C7A49FA58 TIMESTAMP PUSH1 0x40 MLOAD PUSH2 0x18F5 SWAP2 SWAP1 PUSH2 0x2880 JUMP JUMPDEST PUSH1 0x40 MLOAD DUP1 SWAP2 SUB SWAP1 LOG2 JUMPDEST PUSH1 0x15 PUSH1 0x0 DUP2 SLOAD DUP1 SWAP3 SWAP2 SWAP1 PUSH2 0x1911 SWAP1 PUSH2 0x2684 JUMP JUMPDEST SWAP2 SWAP1 POP SSTORE POP PUSH1 0x0 PUSH1 0x16 PUSH1 0x0 PUSH2 0x100 EXP DUP2 SLOAD DUP2 PUSH1 0xFF MUL NOT AND SWAP1 DUP4 ISZERO ISZERO MUL OR SWAP1 SSTORE POP POP PUSH2 0x1976 JUMP JUMPDEST PUSH2 0x1975 PUSH1 0x40 MLOAD DUP1 PUSH1 0x40 ADD PUSH1 0x40 MSTORE DUP1 PUSH1 0x11 DUP2 MSTORE PUSH1 0x20 ADD PUSH32 0x4C61636B206F66206D616A6F726974792E000000000000000000000000000000 DUP2 MSTORE POP PUSH2 0x96A JUMP JUMPDEST JUMPDEST JUMPDEST POP POP JUMPDEST JUMP JUMPDEST PUSH1 0x16 PUSH1 0x0 SWAP1 SLOAD SWAP1 PUSH2 0x100 EXP SWAP1 DIV PUSH1 0xFF AND DUP2 JUMP JUMPDEST PUSH1 0x11 DUP3 PUSH1 0x2 DUP2 LT PUSH2 0x199F JUMPI PUSH1 0x0 DUP1 REVERT JUMPDEST PUSH1 0x2 MUL ADD DUP2 PUSH1 0x2 DUP2 LT PUSH2 0x19B1 JUMPI PUSH1 0x0 DUP1 REVERT JUMPDEST ADD PUSH1 0x0 SWAP2 POP SWAP2 POP POP SLOAD DUP2 JUMP JUMPDEST PUSH1 0x10 PUSH1 0x0 SWAP1 SLOAD SWAP1 PUSH2 0x100 EXP SWAP1 DIV PUSH1 0xFF AND PUSH2 0x1A0C JUMPI PUSH1 0x40 MLOAD PUSH32 0x8C379A000000000000000000000000000000000000000000000000000000000 DUP2 MSTORE PUSH1 0x4 ADD PUSH2 0x1A03 SWAP1 PUSH2 0x23E4 JUMP JUMPDEST PUSH1 0x40 MLOAD DUP1 SWAP2 SUB SWAP1 REVERT JUMPDEST PUSH1 0x10 PUSH1 0x1 SWAP1 SLOAD SWAP1 PUSH2 0x100 EXP SWAP1 DIV PUSH1 0xFF AND ISZERO PUSH2 0x1A5C JUMPI PUSH1 0x40 MLOAD PUSH32 0x8C379A000000000000000000000000000000000000000000000000000000000 DUP2 MSTORE PUSH1 0x4 ADD PUSH2 0x1A53 SWAP1 PUSH2 0x2A7E JUMP JUMPDEST PUSH1 0x40 MLOAD DUP1 SWAP2 SUB SWAP1 REVERT JUMPDEST PUSH1 0x8 SLOAD TIMESTAMP GT ISZERO PUSH2 0x1AA1 JUMPI PUSH1 0x40 MLOAD PUSH32 0x8C379A000000000000000000000000000000000000000000000000000000000 DUP2 MSTORE PUSH1 0x4 ADD PUSH2 0x1A98 SWAP1 PUSH2 0x2AEA JUMP JUMPDEST PUSH1 0x40 MLOAD DUP1 SWAP2 SUB SWAP1 REVERT JUMPDEST PUSH1 0x3 SLOAD PUSH1 0x6 SLOAD CALLVALUE PUSH2 0x1AB2 SWAP2 SWAP1 PUSH2 0x2612 JUMP JUMPDEST GT ISZERO PUSH2 0x1AF3 JUMPI PUSH1 0x40 MLOAD PUSH32 0x8C379A000000000000000000000000000000000000000000000000000000000 DUP2 MSTORE PUSH1 0x4 ADD PUSH2 0x1AEA SWAP1 PUSH2 0x2B56 JUMP JUMPDEST PUSH1 0x40 MLOAD DUP1 SWAP2 SUB SWAP1 REVERT JUMPDEST PUSH1 0x0 CALLVALUE GT PUSH2 0x1B36 JUMPI PUSH1 0x40 MLOAD PUSH32 0x8C379A000000000000000000000000000000000000000000000000000000000 DUP2 MSTORE PUSH1 0x4 ADD PUSH2 0x1B2D SWAP1 PUSH2 0x2BE8 JUMP JUMPDEST PUSH1 0x40 MLOAD DUP1 SWAP2 SUB SWAP1 REVERT JUMPDEST PUSH1 0x0 PUSH1 0x19 PUSH1 0x0 CALLER PUSH20 0xFFFFFFFFFFFFFFFFFFFFFFFFFFFFFFFFFFFFFFFF AND PUSH20 0xFFFFFFFFFFFFFFFFFFFFFFFFFFFFFFFFFFFFFFFF AND DUP2 MSTORE PUSH1 0x20 ADD SWAP1 DUP2 MSTORE PUSH1 0x20 ADD PUSH1 0x0 KECCAK256 SLOAD SUB PUSH2 0x1C57 JUMPI PUSH1 0x18 PUSH1 0x0 DUP1 PUSH1 0x0 SWAP1 SLOAD SWAP1 PUSH2 0x100 EXP SWAP1 DIV PUSH20 0xFFFFFFFFFFFFFFFFFFFFFFFFFFFFFFFFFFFFFFFF AND PUSH20 0xFFFFFFFFFFFFFFFFFFFFFFFFFFFFFFFFFFFFFFFF AND PUSH20 0xFFFFFFFFFFFFFFFFFFFFFFFFFFFFFFFFFFFFFFFF AND DUP2 MSTORE PUSH1 0x20 ADD SWAP1 DUP2 MSTORE PUSH1 0x20 ADD PUSH1 0x0 KECCAK256 CALLER SWAP1 DUP1 PUSH1 0x1 DUP2 SLOAD ADD DUP1 DUP3 SSTORE DUP1 SWAP2 POP POP PUSH1 0x1 SWAP1 SUB SWAP1 PUSH1 0x0 MSTORE PUSH1 0x20 PUSH1 0x0 KECCAK256 ADD PUSH1 0x0 SWAP1 SWAP2 SWAP1 SWAP2 SWAP1 SWAP2 PUSH2 0x100 EXP DUP2 SLOAD DUP2 PUSH20 0xFFFFFFFFFFFFFFFFFFFFFFFFFFFFFFFFFFFFFFFF MUL NOT AND SWAP1 DUP4 PUSH20 0xFFFFFFFFFFFFFFFFFFFFFFFFFFFFFFFFFFFFFFFF AND MUL OR SWAP1 SSTORE POP PUSH1 0xE PUSH1 0x0 DUP2 SLOAD DUP1 SWAP3 SWAP2 SWAP1 PUSH2 0x1C51 SWAP1 PUSH2 0x2684 JUMP JUMPDEST SWAP2 SWAP1 POP SSTORE POP JUMPDEST CALLVALUE PUSH1 0x19 PUSH1 0x0 CALLER PUSH20 0xFFFFFFFFFFFFFFFFFFFFFFFFFFFFFFFFFFFFFFFF AND PUSH20 0xFFFFFFFFFFFFFFFFFFFFFFFFFFFFFFFFFFFFFFFF AND DUP2 MSTORE PUSH1 0x20 ADD SWAP1 DUP2 MSTORE PUSH1 0x20 ADD PUSH1 0x0 KECCAK256 PUSH1 0x0 DUP3 DUP3 SLOAD PUSH2 0x1CA6 SWAP2 SWAP1 PUSH2 0x2612 JUMP JUMPDEST SWAP3 POP POP DUP2 SWAP1 SSTORE POP CALLVALUE PUSH1 0x6 PUSH1 0x0 DUP3 DUP3 SLOAD PUSH2 0x1CBF SWAP2 SWAP1 PUSH2 0x2612 JUMP JUMPDEST SWAP3 POP POP DUP2 SWAP1 SSTORE POP PUSH1 0x3 SLOAD PUSH1 0x6 SLOAD SUB PUSH2 0x1CED JUMPI PUSH1 0x1 PUSH1 0x10 PUSH1 0x1 PUSH2 0x100 EXP DUP2 SLOAD DUP2 PUSH1 0xFF MUL NOT AND SWAP1 DUP4 ISZERO ISZERO MUL OR SWAP1 SSTORE POP JUMPDEST CALLER PUSH20 0xFFFFFFFFFFFFFFFFFFFFFFFFFFFFFFFFFFFFFFFF AND PUSH32 0xD51536B687CAF52AC0A4F7008C1FFECC1B0D746F5EF64803892F3CEF5F45D460 CALLVALUE TIMESTAMP PUSH1 0x40 MLOAD PUSH2 0x1D35 SWAP3 SWAP2 SWAP1 PUSH2 0x2C08 JUMP JUMPDEST PUSH1 0x40 MLOAD DUP1 SWAP2 SUB SWAP1 LOG2 JUMP JUMPDEST PUSH1 0x7 DUP1 SLOAD PUSH2 0x1D4C SWAP1 PUSH2 0x28DD JUMP JUMPDEST DUP1 PUSH1 0x1F ADD PUSH1 0x20 DUP1 SWAP2 DIV MUL PUSH1 0x20 ADD PUSH1 0x40 MLOAD SWAP1 DUP2 ADD PUSH1 0x40 MSTORE DUP1 SWAP3 SWAP2 SWAP1 DUP2 DUP2 MSTORE PUSH1 0x20 ADD DUP3 DUP1 SLOAD PUSH2 0x1D78 SWAP1 PUSH2 0x28DD JUMP JUMPDEST DUP1 ISZERO PUSH2 0x1DC5 JUMPI DUP1 PUSH1 0x1F LT PUSH2 0x1D9A JUMPI PUSH2 0x100 DUP1 DUP4 SLOAD DIV MUL DUP4 MSTORE SWAP2 PUSH1 0x20 ADD SWAP2 PUSH2 0x1DC5 JUMP JUMPDEST DUP3 ADD SWAP2 SWAP1 PUSH1 0x0 MSTORE PUSH1 0x20 PUSH1 0x0 KECCAK256 SWAP1 JUMPDEST DUP2 SLOAD DUP2 MSTORE SWAP1 PUSH1 0x1 ADD SWAP1 PUSH1 0x20 ADD DUP1 DUP4 GT PUSH2 0x1DA8 JUMPI DUP3 SWAP1 SUB PUSH1 0x1F AND DUP3 ADD SWAP2 JUMPDEST POP POP POP POP POP DUP2 JUMP JUMPDEST PUSH1 0x5 DUP1 SLOAD PUSH2 0x1DDA SWAP1 PUSH2 0x28DD JUMP JUMPDEST DUP1 PUSH1 0x1F ADD PUSH1 0x20 DUP1 SWAP2 DIV MUL PUSH1 0x20 ADD PUSH1 0x40 MLOAD SWAP1 DUP2 ADD PUSH1 0x40 MSTORE DUP1 SWAP3 SWAP2 SWAP1 DUP2 DUP2 MSTORE PUSH1 0x20 ADD DUP3 DUP1 SLOAD PUSH2 0x1E06 SWAP1 PUSH2 0x28DD JUMP JUMPDEST DUP1 ISZERO PUSH2 0x1E53 JUMPI DUP1 PUSH1 0x1F LT PUSH2 0x1E28 JUMPI PUSH2 0x100 DUP1 DUP4 SLOAD DIV MUL DUP4 MSTORE SWAP2 PUSH1 0x20 ADD SWAP2 PUSH2 0x1E53 JUMP JUMPDEST DUP3 ADD SWAP2 SWAP1 PUSH1 0x0 MSTORE PUSH1 0x20 PUSH1 0x0 KECCAK256 SWAP1 JUMPDEST DUP2 SLOAD DUP2 MSTORE SWAP1 PUSH1 0x1 ADD SWAP1 PUSH1 0x20 ADD DUP1 DUP4 GT PUSH2 0x1E36 JUMPI DUP3 SWAP1 SUB PUSH1 0x1F AND DUP3 ADD SWAP2 JUMPDEST POP POP POP POP POP DUP2 JUMP JUMPDEST PUSH1 0x17 SLOAD DUP2 JUMP JUMPDEST PUSH2 0x1EF9 DUP3 DUP3 PUSH1 0x40 MLOAD PUSH1 0x24 ADD PUSH2 0x1E77 SWAP3 SWAP2 SWAP1 PUSH2 0x2C31 JUMP JUMPDEST PUSH1 0x40 MLOAD PUSH1 0x20 DUP2 DUP4 SUB SUB DUP2 MSTORE SWAP1 PUSH1 0x40 MSTORE PUSH32 0x4B5C427700000000000000000000000000000000000000000000000000000000 PUSH28 0xFFFFFFFFFFFFFFFFFFFFFFFFFFFFFFFFFFFFFFFFFFFFFFFFFFFFFFFF NOT AND PUSH1 0x20 DUP3 ADD DUP1 MLOAD PUSH28 0xFFFFFFFFFFFFFFFFFFFFFFFFFFFFFFFFFFFFFFFFFFFFFFFFFFFFFFFF DUP4 DUP2 DUP4 AND OR DUP4 MSTORE POP POP POP POP PUSH2 0x1EFD JUMP JUMPDEST POP POP JUMP JUMPDEST PUSH2 0x1F14 DUP2 PUSH2 0x1F0C PUSH2 0x1F17 PUSH2 0x1F38 JUMP JUMPDEST PUSH4 0xFFFFFFFF AND JUMP JUMPDEST POP JUMP JUMPDEST PUSH1 0x0 PUSH11 0x636F6E736F6C652E6C6F67 SWAP1 POP PUSH1 0x0 DUP1 DUP4 MLOAD PUSH1 0x20 DUP6 ADD DUP5 GAS STATICCALL POP POP POP JUMP JUMPDEST PUSH2 0x1F43 DUP2 SWAP1 POP SWAP2 SWAP1 POP JUMP JUMPDEST PUSH2 0x1F4B PUSH2 0x2C68 JUMP JUMPDEST JUMP JUMPDEST PUSH1 0x0 PUSH1 0x40 MLOAD SWAP1 POP SWAP1 JUMP JUMPDEST PUSH1 0x0 DUP1 REVERT JUMPDEST PUSH1 0x0 DUP1 REVERT JUMPDEST PUSH1 0x0 DUP2 SWAP1 POP SWAP2 SWAP1 POP JUMP JUMPDEST PUSH2 0x1F74 DUP2 PUSH2 0x1F61 JUMP JUMPDEST DUP2 EQ PUSH2 0x1F7F JUMPI PUSH1 0x0 DUP1 REVERT JUMPDEST POP JUMP JUMPDEST PUSH1 0x0 DUP2 CALLDATALOAD SWAP1 POP PUSH2 0x1F91 DUP2 PUSH2 0x1F6B JUMP JUMPDEST SWAP3 SWAP2 POP POP JUMP JUMPDEST PUSH1 0x0 PUSH1 0x20 DUP3 DUP5 SUB SLT ISZERO PUSH2 0x1FAD JUMPI PUSH2 0x1FAC PUSH2 0x1F57 JUMP JUMPDEST JUMPDEST PUSH1 0x0 PUSH2 0x1FBB DUP5 DUP3 DUP6 ADD PUSH2 0x1F82 JUMP JUMPDEST SWAP2 POP POP SWAP3 SWAP2 POP POP JUMP JUMPDEST PUSH2 0x1FCD DUP2 PUSH2 0x1F61 JUMP JUMPDEST DUP3 MSTORE POP POP JUMP JUMPDEST PUSH1 0x0 PUSH1 0x20 DUP3 ADD SWAP1 POP PUSH2 0x1FE8 PUSH1 0x0 DUP4 ADD DUP5 PUSH2 0x1FC4 JUMP JUMPDEST SWAP3 SWAP2 POP POP JUMP JUMPDEST PUSH1 0x0 DUP2 ISZERO ISZERO SWAP1 POP SWAP2 SWAP1 POP JUMP JUMPDEST PUSH2 0x2003 DUP2 PUSH2 0x1FEE JUMP JUMPDEST DUP3 MSTORE POP POP JUMP JUMPDEST PUSH1 0x0 PUSH1 0x20 DUP3 ADD SWAP1 POP PUSH2 0x201E PUSH1 0x0 DUP4 ADD DUP5 PUSH2 0x1FFA JUMP JUMPDEST SWAP3 SWAP2 POP POP JUMP JUMPDEST PUSH1 0x0 DUP1 REVERT JUMPDEST PUSH1 0x0 DUP1 REVERT JUMPDEST PUSH1 0x0 PUSH1 0x1F NOT PUSH1 0x1F DUP4 ADD AND SWAP1 POP SWAP2 SWAP1 POP JUMP JUMPDEST PUSH32 0x4E487B7100000000000000000000000000000000000000000000000000000000 PUSH1 0x0 MSTORE PUSH1 0x41 PUSH1 0x4 MSTORE PUSH1 0x24 PUSH1 0x0 REVERT JUMPDEST PUSH2 0x2077 DUP3 PUSH2 0x202E JUMP JUMPDEST DUP2 ADD DUP2 DUP2 LT PUSH8 0xFFFFFFFFFFFFFFFF DUP3 GT OR ISZERO PUSH2 0x2096 JUMPI PUSH2 0x2095 PUSH2 0x203F JUMP JUMPDEST JUMPDEST DUP1 PUSH1 0x40 MSTORE POP POP POP JUMP JUMPDEST PUSH1 0x0 PUSH2 0x20A9 PUSH2 0x1F4D JUMP JUMPDEST SWAP1 POP PUSH2 0x20B5 DUP3 DUP3 PUSH2 0x206E JUMP JUMPDEST SWAP2 SWAP1 POP JUMP JUMPDEST PUSH1 0x0 PUSH8 0xFFFFFFFFFFFFFFFF DUP3 GT ISZERO PUSH2 0x20D5 JUMPI PUSH2 0x20D4 PUSH2 0x203F JUMP JUMPDEST JUMPDEST PUSH2 0x20DE DUP3 PUSH2 0x202E JUMP JUMPDEST SWAP1 POP PUSH1 0x20 DUP2 ADD SWAP1 POP SWAP2 SWAP1 POP JUMP JUMPDEST DUP3 DUP2 DUP4 CALLDATACOPY PUSH1 0x0 DUP4 DUP4 ADD MSTORE POP POP POP JUMP JUMPDEST PUSH1 0x0 PUSH2 0x210D PUSH2 0x2108 DUP5 PUSH2 0x20BA JUMP JUMPDEST PUSH2 0x209F JUMP JUMPDEST SWAP1 POP DUP3 DUP2 MSTORE PUSH1 0x20 DUP2 ADD DUP5 DUP5 DUP5 ADD GT ISZERO PUSH2 0x2129 JUMPI PUSH2 0x2128 PUSH2 0x2029 JUMP JUMPDEST JUMPDEST PUSH2 0x2134 DUP5 DUP3 DUP6 PUSH2 0x20EB JUMP JUMPDEST POP SWAP4 SWAP3 POP POP POP JUMP JUMPDEST PUSH1 0x0 DUP3 PUSH1 0x1F DUP4 ADD SLT PUSH2 0x2151 JUMPI PUSH2 0x2150 PUSH2 0x2024 JUMP JUMPDEST JUMPDEST DUP2 CALLDATALOAD PUSH2 0x2161 DUP5 DUP3 PUSH1 0x20 DUP7 ADD PUSH2 0x20FA JUMP JUMPDEST SWAP2 POP POP SWAP3 SWAP2 POP POP JUMP JUMPDEST PUSH1 0x0 PUSH1 0x20 DUP3 DUP5 SUB SLT ISZERO PUSH2 0x2180 JUMPI PUSH2 0x217F PUSH2 0x1F57 JUMP JUMPDEST JUMPDEST PUSH1 0x0 DUP3 ADD CALLDATALOAD PUSH8 0xFFFFFFFFFFFFFFFF DUP2 GT ISZERO PUSH2 0x219E JUMPI PUSH2 0x219D PUSH2 0x1F5C JUMP JUMPDEST JUMPDEST PUSH2 0x21AA DUP5 DUP3 DUP6 ADD PUSH2 0x213C JUMP JUMPDEST SWAP2 POP POP SWAP3 SWAP2 POP POP JUMP JUMPDEST PUSH1 0x0 PUSH20 0xFFFFFFFFFFFFFFFFFFFFFFFFFFFFFFFFFFFFFFFF DUP3 AND SWAP1 POP SWAP2 SWAP1 POP JUMP JUMPDEST PUSH1 0x0 PUSH2 0x21DE DUP3 PUSH2 0x21B3 JUMP JUMPDEST SWAP1 POP SWAP2 SWAP1 POP JUMP JUMPDEST PUSH2 0x21EE DUP2 PUSH2 0x21D3 JUMP JUMPDEST DUP3 MSTORE POP POP JUMP JUMPDEST PUSH1 0x0 PUSH1 0x20 DUP3 ADD SWAP1 POP PUSH2 0x2209 PUSH1 0x0 DUP4 ADD DUP5 PUSH2 0x21E5 JUMP JUMPDEST SWAP3 SWAP2 POP POP JUMP JUMPDEST PUSH1 0x0 DUP2 MLOAD SWAP1 POP SWAP2 SWAP1 POP JUMP JUMPDEST PUSH1 0x0 DUP3 DUP3 MSTORE PUSH1 0x20 DUP3 ADD SWAP1 POP SWAP3 SWAP2 POP POP JUMP JUMPDEST PUSH1 0x0 JUMPDEST DUP4 DUP2 LT ISZERO PUSH2 0x2249 JUMPI DUP1 DUP3 ADD MLOAD DUP2 DUP5 ADD MSTORE PUSH1 0x20 DUP2 ADD SWAP1 POP PUSH2 0x222E JUMP JUMPDEST PUSH1 0x0 DUP5 DUP5 ADD MSTORE POP POP POP POP JUMP JUMPDEST PUSH1 0x0 PUSH2 0x2260 DUP3 PUSH2 0x220F JUMP JUMPDEST PUSH2 0x226A DUP2 DUP6 PUSH2 0x221A JUMP JUMPDEST SWAP4 POP PUSH2 0x227A DUP2 DUP6 PUSH1 0x20 DUP7 ADD PUSH2 0x222B JUMP JUMPDEST PUSH2 0x2283 DUP2 PUSH2 0x202E JUMP JUMPDEST DUP5 ADD SWAP2 POP POP SWAP3 SWAP2 POP POP JUMP JUMPDEST PUSH1 0x0 PUSH1 0x20 DUP3 ADD SWAP1 POP DUP2 DUP2 SUB PUSH1 0x0 DUP4 ADD MSTORE PUSH2 0x22A8 DUP2 DUP5 PUSH2 0x2255 JUMP JUMPDEST SWAP1 POP SWAP3 SWAP2 POP POP JUMP JUMPDEST PUSH2 0x22B9 DUP2 PUSH2 0x21D3 JUMP JUMPDEST DUP2 EQ PUSH2 0x22C4 JUMPI PUSH1 0x0 DUP1 REVERT JUMPDEST POP JUMP JUMPDEST PUSH1 0x0 DUP2 CALLDATALOAD SWAP1 POP PUSH2 0x22D6 DUP2 PUSH2 0x22B0 JUMP JUMPDEST SWAP3 SWAP2 POP POP JUMP JUMPDEST PUSH1 0x0 DUP1 PUSH1 0x40 DUP4 DUP6 SUB SLT ISZERO PUSH2 0x22F3 JUMPI PUSH2 0x22F2 PUSH2 0x1F57 JUMP JUMPDEST JUMPDEST PUSH1 0x0 PUSH2 0x2301 DUP6 DUP3 DUP7 ADD PUSH2 0x22C7 JUMP JUMPDEST SWAP3 POP POP PUSH1 0x20 PUSH2 0x2312 DUP6 DUP3 DUP7 ADD PUSH2 0x1F82 JUMP JUMPDEST SWAP2 POP POP SWAP3 POP SWAP3 SWAP1 POP JUMP JUMPDEST PUSH1 0x0 PUSH2 0x2327 DUP3 PUSH2 0x21B3 JUMP JUMPDEST SWAP1 POP SWAP2 SWAP1 POP JUMP JUMPDEST PUSH2 0x2337 DUP2 PUSH2 0x231C JUMP JUMPDEST DUP3 MSTORE POP POP JUMP JUMPDEST PUSH1 0x0 PUSH1 0x20 DUP3 ADD SWAP1 POP PUSH2 0x2352 PUSH1 0x0 DUP4 ADD DUP5 PUSH2 0x232E JUMP JUMPDEST SWAP3 SWAP2 POP POP JUMP JUMPDEST PUSH1 0x0 DUP1 PUSH1 0x40 DUP4 DUP6 SUB SLT ISZERO PUSH2 0x236F JUMPI PUSH2 0x236E PUSH2 0x1F57 JUMP JUMPDEST JUMPDEST PUSH1 0x0 PUSH2 0x237D DUP6 DUP3 DUP7 ADD PUSH2 0x1F82 JUMP JUMPDEST SWAP3 POP POP PUSH1 0x20 PUSH2 0x238E DUP6 DUP3 DUP7 ADD PUSH2 0x1F82 JUMP JUMPDEST SWAP2 POP POP SWAP3 POP SWAP3 SWAP1 POP JUMP JUMPDEST PUSH32 0x43616D706169676E20616C726561647920636C6F736564000000000000000000 PUSH1 0x0 DUP3 ADD MSTORE POP JUMP JUMPDEST PUSH1 0x0 PUSH2 0x23CE PUSH1 0x17 DUP4 PUSH2 0x221A JUMP JUMPDEST SWAP2 POP PUSH2 0x23D9 DUP3 PUSH2 0x2398 JUMP JUMPDEST PUSH1 0x20 DUP3 ADD SWAP1 POP SWAP2 SWAP1 POP JUMP JUMPDEST PUSH1 0x0 PUSH1 0x20 DUP3 ADD SWAP1 POP DUP2 DUP2 SUB PUSH1 0x0 DUP4 ADD MSTORE PUSH2 0x23FD DUP2 PUSH2 0x23C1 JUMP JUMPDEST SWAP1 POP SWAP2 SWAP1 POP JUMP JUMPDEST PUSH32 0x4F776E65722063616E277420766F746500000000000000000000000000000000 PUSH1 0x0 DUP3 ADD MSTORE POP JUMP JUMPDEST PUSH1 0x0 PUSH2 0x243A PUSH1 0x10 DUP4 PUSH2 0x221A JUMP JUMPDEST SWAP2 POP PUSH2 0x2445 DUP3 PUSH2 0x2404 JUMP JUMPDEST PUSH1 0x20 DUP3 ADD SWAP1 POP SWAP2 SWAP1 POP JUMP JUMPDEST PUSH1 0x0 PUSH1 0x20 DUP3 ADD SWAP1 POP DUP2 DUP2 SUB PUSH1 0x0 DUP4 ADD MSTORE PUSH2 0x2469 DUP2 PUSH2 0x242D JUMP JUMPDEST SWAP1 POP SWAP2 SWAP1 POP JUMP JUMPDEST PUSH32 0x4175646974207265706F7274206E6F7420796574207375626D69747465640000 PUSH1 0x0 DUP3 ADD MSTORE POP JUMP JUMPDEST PUSH1 0x0 PUSH2 0x24A6 PUSH1 0x1E DUP4 PUSH2 0x221A JUMP JUMPDEST SWAP2 POP PUSH2 0x24B1 DUP3 PUSH2 0x2470 JUMP JUMPDEST PUSH1 0x20 DUP3 ADD SWAP1 POP SWAP2 SWAP1 POP JUMP JUMPDEST PUSH1 0x0 PUSH1 0x20 DUP3 ADD SWAP1 POP DUP2 DUP2 SUB PUSH1 0x0 DUP4 ADD MSTORE PUSH2 0x24D5 DUP2 PUSH2 0x2499 JUMP JUMPDEST SWAP1 POP SWAP2 SWAP1 POP JUMP JUMPDEST PUSH32 0x596F7520617265206E6F7420616E20617070726F766572000000000000000000 PUSH1 0x0 DUP3 ADD MSTORE POP JUMP JUMPDEST PUSH1 0x0 PUSH2 0x2512 PUSH1 0x17 DUP4 PUSH2 0x221A JUMP JUMPDEST SWAP2 POP PUSH2 0x251D DUP3 PUSH2 0x24DC JUMP JUMPDEST PUSH1 0x20 DUP3 ADD SWAP1 POP SWAP2 SWAP1 POP JUMP JUMPDEST PUSH1 0x0 PUSH1 0x20 DUP3 ADD SWAP1 POP DUP2 DUP2 SUB PUSH1 0x0 DUP4 ADD MSTORE PUSH2 0x2541 DUP2 PUSH2 0x2505 JUMP JUMPDEST SWAP1 POP SWAP2 SWAP1 POP JUMP JUMPDEST PUSH32 0x4E487B7100000000000000000000000000000000000000000000000000000000 PUSH1 0x0 MSTORE PUSH1 0x32 PUSH1 0x4 MSTORE PUSH1 0x24 PUSH1 0x0 REVERT JUMPDEST PUSH32 0x596F75206861766520616C726561647920766F74656400000000000000000000 PUSH1 0x0 DUP3 ADD MSTORE POP JUMP JUMPDEST PUSH1 0x0 PUSH2 0x25AD PUSH1 0x16 DUP4 PUSH2 0x221A JUMP JUMPDEST SWAP2 POP PUSH2 0x25B8 DUP3 PUSH2 0x2577 JUMP JUMPDEST PUSH1 0x20 DUP3 ADD SWAP1 POP SWAP2 SWAP1 POP JUMP JUMPDEST PUSH1 0x0 PUSH1 0x20 DUP3 ADD SWAP1 POP DUP2 DUP2 SUB PUSH1 0x0 DUP4 ADD MSTORE PUSH2 0x25DC DUP2 PUSH2 0x25A0 JUMP JUMPDEST SWAP1 POP SWAP2 SWAP1 POP JUMP JUMPDEST PUSH32 0x4E487B7100000000000000000000000000000000000000000000000000000000 PUSH1 0x0 MSTORE PUSH1 0x11 PUSH1 0x4 MSTORE PUSH1 0x24 PUSH1 0x0 REVERT JUMPDEST PUSH1 0x0 PUSH2 0x261D DUP3 PUSH2 0x1F61 JUMP JUMPDEST SWAP2 POP PUSH2 0x2628 DUP4 PUSH2 0x1F61 JUMP JUMPDEST SWAP3 POP DUP3 DUP3 ADD SWAP1 POP DUP1 DUP3 GT ISZERO PUSH2 0x2640 JUMPI PUSH2 0x263F PUSH2 0x25E3 JUMP JUMPDEST JUMPDEST SWAP3 SWAP2 POP POP JUMP JUMPDEST PUSH1 0x0 PUSH1 0x60 DUP3 ADD SWAP1 POP PUSH2 0x265B PUSH1 0x0 DUP4 ADD DUP7 PUSH2 0x1FC4 JUMP JUMPDEST DUP2 DUP2 SUB PUSH1 0x20 DUP4 ADD MSTORE PUSH2 0x266D DUP2 DUP6 PUSH2 0x2255 JUMP JUMPDEST SWAP1 POP PUSH2 0x267C PUSH1 0x40 DUP4 ADD DUP5 PUSH2 0x1FC4 JUMP JUMPDEST SWAP5 SWAP4 POP POP POP POP JUMP JUMPDEST PUSH1 0x0 PUSH2 0x268F DUP3 PUSH2 0x1F61 JUMP JUMPDEST SWAP2 POP PUSH32 0xFFFFFFFFFFFFFFFFFFFFFFFFFFFFFFFFFFFFFFFFFFFFFFFFFFFFFFFFFFFFFFFF DUP3 SUB PUSH2 0x26C1 JUMPI PUSH2 0x26C0 PUSH2 0x25E3 JUMP JUMPDEST JUMPDEST PUSH1 0x1 DUP3 ADD SWAP1 POP SWAP2 SWAP1 POP JUMP JUMPDEST PUSH32 0x4F6E6C79206F776E65722063616E2063616C6C20746869732066756E6374696F PUSH1 0x0 DUP3 ADD MSTORE PUSH32 0x6E00000000000000000000000000000000000000000000000000000000000000 PUSH1 0x20 DUP3 ADD MSTORE POP JUMP JUMPDEST PUSH1 0x0 PUSH2 0x2728 PUSH1 0x21 DUP4 PUSH2 0x221A JUMP JUMPDEST SWAP2 POP PUSH2 0x2733 DUP3 PUSH2 0x26CC JUMP JUMPDEST PUSH1 0x40 DUP3 ADD SWAP1 POP SWAP2 SWAP1 POP JUMP JUMPDEST PUSH1 0x0 PUSH1 0x20 DUP3 ADD SWAP1 POP DUP2 DUP2 SUB PUSH1 0x0 DUP4 ADD MSTORE PUSH2 0x2757 DUP2 PUSH2 0x271B JUMP JUMPDEST SWAP1 POP SWAP2 SWAP1 POP JUMP JUMPDEST PUSH1 0x0 PUSH2 0x2769 DUP3 PUSH2 0x1F61 JUMP JUMPDEST SWAP2 POP PUSH2 0x2774 DUP4 PUSH2 0x1F61 JUMP JUMPDEST SWAP3 POP DUP3 DUP3 SUB SWAP1 POP DUP2 DUP2 GT ISZERO PUSH2 0x278C JUMPI PUSH2 0x278B PUSH2 0x25E3 JUMP JUMPDEST JUMPDEST SWAP3 SWAP2 POP POP JUMP JUMPDEST PUSH1 0x0 PUSH2 0x279D DUP3 PUSH2 0x1F61 JUMP JUMPDEST SWAP2 POP PUSH2 0x27A8 DUP4 PUSH2 0x1F61 JUMP JUMPDEST SWAP3 POP DUP3 DUP3 MUL PUSH2 0x27B6 DUP2 PUSH2 0x1F61 JUMP JUMPDEST SWAP2 POP DUP3 DUP3 DIV DUP5 EQ DUP4 ISZERO OR PUSH2 0x27CD JUMPI PUSH2 0x27CC PUSH2 0x25E3 JUMP JUMPDEST JUMPDEST POP SWAP3 SWAP2 POP POP JUMP JUMPDEST PUSH32 0x4E487B7100000000000000000000000000000000000000000000000000000000 PUSH1 0x0 MSTORE PUSH1 0x12 PUSH1 0x4 MSTORE PUSH1 0x24 PUSH1 0x0 REVERT JUMPDEST PUSH1 0x0 PUSH2 0x280E DUP3 PUSH2 0x1F61 JUMP JUMPDEST SWAP2 POP PUSH2 0x2819 DUP4 PUSH2 0x1F61 JUMP JUMPDEST SWAP3 POP DUP3 PUSH2 0x2829 JUMPI PUSH2 0x2828 PUSH2 0x27D4 JUMP JUMPDEST JUMPDEST DUP3 DUP3 DIV SWAP1 POP SWAP3 SWAP2 POP POP JUMP JUMPDEST PUSH32 0x43616D706169676E20436C6F7365640000000000000000000000000000000000 PUSH1 0x0 DUP3 ADD MSTORE POP JUMP JUMPDEST PUSH1 0x0 PUSH2 0x286A PUSH1 0xF DUP4 PUSH2 0x221A JUMP JUMPDEST SWAP2 POP PUSH2 0x2875 DUP3 PUSH2 0x2834 JUMP JUMPDEST PUSH1 0x20 DUP3 ADD SWAP1 POP SWAP2 SWAP1 POP JUMP JUMPDEST PUSH1 0x0 PUSH1 0x40 DUP3 ADD SWAP1 POP DUP2 DUP2 SUB PUSH1 0x0 DUP4 ADD MSTORE PUSH2 0x2899 DUP2 PUSH2 0x285D JUMP JUMPDEST SWAP1 POP PUSH2 0x28A8 PUSH1 0x20 DUP4 ADD DUP5 PUSH2 0x1FC4 JUMP JUMPDEST SWAP3 SWAP2 POP POP JUMP JUMPDEST PUSH32 0x4E487B7100000000000000000000000000000000000000000000000000000000 PUSH1 0x0 MSTORE PUSH1 0x22 PUSH1 0x4 MSTORE PUSH1 0x24 PUSH1 0x0 REVERT JUMPDEST PUSH1 0x0 PUSH1 0x2 DUP3 DIV SWAP1 POP PUSH1 0x1 DUP3 AND DUP1 PUSH2 0x28F5 JUMPI PUSH1 0x7F DUP3 AND SWAP2 POP JUMPDEST PUSH1 0x20 DUP3 LT DUP2 SUB PUSH2 0x2908 JUMPI PUSH2 0x2907 PUSH2 0x28AE JUMP JUMPDEST JUMPDEST POP SWAP2 SWAP1 POP JUMP JUMPDEST PUSH1 0x0 PUSH1 0x40 DUP3 ADD SWAP1 POP DUP2 DUP2 SUB PUSH1 0x0 DUP4 ADD MSTORE PUSH2 0x2928 DUP2 DUP6 PUSH2 0x2255 JUMP JUMPDEST SWAP1 POP PUSH2 0x2937 PUSH1 0x20 DUP4 ADD DUP5 PUSH2 0x1FC4 JUMP JUMPDEST SWAP4 SWAP3 POP POP POP JUMP JUMPDEST PUSH32 0x446561646C696E65206E6F742079657420726561636865640000000000000000 PUSH1 0x0 DUP3 ADD MSTORE POP JUMP JUMPDEST PUSH1 0x0 PUSH2 0x2974 PUSH1 0x18 DUP4 PUSH2 0x221A JUMP JUMPDEST SWAP2 POP PUSH2 0x297F DUP3 PUSH2 0x293E JUMP JUMPDEST PUSH1 0x20 DUP3 ADD SWAP1 POP SWAP2 SWAP1 POP JUMP JUMPDEST PUSH1 0x0 PUSH1 0x20 DUP3 ADD SWAP1 POP DUP2 DUP2 SUB PUSH1 0x0 DUP4 ADD MSTORE PUSH2 0x29A3 DUP2 PUSH2 0x2967 JUMP JUMPDEST SWAP1 POP SWAP2 SWAP1 POP JUMP JUMPDEST PUSH32 0x466972737420696E7374616C6C6D656E74206469736275727365640000000000 PUSH1 0x0 DUP3 ADD MSTORE POP JUMP JUMPDEST PUSH1 0x0 PUSH2 0x29E0 PUSH1 0x1B DUP4 PUSH2 0x221A JUMP JUMPDEST SWAP2 POP PUSH2 0x29EB DUP3 PUSH2 0x29AA JUMP JUMPDEST PUSH1 0x20 DUP3 ADD SWAP1 POP SWAP2 SWAP1 POP JUMP JUMPDEST PUSH1 0x0 PUSH1 0x60 DUP3 ADD SWAP1 POP PUSH2 0x2A0B PUSH1 0x0 DUP4 ADD DUP6 PUSH2 0x1FC4 JUMP JUMPDEST DUP2 DUP2 SUB PUSH1 0x20 DUP4 ADD MSTORE PUSH2 0x2A1C DUP2 PUSH2 0x29D3 JUMP JUMPDEST SWAP1 POP PUSH2 0x2A2B PUSH1 0x40 DUP4 ADD DUP5 PUSH2 0x1FC4 JUMP JUMPDEST SWAP4 SWAP3 POP POP POP JUMP JUMPDEST PUSH32 0x54617267657420616C7265616479206163686965766564000000000000000000 PUSH1 0x0 DUP3 ADD MSTORE POP JUMP JUMPDEST PUSH1 0x0 PUSH2 0x2A68 PUSH1 0x17 DUP4 PUSH2 0x221A JUMP JUMPDEST SWAP2 POP PUSH2 0x2A73 DUP3 PUSH2 0x2A32 JUMP JUMPDEST PUSH1 0x20 DUP3 ADD SWAP1 POP SWAP2 SWAP1 POP JUMP JUMPDEST PUSH1 0x0 PUSH1 0x20 DUP3 ADD SWAP1 POP DUP2 DUP2 SUB PUSH1 0x0 DUP4 ADD MSTORE PUSH2 0x2A97 DUP2 PUSH2 0x2A5B JUMP JUMPDEST SWAP1 POP SWAP2 SWAP1 POP JUMP JUMPDEST PUSH32 0x446561646C696E65207265616368656400000000000000000000000000000000 PUSH1 0x0 DUP3 ADD MSTORE POP JUMP JUMPDEST PUSH1 0x0 PUSH2 0x2AD4 PUSH1 0x10 DUP4 PUSH2 0x221A JUMP JUMPDEST SWAP2 POP PUSH2 0x2ADF DUP3 PUSH2 0x2A9E JUMP JUMPDEST PUSH1 0x20 DUP3 ADD SWAP1 POP SWAP2 SWAP1 POP JUMP JUMPDEST PUSH1 0x0 PUSH1 0x20 DUP3 ADD SWAP1 POP DUP2 DUP2 SUB PUSH1 0x0 DUP4 ADD MSTORE PUSH2 0x2B03 DUP2 PUSH2 0x2AC7 JUMP JUMPDEST SWAP1 POP SWAP2 SWAP1 POP JUMP JUMPDEST PUSH32 0x43616E27742072656365697665206D6F7265207468616E207461726765740000 PUSH1 0x0 DUP3 ADD MSTORE POP JUMP JUMPDEST PUSH1 0x0 PUSH2 0x2B40 PUSH1 0x1E DUP4 PUSH2 0x221A JUMP JUMPDEST SWAP2 POP PUSH2 0x2B4B DUP3 PUSH2 0x2B0A JUMP JUMPDEST PUSH1 0x20 DUP3 ADD SWAP1 POP SWAP2 SWAP1 POP JUMP JUMPDEST PUSH1 0x0 PUSH1 0x20 DUP3 ADD SWAP1 POP DUP2 DUP2 SUB PUSH1 0x0 DUP4 ADD MSTORE PUSH2 0x2B6F DUP2 PUSH2 0x2B33 JUMP JUMPDEST SWAP1 POP SWAP2 SWAP1 POP JUMP JUMPDEST PUSH32 0x436F6E747269627574696F6E20616D6F756E74206D7573742062652067726561 PUSH1 0x0 DUP3 ADD MSTORE PUSH32 0x746572207468616E203000000000000000000000000000000000000000000000 PUSH1 0x20 DUP3 ADD MSTORE POP JUMP JUMPDEST PUSH1 0x0 PUSH2 0x2BD2 PUSH1 0x2A DUP4 PUSH2 0x221A JUMP JUMPDEST SWAP2 POP PUSH2 0x2BDD DUP3 PUSH2 0x2B76 JUMP JUMPDEST PUSH1 0x40 DUP3 ADD SWAP1 POP SWAP2 SWAP1 POP JUMP JUMPDEST PUSH1 0x0 PUSH1 0x20 DUP3 ADD SWAP1 POP DUP2 DUP2 SUB PUSH1 0x0 DUP4 ADD MSTORE PUSH2 0x2C01 DUP2 PUSH2 0x2BC5 JUMP JUMPDEST SWAP1 POP SWAP2 SWAP1 POP JUMP JUMPDEST PUSH1 0x0 PUSH1 0x40 DUP3 ADD SWAP1 POP PUSH2 0x2C1D PUSH1 0x0 DUP4 ADD DUP6 PUSH2 0x1FC4 JUMP JUMPDEST PUSH2 0x2C2A PUSH1 0x20 DUP4 ADD DUP5 PUSH2 0x1FC4 JUMP JUMPDEST SWAP4 SWAP3 POP POP POP JUMP JUMPDEST PUSH1 0x0 PUSH1 0x40 DUP3 ADD SWAP1 POP DUP2 DUP2 SUB PUSH1 0x0 DUP4 ADD MSTORE PUSH2 0x2C4B DUP2 DUP6 PUSH2 0x2255 JUMP JUMPDEST SWAP1 POP DUP2 DUP2 SUB PUSH1 0x20 DUP4 ADD MSTORE PUSH2 0x2C5F DUP2 DUP5 PUSH2 0x2255 JUMP JUMPDEST SWAP1 POP SWAP4 SWAP3 POP POP POP JUMP JUMPDEST PUSH32 0x4E487B7100000000000000000000000000000000000000000000000000000000 PUSH1 0x0 MSTORE PUSH1 0x51 PUSH1 0x4 MSTORE PUSH1 0x24 PUSH1 0x0 REVERT INVALID SLOAD PUSH9 0x69726420696E737461 PUSH13 0x6C6D656E7420766F7465207265 PUSH8 0x6973746572656453 PUSH6 0x636F6E642069 PUSH15 0x7374616C6C6D656E7420766F746520 PUSH19 0x6567697374657265642052652D696D62757273 PUSH6 0x6D656E742070 PUSH19 0x6F6365737320696E6974696174656454617267 PUSH6 0x74206E6F7420 PUSH2 0x6368 PUSH10 0x657665642074696C6C20 PUSH5 0x6561646C69 PUSH15 0x652EA264697066735822122053F786 0x1F 0xD DUP15 0xC9 0xAD SWAP13 TLOAD DUP9 PUSH30 0x5ED207FCE0B3B340D7FC44695487BACA24DDA97664736F6C634300081800 CALLER LOG2 PUSH5 0x6970667358 0x22 SLT KECCAK256 0x2B 0xE1 SWAP1 0xAE CALLER 0xCF PUSH6 0x5261115CC595 0xEC INVALID 0x4D SIGNEXTEND 0x26 PUSH12 0x3A7BDCDAFEF95660E77E1713 SAR PUSH5 0x736F6C6343 STOP ADDMOD XOR STOP CALLER "},"methodIdentifiers":{"createCampaign(string,string,uint256,string,string,string,uint256,uint256,uint256,uint256)":"18de5332","deployedCampaigns(uint256)":"339d50a5"}}}}}