{
  "_format": "hh-sol-artifact-1",
  "contractName": "Campaign",
  "sourceName": "contracts/Campaign.sol",
  "abi": [
    {
      "inputs": [
        {
          "internalType": "string",
          "name": "_title",
          "type": "string"
        },
        {
          "internalType": "string",
          "name": "_desc",
          "type": "string"
        },
        {
          "internalType": "uint256",
          "name": "_targetAmt",
          "type": "uint256"
        },
        {
          "internalType": "string",
          "name": "_imgURI",
          "type": "string"
        },
        {
          "internalType": "string",
          "name": "_category",
          "type": "string"
        },
        {
          "internalType": "string",
          "name": "_country",
          "type": "string"
        },
        {
          "internalType": "uint256",
          "name": "_deadline",
          "type": "uint256"
        },
        {
          "internalType": "address",
          "name": "_owner",
          "type": "address"
        },
        {
          "internalType": "uint256",
          "name": "_threshold",
          "type": "uint256"
        },
        {
          "internalType": "uint256",
          "name": "_n1",
          "type": "uint256"
        },
        {
          "internalType": "uint256",
          "name": "_n2",
          "type": "uint256"
        }
      ],
      "stateMutability": "nonpayable",
      "type": "constructor"
    },
    {
      "anonymous": false,
      "inputs": [
        {
          "indexed": true,
          "internalType": "address",
          "name": "owner",
          "type": "address"
        },
        {
          "indexed": false,
          "internalType": "string",
          "name": "message",
          "type": "string"
        },
        {
          "indexed": false,
          "internalType": "uint256",
          "name": "timestamp",
          "type": "uint256"
        }
      ],
      "name": "AuditReportSubmitted",
      "type": "event"
    },
    {
      "anonymous": false,
      "inputs": [
        {
          "indexed": true,
          "internalType": "address",
          "name": "campaign",
          "type": "address"
        },
        {
          "indexed": false,
          "internalType": "string",
          "name": "message",
          "type": "string"
        },
        {
          "indexed": false,
          "internalType": "uint256",
          "name": "timestamp",
          "type": "uint256"
        }
      ],
      "name": "CampaignClosed",
      "type": "event"
    },
    {
      "anonymous": false,
      "inputs": [
        {
          "indexed": true,
          "internalType": "address",
          "name": "contributor",
          "type": "address"
        },
        {
          "indexed": false,
          "internalType": "uint256",
          "name": "amount",
          "type": "uint256"
        },
        {
          "indexed": false,
          "internalType": "uint256",
          "name": "timestamp",
          "type": "uint256"
        }
      ],
      "name": "ContributionAdded",
      "type": "event"
    },
    {
      "anonymous": false,
      "inputs": [
        {
          "indexed": true,
          "internalType": "address",
          "name": "campaign",
          "type": "address"
        },
        {
          "indexed": false,
          "internalType": "uint256",
          "name": "amount",
          "type": "uint256"
        },
        {
          "indexed": false,
          "internalType": "string",
          "name": "message",
          "type": "string"
        },
        {
          "indexed": false,
          "internalType": "uint256",
          "name": "timestamp",
          "type": "uint256"
        }
      ],
      "name": "InstallmentDisbursed",
      "type": "event"
    },
    {
      "anonymous": false,
      "inputs": [
        {
          "indexed": true,
          "internalType": "address",
          "name": "voter",
          "type": "address"
        },
        {
          "indexed": false,
          "internalType": "uint256",
          "name": "voteIndex",
          "type": "uint256"
        },
        {
          "indexed": false,
          "internalType": "string",
          "name": "message",
          "type": "string"
        },
        {
          "indexed": false,
          "internalType": "uint256",
          "name": "timestamp",
          "type": "uint256"
        }
      ],
      "name": "VoteRegistered",
      "type": "event"
    },
    {
      "inputs": [],
      "name": "amtraised",
      "outputs": [
        {
          "internalType": "uint256",
          "name": "",
          "type": "uint256"
        }
      ],
      "stateMutability": "view",
      "type": "function"
    },
    {
      "inputs": [],
      "name": "auditReport",
      "outputs": [
        {
          "internalType": "bool",
          "name": "",
          "type": "bool"
        }
      ],
      "stateMutability": "view",
      "type": "function"
    },
    {
      "inputs": [],
      "name": "auditReportCount",
      "outputs": [
        {
          "internalType": "uint256",
          "name": "",
          "type": "uint256"
        }
      ],
      "stateMutability": "view",
      "type": "function"
    },
    {
      "inputs": [],
      "name": "auditReportSubmitted",
      "outputs": [],
      "stateMutability": "nonpayable",
      "type": "function"
    },
    {
      "inputs": [],
      "name": "category",
      "outputs": [
        {
          "internalType": "string",
          "name": "",
          "type": "string"
        }
      ],
      "stateMutability": "view",
      "type": "function"
    },
    {
      "inputs": [],
      "name": "contribute",
      "outputs": [],
      "stateMutability": "payable",
      "type": "function"
    },
    {
      "inputs": [
        {
          "internalType": "address",
          "name": "",
          "type": "address"
        },
        {
          "internalType": "uint256",
          "name": "",
          "type": "uint256"
        }
      ],
      "name": "contributors",
      "outputs": [
        {
          "internalType": "address",
          "name": "",
          "type": "address"
        }
      ],
      "stateMutability": "view",
      "type": "function"
    },
    {
      "inputs": [],
      "name": "contributorsCount",
      "outputs": [
        {
          "internalType": "uint256",
          "name": "",
          "type": "uint256"
        }
      ],
      "stateMutability": "view",
      "type": "function"
    },
    {
      "inputs": [],
      "name": "country",
      "outputs": [
        {
          "internalType": "string",
          "name": "",
          "type": "string"
        }
      ],
      "stateMutability": "view",
      "type": "function"
    },
    {
      "inputs": [],
      "name": "deadline",
      "outputs": [
        {
          "internalType": "uint256",
          "name": "",
          "type": "uint256"
        }
      ],
      "stateMutability": "view",
      "type": "function"
    },
    {
      "inputs": [],
      "name": "desc",
      "outputs": [
        {
          "internalType": "string",
          "name": "",
          "type": "string"
        }
      ],
      "stateMutability": "view",
      "type": "function"
    },
    {
      "inputs": [],
      "name": "disburse",
      "outputs": [],
      "stateMutability": "payable",
      "type": "function"
    },
    {
      "inputs": [],
      "name": "disbursed",
      "outputs": [
        {
          "internalType": "uint256",
          "name": "",
          "type": "uint256"
        }
      ],
      "stateMutability": "view",
      "type": "function"
    },
    {
      "inputs": [],
      "name": "getContractAddress",
      "outputs": [
        {
          "internalType": "address",
          "name": "",
          "type": "address"
        }
      ],
      "stateMutability": "view",
      "type": "function"
    },
    {
      "inputs": [],
      "name": "getContractBalance",
      "outputs": [
        {
          "internalType": "uint256",
          "name": "",
          "type": "uint256"
        }
      ],
      "stateMutability": "view",
      "type": "function"
    },
    {
      "inputs": [],
      "name": "getOwnerBalance",
      "outputs": [
        {
          "internalType": "uint256",
          "name": "",
          "type": "uint256"
        }
      ],
      "stateMutability": "view",
      "type": "function"
    },
    {
      "inputs": [],
      "name": "imgURI",
      "outputs": [
        {
          "internalType": "string",
          "name": "",
          "type": "string"
        }
      ],
      "stateMutability": "view",
      "type": "function"
    },
    {
      "inputs": [],
      "name": "isCampaignOpen",
      "outputs": [
        {
          "internalType": "bool",
          "name": "",
          "type": "bool"
        }
      ],
      "stateMutability": "view",
      "type": "function"
    },
    {
      "inputs": [],
      "name": "owner",
      "outputs": [
        {
          "internalType": "address payable",
          "name": "",
          "type": "address"
        }
      ],
      "stateMutability": "view",
      "type": "function"
    },
    {
      "inputs": [
        {
          "internalType": "string",
          "name": "message",
          "type": "string"
        }
      ],
      "name": "reimburse",
      "outputs": [],
      "stateMutability": "payable",
      "type": "function"
    },
    {
      "inputs": [],
      "name": "targetAchieved",
      "outputs": [
        {
          "internalType": "bool",
          "name": "",
          "type": "bool"
        }
      ],
      "stateMutability": "view",
      "type": "function"
    },
    {
      "inputs": [],
      "name": "targetAmt",
      "outputs": [
        {
          "internalType": "uint256",
          "name": "",
          "type": "uint256"
        }
      ],
      "stateMutability": "view",
      "type": "function"
    },
    {
      "inputs": [],
      "name": "threshold",
      "outputs": [
        {
          "internalType": "uint256",
          "name": "",
          "type": "uint256"
        }
      ],
      "stateMutability": "view",
      "type": "function"
    },
    {
      "inputs": [],
      "name": "title",
      "outputs": [
        {
          "internalType": "string",
          "name": "",
          "type": "string"
        }
      ],
      "stateMutability": "view",
      "type": "function"
    },
    {
      "inputs": [
        {
          "internalType": "uint256",
          "name": "currentVote",
          "type": "uint256"
        }
      ],
      "name": "vote",
      "outputs": [],
      "stateMutability": "nonpayable",
      "type": "function"
    },
    {
      "inputs": [
        {
          "internalType": "uint256",
          "name": "",
          "type": "uint256"
        },
        {
          "internalType": "uint256",
          "name": "",
          "type": "uint256"
        }
      ],
      "name": "votes",
      "outputs": [
        {
          "internalType": "uint256",
          "name": "",
          "type": "uint256"
        }
      ],
      "stateMutability": "view",
      "type": "function"
    }
  ],
  "bytecode": "0x60806040523480156200001157600080fd5b50604051620037f4380380620037f48339818101604052810190620000379190620004b1565b836000806101000a81548173ffffffffffffffffffffffffffffffffffffffff021916908373ffffffffffffffffffffffffffffffffffffffff1602179055508a600190816200008891906200089a565b5089600290816200009a91906200089a565b50886003819055508760049081620000b391906200089a565b508660059081620000c591906200089a565b5060006006819055508560079081620000df91906200089a565b5084600881905550606483600354620000f99190620009b0565b62000105919062000a2a565b6009819055506000601160016002811062000125576200012462000a62565b5b600202016001600281106200013f576200013e62000a62565b5b0181905560116001600281106200015b576200015a62000a62565b5b6002020160006002811062000175576200017462000a62565b5b01819055601160006002811062000191576200019062000a62565b5b60020201600160028110620001ab57620001aa62000a62565b5b018190556011600060028110620001c757620001c662000a62565b5b60020201600060028110620001e157620001e062000a62565b5b018190555060006015819055506000600a819055506000600e819055506000600f819055506001601060006101000a81548160ff0219169083151502179055506000601060016101000a81548160ff0219169083151502179055506000601660006101000a81548160ff021916908315150217905550600060178190555081601d8190555080601e81905550505050505050505050505062000a91565b6000604051905090565b600080fd5b600080fd5b600080fd5b600080fd5b6000601f19601f8301169050919050565b7f4e487b7100000000000000000000000000000000000000000000000000000000600052604160045260246000fd5b620002e7826200029c565b810181811067ffffffffffffffff82111715620003095762000308620002ad565b5b80604052505050565b60006200031e6200027e565b90506200032c8282620002dc565b919050565b600067ffffffffffffffff8211156200034f576200034e620002ad565b5b6200035a826200029c565b9050602081019050919050565b60005b83811015620003875780820151818401526020810190506200036a565b60008484015250505050565b6000620003aa620003a48462000331565b62000312565b905082815260208101848484011115620003c957620003c862000297565b5b620003d684828562000367565b509392505050565b600082601f830112620003f657620003f562000292565b5b81516200040884826020860162000393565b91505092915050565b6000819050919050565b620004268162000411565b81146200043257600080fd5b50565b60008151905062000446816200041b565b92915050565b600073ffffffffffffffffffffffffffffffffffffffff82169050919050565b600062000479826200044c565b9050919050565b6200048b816200046c565b81146200049757600080fd5b50565b600081519050620004ab8162000480565b92915050565b60008060008060008060008060008060006101608c8e031215620004da57620004d962000288565b5b60008c015167ffffffffffffffff811115620004fb57620004fa6200028d565b5b620005098e828f01620003de565b9b505060208c015167ffffffffffffffff8111156200052d576200052c6200028d565b5b6200053b8e828f01620003de565b9a505060406200054e8e828f0162000435565b99505060608c015167ffffffffffffffff8111156200057257620005716200028d565b5b620005808e828f01620003de565b98505060808c015167ffffffffffffffff811115620005a457620005a36200028d565b5b620005b28e828f01620003de565b97505060a08c015167ffffffffffffffff811115620005d657620005d56200028d565b5b620005e48e828f01620003de565b96505060c0620005f78e828f0162000435565b95505060e06200060a8e828f016200049a565b9450506101006200061e8e828f0162000435565b935050610120620006328e828f0162000435565b925050610140620006468e828f0162000435565b9150509295989b509295989b9093969950565b600081519050919050565b7f4e487b7100000000000000000000000000000000000000000000000000000000600052602260045260246000fd5b60006002820490506001821680620006ac57607f821691505b602082108103620006c257620006c162000664565b5b50919050565b60008190508160005260206000209050919050565b60006020601f8301049050919050565b600082821b905092915050565b6000600883026200072c7fffffffffffffffffffffffffffffffffffffffffffffffffffffffffffffffff82620006ed565b620007388683620006ed565b95508019841693508086168417925050509392505050565b6000819050919050565b60006200077b620007756200076f8462000411565b62000750565b62000411565b9050919050565b6000819050919050565b62000797836200075a565b620007af620007a68262000782565b848454620006fa565b825550505050565b600090565b620007c6620007b7565b620007d38184846200078c565b505050565b5b81811015620007fb57620007ef600082620007bc565b600181019050620007d9565b5050565b601f8211156200084a576200081481620006c8565b6200081f84620006dd565b810160208510156200082f578190505b620008476200083e85620006dd565b830182620007d8565b50505b505050565b600082821c905092915050565b60006200086f600019846008026200084f565b1980831691505092915050565b60006200088a83836200085c565b9150826002028217905092915050565b620008a58262000659565b67ffffffffffffffff811115620008c157620008c0620002ad565b5b620008cd825462000693565b620008da828285620007ff565b600060209050601f831160018114620009125760008415620008fd578287015190505b6200090985826200087c565b86555062000979565b601f1984166200092286620006c8565b60005b828110156200094c5784890151825560018201915060208501945060208101905062000925565b868310156200096c578489015162000968601f8916826200085c565b8355505b6001600288020188555050505b505050505050565b7f4e487b7100000000000000000000000000000000000000000000000000000000600052601160045260246000fd5b6000620009bd8262000411565b9150620009ca8362000411565b9250828202620009da8162000411565b91508282048414831517620009f457620009f362000981565b5b5092915050565b7f4e487b7100000000000000000000000000000000000000000000000000000000600052601260045260246000fd5b600062000a378262000411565b915062000a448362000411565b92508262000a575762000a56620009fb565b5b828204905092915050565b7f4e487b7100000000000000000000000000000000000000000000000000000000600052603260045260246000fd5b612d538062000aa16000396000f3fe6080604052600436106101815760003560e01c80636f9fb98a116100d1578063abc6fd0b1161008a578063d7bb99ba11610064578063d7bb99ba14610516578063d8b0b49914610520578063ef430aa61461054b578063fe1c3a3a1461057657610181565b8063abc6fd0b146104a4578063c67d2941146104ae578063c6e36a32146104d957610181565b80636f9fb98a1461039057806373d659b3146103bb5780637569b3d7146103f85780638da5cb5b1461042357806399c5721f1461044e578063a235b7691461047957610181565b806342cde4e81161013e5780634eeaf476116101185780634eeaf476146102f857806355f150f11461030f578063590791f21461033a5780635fe38e031461036557610181565b806342cde4e81461027757806345bc73f7146102a25780634a79d50c146102cd57610181565b80630121b93f1461018657806310812a7d146101af57806311c2850e146101da57806329dcb0cf146102055780633064e9001461023057806332a2c5d01461024c575b600080fd5b34801561019257600080fd5b506101ad60048036038101906101a89190611f97565b6105a1565b005b3480156101bb57600080fd5b506101c461094b565b6040516101d19190611fd3565b60405180910390f35b3480156101e657600080fd5b506101ef610951565b6040516101fc9190612009565b60405180910390f35b34801561021157600080fd5b5061021a610964565b6040516102279190611fd3565b60405180910390f35b61024a6004803603810190610245919061216a565b61096a565b005b34801561025857600080fd5b50610261610cf9565b60405161026e91906121f4565b60405180910390f35b34801561028357600080fd5b5061028c610d01565b6040516102999190611fd3565b60405180910390f35b3480156102ae57600080fd5b506102b7610d07565b6040516102c49190611fd3565b60405180910390f35b3480156102d957600080fd5b506102e2610d0d565b6040516102ef919061228e565b60405180910390f35b34801561030457600080fd5b5061030d610d9b565b005b34801561031b57600080fd5b50610324610ec0565b604051610331919061228e565b60405180910390f35b34801561034657600080fd5b5061034f610f4e565b60405161035c9190611fd3565b60405180910390f35b34801561037157600080fd5b5061037a610fb6565b604051610387919061228e565b60405180910390f35b34801561039c57600080fd5b506103a5611044565b6040516103b29190611fd3565b60405180910390f35b3480156103c757600080fd5b506103e260048036038101906103dd91906122dc565b61104c565b6040516103ef91906121f4565b60405180910390f35b34801561040457600080fd5b5061040d61109a565b60405161041a9190611fd3565b60405180910390f35b34801561042f57600080fd5b506104386110a0565b604051610445919061233d565b60405180910390f35b34801561045a57600080fd5b506104636110c4565b6040516104709190612009565b60405180910390f35b34801561048557600080fd5b5061048e6110d7565b60405161049b9190611fd3565b60405180910390f35b6104ac6110dd565b005b3480156104ba57600080fd5b506104c361197c565b6040516104d09190612009565b60405180910390f35b3480156104e557600080fd5b5061050060048036038101906104fb9190612358565b61198f565b60405161050d9190611fd3565b60405180910390f35b61051e6119bd565b005b34801561052c57600080fd5b50610535611d3f565b604051610542919061228e565b60405180910390f35b34801561055757600080fd5b50610560611dcd565b60405161056d919061228e565b60405180910390f35b34801561058257600080fd5b5061058b611e5b565b6040516105989190611fd3565b60405180910390f35b601060009054906101000a900460ff166105f0576040517f08c379a00000000000000000000000000000000000000000000000000000000081526004016105e7906123e4565b60405180910390fd5b60008054906101000a900473ffffffffffffffffffffffffffffffffffffffff1673ffffffffffffffffffffffffffffffffffffffff163373ffffffffffffffffffffffffffffffffffffffff160361067e576040517f08c379a000000000000000000000000000000000000000000000000000000000815260040161067590612450565b60405180910390fd5b601660009054906101000a900460ff166106cd576040517f08c379a00000000000000000000000000000000000000000000000000000000081526004016106c4906124bc565b60405180910390fd5b600954601960003373ffffffffffffffffffffffffffffffffffffffff1673ffffffffffffffffffffffffffffffffffffffff1681526020019081526020016000205411610750576040517f08c379a000000000000000000000000000000000000000000000000000000000815260040161074790612528565b60405180910390fd5b601b6015546002811061076657610765612548565b5b0160003373ffffffffffffffffffffffffffffffffffffffff1673ffffffffffffffffffffffffffffffffffffffff16815260200190815260200160002060009054906101000a900460ff16156107f2576040517f08c379a00000000000000000000000000000000000000000000000000000000081526004016107e9906125c3565b60405180910390fd5b6000806015541461081b57604051806060016040528060218152602001612c9860219139610835565b604051806060016040528060228152602001612cb9602291395b90503373ffffffffffffffffffffffffffffffffffffffff167fad36f252f633e10fe00ab4af7ab28ed05c377dd0d941f0b6dc21a16f3d4aa96f600160155461087e9190612612565b834260405161088f93929190612646565b60405180910390a26011601554600281106108ad576108ac612548565b5b6002020182600281106108c3576108c2612548565b5b0160008154809291906108d590612684565b91905055506001601b601554600281106108f2576108f1612548565b5b0160003373ffffffffffffffffffffffffffffffffffffffff1673ffffffffffffffffffffffffffffffffffffffff16815260200190815260200160002060006101000a81548160ff0219169083151502179055505050565b600f5481565b601060019054906101000a900460ff1681565b60085481565b60008054906101000a900473ffffffffffffffffffffffffffffffffffffffff1673ffffffffffffffffffffffffffffffffffffffff163373ffffffffffffffffffffffffffffffffffffffff16146109f8576040517f08c379a00000000000000000000000000000000000000000000000000000000081526004016109ef9061273e565b60405180910390fd5b601060009054906101000a900460ff16610a47576040517f08c379a0000000000000000000000000000000000000000000000000000000008152600401610a3e906123e4565b60405180910390fd5b610a6981604051806060016040528060218152602001612cdb60219139611e61565b60008060005b601860008060009054906101000a900473ffffffffffffffffffffffffffffffffffffffff1673ffffffffffffffffffffffffffffffffffffffff1673ffffffffffffffffffffffffffffffffffffffff16815260200190815260200160002080549050811015610c7b57601860008060009054906101000a900473ffffffffffffffffffffffffffffffffffffffff1673ffffffffffffffffffffffffffffffffffffffff1673ffffffffffffffffffffffffffffffffffffffff1681526020019081526020016000208181548110610b4c57610b4b612548565b5b9060005260206000200160009054906101000a900473ffffffffffffffffffffffffffffffffffffffff169250600354600f54600354610b8c919061275e565b601960008673ffffffffffffffffffffffffffffffffffffffff1673ffffffffffffffffffffffffffffffffffffffff16815260200190815260200160002054610bd69190612792565b610be09190612803565b91506000601960008573ffffffffffffffffffffffffffffffffffffffff1673ffffffffffffffffffffffffffffffffffffffff168152602001908152602001600020819055508273ffffffffffffffffffffffffffffffffffffffff166108fc839081150290604051600060405180830381858888f19350505050158015610c6d573d6000803e3d6000fd5b508080600101915050610a6f565b5060006006819055506000601060006101000a81548160ff021916908315150217905550610ca7610cf9565b73ffffffffffffffffffffffffffffffffffffffff167f153bb2862ac44ffd30d682bcdbf59da13d2ffb1e710dc035699dd58c7a49fa5842604051610cec9190612880565b60405180910390a2505050565b600030905090565b60095481565b60035481565b60018054610d1a906128dd565b80601f0160208091040260200160405190810160405280929190818152602001828054610d46906128dd565b8015610d935780601f10610d6857610100808354040283529160200191610d93565b820191906000526020600020905b815481529060010190602001808311610d7657829003601f168201915b505050505081565b6001601660006101000a81548160ff02191690831515021790555060008060175414610dfc576040518060400160405280601d81526020017f5365636f6e64204175646974205265706f7274205375626d6974746564000000815250610e33565b6040518060400160405280601c81526020017f4669727374204175646974205265706f7274205375626d6974746564000000008152505b905060008054906101000a900473ffffffffffffffffffffffffffffffffffffffff1673ffffffffffffffffffffffffffffffffffffffff167f6fc35804307d7591960023578fd0432f7bbb911a2578ed22f875531976b225938242604051610e9d92919061290e565b60405180910390a260176000815480929190610eb890612684565b919050555050565b60028054610ecd906128dd565b80601f0160208091040260200160405190810160405280929190818152602001828054610ef9906128dd565b8015610f465780601f10610f1b57610100808354040283529160200191610f46565b820191906000526020600020905b815481529060010190602001808311610f2957829003601f168201915b505050505081565b6000601a60008060009054906101000a900473ffffffffffffffffffffffffffffffffffffffff1673ffffffffffffffffffffffffffffffffffffffff1673ffffffffffffffffffffffffffffffffffffffff16815260200190815260200160002054905090565b60048054610fc3906128dd565b80601f0160208091040260200160405190810160405280929190818152602001828054610fef906128dd565b801561103c5780601f106110115761010080835404028352916020019161103c565b820191906000526020600020905b81548152906001019060200180831161101f57829003601f168201915b505050505081565b600047905090565b6018602052816000526040600020818154811061106857600080fd5b906000526020600020016000915091509054906101000a900473ffffffffffffffffffffffffffffffffffffffff1681565b600e5481565b60008054906101000a900473ffffffffffffffffffffffffffffffffffffffff1681565b601060009054906101000a900460ff1681565b60065481565b60008054906101000a900473ffffffffffffffffffffffffffffffffffffffff1673ffffffffffffffffffffffffffffffffffffffff163373ffffffffffffffffffffffffffffffffffffffff161461116b576040517f08c379a00000000000000000000000000000000000000000000000000000000081526004016111629061273e565b60405180910390fd5b601060009054906101000a900460ff166111ba576040517f08c379a00000000000000000000000000000000000000000000000000000000081526004016111b1906123e4565b60405180910390fd5b60085442116111fe576040517f08c379a00000000000000000000000000000000000000000000000000000000081526004016111f59061298a565b60405180910390fd5b6000600a540361151b5760006064604660035461121b9190612792565b6112259190612803565b905080600654106114d65760006064601d546006546112449190612792565b61124e9190612803565b905060006064601e546006546112649190612792565b61126e9190612803565b90506000818361127e9190612612565b60065461128b919061275e565b905082600b6001600381106112a3576112a2612548565b5b01819055600b6000600381106112bc576112bb612548565b5b018190555080600b6002600381106112d7576112d6612548565b5b018190555060008054906101000a900473ffffffffffffffffffffffffffffffffffffffff1673ffffffffffffffffffffffffffffffffffffffff166108fc600b600a546003811061132c5761132b612548565b5b01549081150290604051600060405180830381858888f19350505050158015611359573d6000803e3d6000fd5b50600b600a54600381106113705761136f612548565b5b0154601a60008060009054906101000a900473ffffffffffffffffffffffffffffffffffffffff1673ffffffffffffffffffffffffffffffffffffffff1673ffffffffffffffffffffffffffffffffffffffff16815260200190815260200160002060008282546113e19190612612565b92505081905550600b600a54600381106113fe576113fd612548565b5b0154600f60008282546114119190612612565b92505081905550600b600a546003811061142e5761142d612548565b5b015460066000828254611441919061275e565b92505081905550600a600081548092919061145b90612684565b9190505550611468610cf9565b73ffffffffffffffffffffffffffffffffffffffff167fc305c1562b0f741d2930ceb8c5957e71966c56489d23e0a04bc12b608842a77c600b600a54600381106114b5576114b4612548565b5b0154426040516114c69291906129f6565b60405180910390a2505050611515565b6115146040518060400160405280601e81526020017f4469736275727361626c6520616d6f756e74206e6f742072656163686564000081525061096a565b5b5061197a565b600060116015546002811061153357611532612548565b5b6002020160006002811061154a57611549612548565b5b01549050600060116015546002811061156657611565612548565b5b6002020160016002811061157d5761157c612548565b5b015460116015546002811061159557611594612548565b5b600202016000600281106115ac576115ab612548565b5b01546115b89190612612565b9050600854421180156115d85750601060019054906101000a900460ff16155b15611603576115fe604051806060016040528060228152602001612cfc6022913961096a565b611977565b600181901c8211156119375760008054906101000a900473ffffffffffffffffffffffffffffffffffffffff1673ffffffffffffffffffffffffffffffffffffffff166108fc600b600a546003811061165f5761165e612548565b5b01549081150290604051600060405180830381858888f1935050505015801561168c573d6000803e3d6000fd5b50600b600a54600381106116a3576116a2612548565b5b0154601a60008060009054906101000a900473ffffffffffffffffffffffffffffffffffffffff1673ffffffffffffffffffffffffffffffffffffffff1673ffffffffffffffffffffffffffffffffffffffff16815260200190815260200160002060008282546117149190612612565b92505081905550600b600a546003811061173157611730612548565b5b0154600f60008282546117449190612612565b92505081905550600b600a546003811061176157611760612548565b5b015460066000828254611774919061275e565b9250508190555060006001600a54146117c2576040518060400160405280601b81526020017f546869726420696e7374616c6c6d656e742064697362757273656400000000008152506117f9565b6040518060400160405280601c81526020017f5365636f6e6420696e7374616c6c6d656e7420646973627572736564000000008152505b9050611803610cf9565b73ffffffffffffffffffffffffffffffffffffffff167fc305c1562b0f741d2930ceb8c5957e71966c56489d23e0a04bc12b608842a77c600b600a54600381106118505761184f612548565b5b0154834260405161186393929190612646565b60405180910390a2600a600081548092919061187e90612684565b91905055506003600a54036118fe576000601060006101000a81548160ff0219169083151502179055506118b0610cf9565b73ffffffffffffffffffffffffffffffffffffffff167f153bb2862ac44ffd30d682bcdbf59da13d2ffb1e710dc035699dd58c7a49fa58426040516118f59190612880565b60405180910390a25b6015600081548092919061191190612684565b91905055506000601660006101000a81548160ff02191690831515021790555050611976565b6119756040518060400160405280601181526020017f4c61636b206f66206d616a6f726974792e00000000000000000000000000000081525061096a565b5b5b50505b565b601660009054906101000a900460ff1681565b6011826002811061199f57600080fd5b6002020181600281106119b157600080fd5b01600091509150505481565b601060009054906101000a900460ff16611a0c576040517f08c379a0000000000000000000000000000000000000000000000000000000008152600401611a03906123e4565b60405180910390fd5b601060019054906101000a900460ff1615611a5c576040517f08c379a0000000000000000000000000000000000000000000000000000000008152600401611a5390612a7e565b60405180910390fd5b600854421115611aa1576040517f08c379a0000000000000000000000000000000000000000000000000000000008152600401611a9890612aea565b60405180910390fd5b60035460065434611ab29190612612565b1115611af3576040517f08c379a0000000000000000000000000000000000000000000000000000000008152600401611aea90612b56565b60405180910390fd5b60003411611b36576040517f08c379a0000000000000000000000000000000000000000000000000000000008152600401611b2d90612be8565b60405180910390fd5b6000601960003373ffffffffffffffffffffffffffffffffffffffff1673ffffffffffffffffffffffffffffffffffffffff1681526020019081526020016000205403611c5757601860008060009054906101000a900473ffffffffffffffffffffffffffffffffffffffff1673ffffffffffffffffffffffffffffffffffffffff1673ffffffffffffffffffffffffffffffffffffffff168152602001908152602001600020339080600181540180825580915050600190039060005260206000200160009091909190916101000a81548173ffffffffffffffffffffffffffffffffffffffff021916908373ffffffffffffffffffffffffffffffffffffffff160217905550600e6000815480929190611c5190612684565b91905055505b34601960003373ffffffffffffffffffffffffffffffffffffffff1673ffffffffffffffffffffffffffffffffffffffff1681526020019081526020016000206000828254611ca69190612612565b925050819055503460066000828254611cbf9190612612565b9250508190555060035460065403611ced576001601060016101000a81548160ff0219169083151502179055505b3373ffffffffffffffffffffffffffffffffffffffff167fd51536b687caf52ac0a4f7008c1ffecc1b0d746f5ef64803892f3cef5f45d4603442604051611d35929190612c08565b60405180910390a2565b60078054611d4c906128dd565b80601f0160208091040260200160405190810160405280929190818152602001828054611d78906128dd565b8015611dc55780601f10611d9a57610100808354040283529160200191611dc5565b820191906000526020600020905b815481529060010190602001808311611da857829003601f168201915b505050505081565b60058054611dda906128dd565b80601f0160208091040260200160405190810160405280929190818152602001828054611e06906128dd565b8015611e535780601f10611e2857610100808354040283529160200191611e53565b820191906000526020600020905b815481529060010190602001808311611e3657829003601f168201915b505050505081565b60175481565b611ef98282604051602401611e77929190612c31565b6040516020818303038152906040527f4b5c4277000000000000000000000000000000000000000000000000000000007bffffffffffffffffffffffffffffffffffffffffffffffffffffffff19166020820180517bffffffffffffffffffffffffffffffffffffffffffffffffffffffff8381831617835250505050611efd565b5050565b611f1481611f0c611f17611f38565b63ffffffff16565b50565b60006a636f6e736f6c652e6c6f679050600080835160208501845afa505050565b611f43819050919050565b611f4b612c68565b565b6000604051905090565b600080fd5b600080fd5b6000819050919050565b611f7481611f61565b8114611f7f57600080fd5b50565b600081359050611f9181611f6b565b92915050565b600060208284031215611fad57611fac611f57565b5b6000611fbb84828501611f82565b91505092915050565b611fcd81611f61565b82525050565b6000602082019050611fe86000830184611fc4565b92915050565b60008115159050919050565b61200381611fee565b82525050565b600060208201905061201e6000830184611ffa565b92915050565b600080fd5b600080fd5b6000601f19601f8301169050919050565b7f4e487b7100000000000000000000000000000000000000000000000000000000600052604160045260246000fd5b6120778261202e565b810181811067ffffffffffffffff821117156120965761209561203f565b5b80604052505050565b60006120a9611f4d565b90506120b5828261206e565b919050565b600067ffffffffffffffff8211156120d5576120d461203f565b5b6120de8261202e565b9050602081019050919050565b82818337600083830152505050565b600061210d612108846120ba565b61209f565b90508281526020810184848401111561212957612128612029565b5b6121348482856120eb565b509392505050565b600082601f83011261215157612150612024565b5b81356121618482602086016120fa565b91505092915050565b6000602082840312156121805761217f611f57565b5b600082013567ffffffffffffffff81111561219e5761219d611f5c565b5b6121aa8482850161213c565b91505092915050565b600073ffffffffffffffffffffffffffffffffffffffff82169050919050565b60006121de826121b3565b9050919050565b6121ee816121d3565b82525050565b600060208201905061220960008301846121e5565b92915050565b600081519050919050565b600082825260208201905092915050565b60005b8381101561224957808201518184015260208101905061222e565b60008484015250505050565b60006122608261220f565b61226a818561221a565b935061227a81856020860161222b565b6122838161202e565b840191505092915050565b600060208201905081810360008301526122a88184612255565b905092915050565b6122b9816121d3565b81146122c457600080fd5b50565b6000813590506122d6816122b0565b92915050565b600080604083850312156122f3576122f2611f57565b5b6000612301858286016122c7565b925050602061231285828601611f82565b9150509250929050565b6000612327826121b3565b9050919050565b6123378161231c565b82525050565b6000602082019050612352600083018461232e565b92915050565b6000806040838503121561236f5761236e611f57565b5b600061237d85828601611f82565b925050602061238e85828601611f82565b9150509250929050565b7f43616d706169676e20616c726561647920636c6f736564000000000000000000600082015250565b60006123ce60178361221a565b91506123d982612398565b602082019050919050565b600060208201905081810360008301526123fd816123c1565b9050919050565b7f4f776e65722063616e277420766f746500000000000000000000000000000000600082015250565b600061243a60108361221a565b915061244582612404565b602082019050919050565b600060208201905081810360008301526124698161242d565b9050919050565b7f4175646974207265706f7274206e6f7420796574207375626d69747465640000600082015250565b60006124a6601e8361221a565b91506124b182612470565b602082019050919050565b600060208201905081810360008301526124d581612499565b9050919050565b7f596f7520617265206e6f7420616e20617070726f766572000000000000000000600082015250565b600061251260178361221a565b915061251d826124dc565b602082019050919050565b6000602082019050818103600083015261254181612505565b9050919050565b7f4e487b7100000000000000000000000000000000000000000000000000000000600052603260045260246000fd5b7f596f75206861766520616c726561647920766f74656400000000000000000000600082015250565b60006125ad60168361221a565b91506125b882612577565b602082019050919050565b600060208201905081810360008301526125dc816125a0565b9050919050565b7f4e487b7100000000000000000000000000000000000000000000000000000000600052601160045260246000fd5b600061261d82611f61565b915061262883611f61565b92508282019050808211156126405761263f6125e3565b5b92915050565b600060608201905061265b6000830186611fc4565b818103602083015261266d8185612255565b905061267c6040830184611fc4565b949350505050565b600061268f82611f61565b91507fffffffffffffffffffffffffffffffffffffffffffffffffffffffffffffffff82036126c1576126c06125e3565b5b600182019050919050565b7f4f6e6c79206f776e65722063616e2063616c6c20746869732066756e6374696f60008201527f6e00000000000000000000000000000000000000000000000000000000000000602082015250565b600061272860218361221a565b9150612733826126cc565b604082019050919050565b600060208201905081810360008301526127578161271b565b9050919050565b600061276982611f61565b915061277483611f61565b925082820390508181111561278c5761278b6125e3565b5b92915050565b600061279d82611f61565b91506127a883611f61565b92508282026127b681611f61565b915082820484148315176127cd576127cc6125e3565b5b5092915050565b7f4e487b7100000000000000000000000000000000000000000000000000000000600052601260045260246000fd5b600061280e82611f61565b915061281983611f61565b925082612829576128286127d4565b5b828204905092915050565b7f43616d706169676e20436c6f7365640000000000000000000000000000000000600082015250565b600061286a600f8361221a565b915061287582612834565b602082019050919050565b600060408201905081810360008301526128998161285d565b90506128a86020830184611fc4565b92915050565b7f4e487b7100000000000000000000000000000000000000000000000000000000600052602260045260246000fd5b600060028204905060018216806128f557607f821691505b602082108103612908576129076128ae565b5b50919050565b600060408201905081810360008301526129288185612255565b90506129376020830184611fc4565b9392505050565b7f446561646c696e65206e6f742079657420726561636865640000000000000000600082015250565b600061297460188361221a565b915061297f8261293e565b602082019050919050565b600060208201905081810360008301526129a381612967565b9050919050565b7f466972737420696e7374616c6c6d656e74206469736275727365640000000000600082015250565b60006129e0601b8361221a565b91506129eb826129aa565b602082019050919050565b6000606082019050612a0b6000830185611fc4565b8181036020830152612a1c816129d3565b9050612a2b6040830184611fc4565b9392505050565b7f54617267657420616c7265616479206163686965766564000000000000000000600082015250565b6000612a6860178361221a565b9150612a7382612a32565b602082019050919050565b60006020820190508181036000830152612a9781612a5b565b9050919050565b7f446561646c696e65207265616368656400000000000000000000000000000000600082015250565b6000612ad460108361221a565b9150612adf82612a9e565b602082019050919050565b60006020820190508181036000830152612b0381612ac7565b9050919050565b7f43616e27742072656365697665206d6f7265207468616e207461726765740000600082015250565b6000612b40601e8361221a565b9150612b4b82612b0a565b602082019050919050565b60006020820190508181036000830152612b6f81612b33565b9050919050565b7f436f6e747269627574696f6e20616d6f756e74206d757374206265206772656160008201527f746572207468616e203000000000000000000000000000000000000000000000602082015250565b6000612bd2602a8361221a565b9150612bdd82612b76565b604082019050919050565b60006020820190508181036000830152612c0181612bc5565b9050919050565b6000604082019050612c1d6000830185611fc4565b612c2a6020830184611fc4565b9392505050565b60006040820190508181036000830152612c4b8185612255565b90508181036020830152612c5f8184612255565b90509392505050565b7f4e487b7100000000000000000000000000000000000000000000000000000000600052605160045260246000fdfe546869726420696e7374616c6c6d656e7420766f746520726567697374657265645365636f6e6420696e7374616c6c6d656e7420766f746520726567697374657265642052652d696d62757273656d656e742070726f6365737320696e69746961746564546172676574206e6f742061636869657665642074696c6c20646561646c696e652ea264697066735822122053f7861f0d8ec9ad9c5c887d5ed207fce0b3b340d7fc44695487baca24dda97664736f6c63430008180033",
  "linkReferences": {},
  "deployedLinkReferences": {}
}